:020000040800F2
:1000000000040020B9020008BB020008BB0200087F
:10001000BB020008BB020008BB020008BB020008CC
:10002000BB020008BB020008BB020008114A00081E
:10003000BB020008BB020008BB020008BB020008AC
:10004000BB020008BB020008BB020008BB0200089C
:10005000BB020008BB020008BB020008BB0200088C
:10006000BB020008BB020008BB02000811A5000883
:10007000E1A40008B1A4000881A4000851A400086C
:1000800021A40008F1A3000841A50008BB02000854
:10009000BB020008BB020008BB020008BB0200084C
:1000A000BB020008BB020008BB020008BB0200083C
:1000B000A1A10008BB020008BB020008BB020008A7
:1000C000BB020008BB020008BB020008BB0200081C
:1000D000BB020008BB02000801A00008BB02000828
:1000E000BB020008BB020008BB020008BB020008FC
:1000F000BB020008BB020008BB020008C1A3000845
:10010000BB020008BB020008BB020008BB020008DB
:10011000BB020008BB020008BB020008BB020008CB
:1001200091A3000861A3000831A3000801A30008FF
:10013000D1A20008BB020008BB020008BB020008F5
:10014000BB020008BB020008BB020008BB0200089B
:10015000A1A2000871A2000841A20008BB02000889
:10016000BB020008BB020008BB020008BB0200087B
:10017000BB020008BB020008BB020008BB0200086B
:10018000BB020008BB020008BB020008BB0200085B
:10019000BB020008BB020008BB020008BB0200084B
:1001A000BB020008BB020008BB020008BB0200083B
:1001B000BB020008BB020008BB020008BB0200082B
:1001C000BB020008BB020008BB020008BB0200081B
:1001D000BB020008BB020008BB020008BB0200080B
:1001E00072B6274880F30888264880F30988264895
:1001F0004EF60851CEF200010860022080F3148808
:10020000BFF36F8F0AF04CFA09F012FE4FF0553031
:100210001E491B4A91423CBF41F8040BFAE71C49B6
:10022000184A91423CBF41F8040BFAE719491A4AAF
:100230001A4B9A423EBF51F8040B42F8040BF8E700
:1002400000201749174A91423CBF41F8040BFAE7D6
:100250000AF0DEF90AF01CFA134C144DAC4203DA32
:1002600054F8041B8847F9E707F09AFC104C114D2D
:10027000AC4203DA54F8041B8847F9E70AF000BAE5
:1002800000040020000800200000000800000020FA
:1002900000040020A4D2000800080020E00C002088
:1002A000E00C0020401E0020E0010008E0010008F2
:1002B000E0010008E001000892E700F000F8FEE726
:1002C0002DE9F04FC1F80CD0C3689D46BDE8F08F12
:1002D000002383F311882846A047002004F0A8FBE0
:1002E00004F0FEFC00DFFEE781F0004102E000BF09
:1002F00083F0004330B54FEA41044FEA430594EAE6
:10030000050F08BF90EA020F1FBF54EA000C55EA20
:10031000020C7FEA645C7FEA655C00F0E2804FEAF1
:100320005454D4EB5555B8BF6D420CDD2C4480EAD3
:10033000020281EA030382EA000083EA010180EA03
:10034000020281EA0303362D88BF30BD11F0004F51
:100350004FEA01314FF4801C4CEA113102D0404287
:1003600061EB410113F0004F4FEA03334CEA1333C2
:1003700002D0524263EB430394EA050F00F0A780DA
:10038000A4F10104D5F1200E0DDB02FA0EFC22FAD5
:1003900005F2801841F1000103FA0EF2801843FAC9
:1003A00005F359410EE0A5F120050EF1200E012ABA
:1003B00003FA0EFC28BF4CF0020C43FA05F3C018F8
:1003C00051EBE37101F0004507D54FF0000EDCF171
:1003D000000C7EEB00006EEB0101B1F5801F1BD31A
:1003E000B1F5001F0CD349085FEA30004FEA3C0C1E
:1003F00004F101044FEA445212F5800F80F09A8014
:10040000BCF1004F08BF5FEA500C50F1000041EB17
:10041000045141EA050130BD5FEA4C0C404141EB1B
:10042000010111F4801FA4F10104E9D191F0000F42
:1004300004BF01460020B1FA81F308BF2033A3F1C5
:100440000B03B3F120020CDA0C3208DD02F1140CBC
:10045000C2F10C0201FA0CF021FA02F10CE002F1F7
:100460001402D8BFC2F1200C01FA02F120FA0CFCF0
:10047000DCBF41EA0C019040E41AA2BF01EB045139
:10048000294330BD6FEA04041F3C1CDA0C340EDC37
:1004900004F11404C4F1200220FA04F001FA02F37A
:1004A00040EA030021FA04F345EA030130BDC4F138
:1004B0000C04C4F1200220FA02F001FA04F340EA2D
:1004C0000300294630BD21FA04F0294630BD94F0DE
:1004D000000F83F4801306BF81F480110134013DC5
:1004E0004EE77FEA645C18BF7FEA655C29D094EA36
:1004F000050F08BF90EA020F05D054EA000C04BFB4
:100500001946104630BD91EA030F1EBF002100209E
:1005100030BD5FEA545C05D14000494128BF41F03D
:10052000004130BD14F580043CBF01F5801130BDA1
:1005300001F0004545F0FE4141F470014FF000002C
:1005400030BD7FEA645C1ABF194610467FEA655CDD
:100550001CBF0B46024650EA013406BF52EA03357F
:1005600091EA030F41F4002130BD00BF90F0000F6D
:1005700004BF0021704730B54FF4806404F13204A9
:100580004FF000054FF0000150E700BF90F0000F62
:1005900004BF0021704730B54FF4806404F1320489
:1005A00010F0004548BF40424FF000013EE700BF59
:1005B00042004FEAE2014FEA31014FEA02701FBFE9
:1005C00012F07F4393F07F4F81F06051704732F01B
:1005D0007F4208BF704793F07F4F04BF41F4002172
:1005E000704730B54FF4607401F0004521F00041D0
:1005F0001CE700BF50EA010208BF704730B54FF05A
:1006000000050AE050EA010208BF704730B511F05A
:10061000004502D5404261EB41014FF4806404F192
:1006200032045FEA915C3FF4D8AE4FF003025FEA18
:10063000DC0C18BF03325FEADC0C18BF033202EB9C
:10064000DC02C2F1200300FA03FC20FA02F001FAF6
:1006500003FE40EA0E0021FA02F11444BDE600BF99
:1006600070B54FF0FF0C4CF4E06C1CEA11541DBF48
:100670001CEA135594EA0C0F95EA0C0F00F0DEF813
:100680002C4481EA030621EA4C5123EA4C5350EAF8
:10069000013518BF52EA033541F4801143F4801349
:1006A00038D0A0FB02CE4FF00005E1FB02E506F0DA
:1006B0000042E0FB03E54FF00006E1FB03569CF02F
:1006C000000F18BF4EF0010EA4F1FF04B6F5007F35
:1006D00064F5407404D25FEA4E0E6D4146EB0606A7
:1006E00042EAC62141EA55514FEAC52040EA5E5030
:1006F0004FEACE2EB4F1FD0C88BFBCF5E06F1ED8DA
:10070000BEF1004F08BF5FEA500E50F1000041EB10
:10071000045170BD06F0004646EA010140EA0200BD
:1007200081EA0301B4EB5C04C2BFD4EB0C0541EADF
:10073000045170BD41F480114FF0000E013C00F3F4
:10074000AB8014F1360FDEBF002001F0004170BD18
:10075000C4F10004203C35DA0C341BDC04F1140431
:10076000C4F1200500FA05F320FA04F001FA05F2BD
:1007700040EA020001F0004221F0004110EBD3708A
:1007800021FA04F642EB06015EEA430E08BF20EAB6
:10079000D37070BDC4F10C04C4F1200500FA04F359
:1007A00020FA05F001FA04F240EA020001F00041EB
:1007B00010EBD37041F100015EEA430E08BF20EA5E
:1007C000D37070BDC4F1200500FA05F24EEA020EA6
:1007D00020FA04F301FA05F243EA020321FA04F0D5
:1007E00001F0004121FA04F220EA020000EBD3708C
:1007F0005EEA430E08BF20EAD37070BD94F0000F8C
:100800000FD101F00046400041EB010111F4801FBF
:1008100008BF013CF7D041EA060195F0000F18BF70
:10082000704703F00046520043EB030313F4801FAC
:1008300008BF013DF7D043EA0603704794EA0C0F66
:100840000CEA135518BF95EA0C0F0CD050EA41067C
:1008500018BF52EA4306D1D181EA030101F00041F9
:100860004FF0000070BD50EA410606BF1046194621
:1008700052EA430619D094EA0C0F02D150EA01362D
:1008800013D195EA0C0F05D152EA03361CBF10466E
:1008900019460AD181EA030101F0004141F0FE410D
:1008A00041F470014FF0000070BD41F0FE4141F491
:1008B000780170BD70B54FF0FF0C4CF4E06C1CEA91
:1008C00011541DBF1CEA135594EA0C0F95EA0C0F46
:1008D00000F0A7F8A4EB050481EA030E52EA033501
:1008E0004FEA013100F088804FEA03334FF0805522
:1008F00045EA131343EA12634FEA022245EA11154F
:1009000045EA10654FEA00260EF000419D4208BFFF
:10091000964244F1FD0404F5407402D25B084FEAAC
:100920003202B61A65EB03055B084FEA32024FF458
:1009300080104FF4002CB6EB020E75EB030E22BFB5
:10094000B61A754640EA0C005B084FEA3202B6EB75
:10095000020E75EB030E22BFB61A754640EA5C0024
:100960005B084FEA3202B6EB020E75EB030E22BFB4
:10097000B61A754640EA9C005B084FEA3202B6EBB5
:10098000020E75EB030E22BFB61A754640EADC0074
:1009900055EA060E18D04FEA051545EA16754FEAD6
:1009A00006164FEAC30343EA52734FEAC2025FEAF4
:1009B0001C1CC0D111F4801F0BD141EA00014FF083
:1009C00000004FF0004CB6E711F4801F04BF014354
:1009D0000020B4F1FD0C88BFBCF5E06F3FF6AFAE70
:1009E000B5EB030C04BFB6EB020C5FEA500C50F100
:1009F000000041EB045170BD0EF0004E4EEA113183
:100A000014EB5C04C2BFD4EB0C0541EA045170BD89
:100A100041F480114FF0000E013C90E645EA060ECD
:100A20008DE60CEA135594EA0C0F08BF95EA0C0FFB
:100A30003FF43BAF94EA0C0F0AD150EA01347FF443
:100A400034AF95EA0C0F7FF425AF104619462CE71A
:100A500095EA0C0F06D152EA03353FF4FDAE10467D
:100A6000194622E750EA410618BF52EA43067FF4CE
:100A7000C5AE50EA41047FF40DAF52EA43057FF45E
:100A8000EBAE12E74FEA410212F5001215D211D572
:100A90006FF47873B3EB625212D94FEAC12343F07B
:100AA000004343EA505311F0004F23FA02F018BFFD
:100AB000404270474FF00000704750EA013005D1C6
:100AC00011F0004008BF6FF0004070474FF0000089
:100AD000704700BF4FEA4102B2F1E04324BFB3F5D3
:100AE000001CDCF1FE5C0DD901F0004C4FEAC002A5
:100AF0004CEA5070B2F1004F40EB830008BF20F089
:100B00000100704711F0804F21D113F13872BCBF42
:100B100001F00040704741F480114FEA5252C2F197
:100B20001802C2F1200C10FA0CF320FA02F018BFE0
:100B300040F001004FEAC1234FEAD32303FA0CFC33
:100B400040EA0C0023FA02F34FEA4303CCE77FEAC2
:100B5000625307D150EA01331EBF4FF0FE4040F40C
:100B60004000704701F0004040F0FE4040F40000BB
:100B7000704700BF80F0004002E000BF81F00041FC
:100B800042001FBF5FEA410392EA030F7FEA226C33
:100B90007FEA236C6AD04FEA1262D2EB1363C1BFC3
:100BA000D218414048404140B8BF5B42192B88BF32
:100BB000704710F0004F40F4000020F07F4018BF55
:100BC000404211F0004F41F4000121F07F4118BF75
:100BD000494292EA030F3FD0A2F1010241FA03FC1D
:100BE00010EB0C00C3F1200301FA03F100F0004305
:100BF00002D5494260EB4000B0F5000F13D3B0F1CD
:100C0000807F06D340084FEA310102F10102FE2A3B
:100C100051D2B1F1004F40EBC25008BF20F00100AB
:100C200040EA03007047490040EB000010F4000F59
:100C3000A2F10102EDD1B0FA80FCACF1080CB2EBEC
:100C40000C0200FA0CF0AABF00EBC250524218434B
:100C5000BCBFD0401843704792F0000F81F40001F0
:100C600006BF80F400000132013BB5E74FEA4103C3
:100C70007FEA226C18BF7FEA236C21D092EA030F2F
:100C800004D092F0000F08BF0846704790EA010FA9
:100C90001CBF0020704712F07F4F04D1400028BFD6
:100CA00040F00040704712F100723CBF00F50000B8
:100CB000704700F0004343F0FE4040F400007047EE
:100CC0007FEA226216BF08467FEA2363014642029A
:100CD00006BF5FEA412390EA010F40F480007047AD
:100CE0004FF0000304E000BF10F0004348BF404253
:100CF0005FEA000C08BF704743F0964301464FF08F
:100D000000001CE050EA010208BF70474FF00003EA
:100D10000AE000BF50EA010208BF704711F000432B
:100D200002D5404261EB41015FEA010C02BF8446FB
:100D30000146002043F0B64308BFA3F18053A3F55A
:100D40000003BCFA8CF2083AA3EBC25310DB01FAA1
:100D500002FC634400FA02FCC2F12002BCF1004F25
:100D600020FA02F243EB020008BF20F001007047B6
:100D700002F1200201FA02FCC2F1200250EA4C000A
:100D800021FA02F243EB020008BF20EADC70704750
:100D90004FF0FF3C06E000BF4FF0010C02E000BF47
:100DA0004FF0010C4DF804CD4FEA40024FEA4103E9
:100DB0007FEA226C18BF7FEA236C11D001B052EA9F
:100DC000530C18BF90EA010F58BFB2EB030088BF65
:100DD000C81738BF6FEAE17018BF40F001007047D4
:100DE0007FEA226C02D15FEA402C05D17FEA236CB6
:100DF000E4D15FEA412CE1D05DF8040B704700BFFD
:100E0000844608466146FFE70FB5FFF7C9FF002893
:100E100048BF10F1000F0FBD4DF808EDFFF7F4FFCC
:100E20000CBF012000205DF808FB00BF4DF808ED65
:100E3000FFF7EAFF34BF012000205DF808FB00BF88
:100E40004DF808EDFFF7E0FF94BF012000205DF8AA
:100E500008FB00BF4DF808EDFFF7D2FF94BF01205B
:100E600000205DF808FB00BF4DF808EDFFF7C8FF54
:100E700034BF012000205DF808FB00BF4FEA4002AC
:100E8000B2F1FE4F0FD34FF09E03B3EB12620DD9B8
:100E90004FEA002343F0004310F0004F23FA02F022
:100EA00018BF404270474FF00000704712F1610FC9
:100EB00001D1420205D110F0004008BF6FF00040A0
:100EC00070474FF000007047844641EA000313F07A
:100ED00003036DD1403A41D351F8043B40F8043B41
:100EE00051F8043B40F8043B51F8043B40F8043B04
:100EF00051F8043B40F8043B51F8043B40F8043BF4
:100F000051F8043B40F8043B51F8043B40F8043BE3
:100F100051F8043B40F8043B51F8043B40F8043BD3
:100F200051F8043B40F8043B51F8043B40F8043BC3
:100F300051F8043B40F8043B51F8043B40F8043BB3
:100F400051F8043B40F8043B51F8043B40F8043BA3
:100F500051F8043B40F8043B403ABDD2303211D343
:100F600051F8043B40F8043B51F8043B40F8043B83
:100F700051F8043B40F8043B51F8043B40F8043B73
:100F8000103AEDD20C3205D351F8043B40F8043B43
:100F9000043AF9D2043208D0D2071CBF11F8013B41
:100FA00000F8013B01D30B8803806046704700BF07
:100FB000082A13D38B078DD010F003038AD0C3F116
:100FC0000403D21ADB071CBF11F8013B00F8013BF8
:100FD00080D331F8023B20F8023B7BE7043AD9D3B7
:100FE000013A11F8013B00F8013BF9D20B7803708C
:100FF0004B7843708B788370604670470000000028
:10100000A2EB0300704700BF02780B78012A28BFCB
:101010009A42F5D16DE9044540EA0104CDE9026741
:101020006FF0000C4FEA447212B380EA010414F02E
:10103000070F6AD100F0070420F0070004F0030551
:1010400021F007014FEAC505F0E8042314F0040F6E
:10105000F1E804670CFA05F462EA040266EA0406A1
:101060000AD063EA0403624667EA0407664603E0BF
:10107000F0E80423F1E8046782FA4CF582EA0604FA
:10108000A4FA8CF46CBB83FA4CF583EA0705A5FA45
:101090008CF595B950E9022351E9026782FA4CF5C3
:1010A00082EA0604A4FA8CF483FA4CF583EA070575
:1010B000A5FA8CF52543DBD09CB92DBAB5FA85F499
:1010C00024F0070427FA04F1DDE9026723FA04F3A8
:1010D00003F0FF0001F0FF01FDE80445A0EB010073
:1010E000704724BAB4FA84F424F0070426FA04F111
:1010F000DDE9026722FA04F202F0FF0001F0FF01CD
:10110000FDE80445A0EB0100704714F0030F3CD14B
:1011100010F0030428D150F8082B51F8083B82FA4C
:101120004CF582EA0305A5FA8CF55DB950F8042C5C
:1011300051F8043C82FA4CF582EA0305A5FA8CF5D5
:10114000002DE8D02DBAB5FA85F424F0070423FA6F
:1011500004F122FA04F202F0FF0001F0FF01FDE8C1
:101160000445A0EB010070474FEAC40420F00300DF
:1011700050F8082B21F0030151F8083B0CFA04F455
:1011800062EA040263EA0403C9E710F003041AD018
:10119000A1EB040120F00300E40750F8042B06D073
:1011A0000FD28B785FFAA2F4E41A06D12BB1CB7878
:1011B0005FFAB2F4E41A00D11BB920465DF8104B77
:1011C000704701F1040150F8042BCC0721F0030112
:1011D00051F8043B48D824D222F07F4482FA4CF5DF
:1011E00094EA1325A5FA8CF50AD165B951F8043BA8
:1011F00084EA0204B4EB036F0ED150F8042BEBE742
:101200004FEA132355E035F07F454DD10878FDE8CE
:101210000445C0F1000070474FEA126203F0FF037B
:1012200047E002EA1C4482FA4CF594EA1345A5FA19
:101230008CF50AD165B951F8043B84EA0204B4EB99
:10124000034F0CD150F8042BEBE74FEA134330E087
:1012500015EA1C4528D10B884FEA124229E04FEAD3
:10126000124203EA1C4324E002F0FF0482FA4CF528
:1012700094EA1365A5FA8CF50AD165B951F8043BD7
:1012800084EA0204B4EB032F09D150F8042BEBE7F6
:101290004FEA13630DE015F0FF0F05D10B684FEA1D
:1012A000122223F07F4304E04FF00000FDE80445E4
:1012B000704712BA1BBA82FA4CF482EA0304A4FA09
:1012C0008CF5B5FA85F402FA04F203FA04F34FEA56
:1012D0001260FDE80445A0EB1360704700000000B9
:1012E000014B5B6883607047001000E00000000065
:1012F000202383F31188094B9A6822B10020002330
:1013000083F311887047064A92699A60916BD9609D
:1013100093630120002383F311887047300C002071
:10132000A00D0020000000000000000000000000F0
:10133000202383F31188044B9A690023506B536375
:1013400083F31188704700BFA00D0020000000004B
:101350004FF08043091A5B6A1B1A8B4208D3054978
:10136000054A064B06480860012010701870704747
:1013700000207047E416002088170020E81600209F
:10138000E0AA0008000000000000000000000000CB
:10139000F0B4202383F311880D4DD5E900744E1E5F
:1013A0003A448319494290190B4008400344A34230
:1013B00007D89F4205D82B60002383F31188F0BC27
:1013C00070470020002383F31188F0BC704700BFF2
:1013D000380F0020000000000000000000000000A6
:1013E000024AD36843F0C003D36070470044004012
:1013F0000B4B0C4AD91D21F00701CB1AC3F178031E
:1014000010B4002002F10C04DB084B60516008604E
:10141000C2E9034410609060506110BC704700BF87
:1014200008170020EC16002000000000000000005B
:10143000054B00220421C3E90033DA609A619A6007
:10144000C3E90411704700BF140C00200000000025
:10145000FFF7EEBF000000000000000000000000E9
:1014600000207047000000000000000000000000A5
:10147000034B002104221960D960C3E9012270479F
:10148000780C0020000000000000000000000000B8
:1014900030B40F4B0F4A1A6002F1080503F1200423
:1014A00003F1300003F14001C3E9022200225D6034
:1014B000C3E90844C3E90C00C3E910111A611A75A5
:1014C000C3E906229A629A639A6430BC704700BFEF
:1014D000900C0020900D0020000000000000000093
:1014E00030B40F4B0F4A1A6002F1100503F12004CB
:1014F00003F1300003F14001C3E9022200225D60E4
:10150000C3E90844C3E90C00C3E910111A611A7554
:10151000C3E906229A629A639A6430BC704700BF9E
:10152000900C0020900D0020000000000000000042
:1015300030B40A4B0A4A1A6002F1100503F118048C
:10154000002103F120005D60C3E90644C3E90222E3
:10155000C3E908001961197530BC7047500C0020B0
:101560000410002000000000000000000000000047
:10157000FFF7DEBF000000000000000000000000D8
:10158000FFF7D6BF000000000000000000000000D0
:10159000024B0022C3E900339A60704728100020F4
:1015A000024B0122C3E900339A60704768100020A3
:1015B000704700BF000000000000000000000000B5
:1015C000024B0022C3E900339A6070476810002084
:1015D000044B00224FF4A4700421C3E901011A60F6
:1015E000DA607047181000200000000000000000C2
:1015F0000B4B0C4AD91D21F00701CB1AC3F5CC6364
:1016000010B4002002F10C04DB084B60516008604C
:10161000C2E9034410609060506110BC704700BF85
:1016200078100020E40F00200000000000000000FF
:1016300008B5FFF77DFE024A024B12601B6008BD31
:101640000C0C0020100C0020000000000000000026
:10165000FFF76EBE00000000000000000000000068
:10166000FFF7F6BF000000000000000000000000CF
:10167000FFF7EEBF000000000000000000000000C7
:10168000FFF7E6BF000000000000000000000000BF
:10169000FFF7DEBF000000000000000000000000B7
:1016A0000649074A074B096000204960C2E9002249
:1016B00090609860C3E90033704700BF040C0020BD
:1016C000300C0020400C0020000000000000000052
:1016D000044A054B126000215260C3E9003399604F
:1016E000704700BF040C0020300C002000000000F8
:1016F000FFF7EEBF00000000000000000000000047
:10170000024B0022C3E900339A607047300C00207E
:10171000044A054B12600021C2E901219960C3E926
:1017200000337047300C0020400C00200000000007
:10173000FFF7E6BF0000000000000000000000000E
:10174000024B0022C3E900339A6070475C1000200E
:10175000FFF7F6BF000000000000000000000000DE
:10176000FFF7EEBF000000000000000000000000D6
:10177000FFF7E6BF000000000000000000000000CE
:10178000024B0122C3E900339A6070475C100020CD
:10179000014B00221A607047B817002000000000BB
:1017A00048B910B4054A064C064B01202070107051
:1017B000196010BC70470020704700BFE816002079
:1017C00088170020E4160020000000000000000040
:1017D000044B01214FF080421960516A536A9942CB
:1017E000FCD070478C1700200000000000000000B3
:1017F000074B01221A60202383F3118862B672B668
:1018000083F3118862B6002383F3118862B67047B0
:101810008C17002000000000000000000000000005
:101820000B4B30B403F114002025002453F8042B93
:101830004AB185F3118892F8211041F0040182F831
:10184000211084F311888342F0D130BC704700BF6F
:10185000A4170020000000000000000000000000AD
:1018600020B370B584B06D462C46114E00E014468E
:10187000A6FB0023DB0803EB8301A0EB410000F192
:1018800030012246C9B202F8011B1846002BEED1E6
:10189000AA4209D9074E01E014F8011D3068036817
:1018A000DB689847A542F7D104B070BD704700BF10
:1018B000CDCCCCCCE01600200000000000000000E1
:1018C00028B9044B186803683021DB681847FFF714
:1018D000C7BF00BFE01600200000000000000000AD
:1018E000202383F31188064A064913688B4202D2EB
:1018F000591C18701160002383F31188704700BFD2
:10190000A0170020A0170020000000000000000029
:101910004320FFF7E5BF00BF00000000000000000B
:101920004220FFF7DDBF00BF000000000000000004
:101930004120FFF7D5BF00BF0000000000000000FD
:101940000078FFF7CDBF00BF0000000000000000DE
:10195000FFF7F6BF000000000000000000000000DC
:1019600070B5017889B10A4D044628680368DB68C0
:10197000984714F8011F0029F7D128680549036822
:1019800002225B68BDE870401847014DF5E700BFD3
:10199000E016002058AE0008000000000000000023
:1019A000017859B138B5064D044628680368DB68EC
:1019B000984714F8011F0029F7D138BD704700BFC0
:1019C000E016002000000000000000000000000001
:1019D000F0B40D4E0D4F3568421E3B4603E013F840
:1019E000014B844207D19D4212F8010FF7D810B97C
:1019F0003760F0BC7047064C064A074B0120207048
:101A000010701960F0BC7047A017002090170020DC
:101A100088170020E8160020E416002000000000CF
:101A2000F8B50F4B0F4F01261E600725002425FA3D
:101A300004F313F0010F06FA04F220460DD057F814
:101A4000243025EA020501349847002DEFD10649DC
:101A50000648BDE8F840FFF7BBBF0134E7E700BF29
:101A60008C1700207CAE0008B4C10008C8C1000873
:101A700070B5084D4C24286803682D21DB68984711
:101A8000013CF8D128680449036802225B68BDE87C
:101A900070401847E016002058AE00080000000013
:101AA000202383F311880F4B5B6813F4006302D18A
:101AB00083F311887047EFF309834FF0807243F886
:101AC000042CA3F1200282F30988074A1168926965
:101AD0008968926891428CBF044A054A43F8082CF1
:101AE000704700BF00ED00E0A00D0020E1020008FB
:101AF000E4020008000000000000000000000000F8
:101B000070B40B4CD4E90063721E4D420A44013993
:101B10000144294002EA05000144994204D88E425A
:101B200002D8216070BC7047002070BC704700BFB5
:101B3000380F00200000000000000000000000003E
:101B400008B52022034682F31188006828B1026894
:101B50001A60002383F3118808BDDA68002AF8D0E0
:101B6000D3E901019047002383F3118808BD00BF2A
:101B70002DE9F0413A4E3B4B3B4C0122326020258F
:101B80000422002085F3118821681960236080F306
:101B900011886168013A0B44F4D10223DFF8C88050
:101BA000324F336004254046FFF7CAFF003018BFAC
:101BB00001203946FFF7F4FD00283CD1013DF2D168
:101BC000032329483360FFF7BBFFB0FA80F04009D8
:101BD0002749FFF7E5FD70BB224B042203F11007F4
:101BE000326020201A4680F31188216843F8041BD4
:101BF000226085F311889F42F4D10523DFF86880C5
:101C00001A4F336004254046FFF79AFF003018BF93
:101C100001203946FFF7C4FD68B9013DF3D1062321
:101C200011483360FFF78CFFB0FA80F0400910498B
:101C3000FFF7B6FD08B1BDE8F081072104230D4A86
:101C4000094831602560C4E90133E260FFF778FF9D
:101C5000B0FA80F040090849BDE8F041FFF7A0BDA7
:101C60008C17002038100020780C00204CB00008A1
:101C700058B000086114000868B0000800000000B7
:101C8000202383F31188044B9B695A6B10435863DC
:101C9000002383F311887047A00D0020000000008E
:101CA000202383F31188024602E08B4207D01A46B4
:101CB00013688342F9D1002383F3118870470B68BE
:101CC0001360002383F31188704700BF00000000F9
:101CD0002DE9F047364CDFF8E890246002218AB005
:101CE000C9F80010202686F31188324823680AAF0D
:101CF000012247F8143D8369069300254FF0FF3316
:101D000007922760CDE9085385F3118886F311887F
:101D10000DF12808226848F8282D8269C4F800804F
:101D2000CDE90121CDE9035385F3118886F31188AC
:101D300020682149001B18BF0120FFF731FD20B1A9
:101D400085F311880AB0BDE8F087824680F31188D8
:101D5000032339462046C9F80030FFF7A1FF86F378
:101D6000118820681449001B18BF0120FFF718FDD7
:101D7000054620B18AF311880AB0BDE8F08780F3E8
:101D80001188042341462046C9F80030FFF788FF38
:101D900086F3118820680949001BB0FA80F04009D9
:101DA000FFF7FEFC0028CBD180F31188CAE700BF03
:101DB0000C0C0020A00D002088C1000894C1000870
:101DC0008C17002000000000000000000000000050
:101DD0000E4B0F4A5B68C168F0B48468566F426866
:101DE0001B1BD0E904459B1BE61845F100079342F5
:101DF000026888BF436001319342C0E90467C0E9CB
:101E0000023138BF0360F0BC704700BF001000E033
:101E1000A00D0020000000000000000000000000F5
:101E2000836841681A4AF0B4D0E90475022643F881
:101E30002C1C0124002143E91B750568C06803F8C8
:101E4000271C03F8286C03F8264C43F8382C5469F7
:101E500043F8400C43F80C0C43F8305CA3F16C00E1
:101E60000C4D43F83C0C43F84C5CA3F1480043E9AB
:101E70000511A3F12005A3F11C0143F8344C2061A6
:101E8000506143E9085143F8181CF0BC704700BF8B
:101E9000A00D0020D102000800000000000000009A
:101EA000202383F3118890F82030072B0ED8DFE829
:101EB00003F0280D0D2408040D08426A93680133CD
:101EC0009360D0E900231A600268536010B40022C6
:101ED0004FF0FF3481680D4B446280F820201B686E
:101EE0009A688A42FBD25A680021C0E90032106029
:101EF000586081F3118810BC7047436A00221A6051
:101F0000E4E7002383F31188704700BFA00D002091
:101F100001460022074B806881F820201B689A68E0
:101F20008242FBD25A680846C1E90032116059600A
:101F3000704700BFA00D002000000000000000005E
:101F40000368984207D01A68026000215060184662
:101F50005962FFF7DDBF704700000000000000007D
:101F60000F4B1A7DB2B970B5D3E900611A698C1BA9
:101F7000B2EBA40F11D09D682C1D9C60A14228607B
:101F800002F10102074898BF9E601A61FFF7D8FF6F
:101F9000002070BD6FF0010070474FF0FF3070BD42
:101FA000500C0020700C0020000000000000000019
:101FB00038B50F4B1A7DA2B9D3E9004519692A1B20
:101FC000B1EBA20F10D0DA68043A944288BF2A1FFE
:101FD000DA600131106007481961FFF7B1FF002096
:101FE00038BD6FF0010038BD4FF0FF3038BD00BF85
:101FF000500C0020700C00200000000000000000C9
:1020000038B50F4B1A7DA2B91969A9B1DA685C68B5
:1020100015680432A242DA6001F1FF31056028BF81
:102020001A68084828BFDA601961FFF789FF0020A5
:1020300038BD6FF0010038BD4FF0FF3038BD00BF34
:10204000500C0020680C0020000000000000000080
:1020500038B5036898420CD004466FF001051A6841
:102060002260184654605D62FFF752FF2368A34266
:10207000F5D138BD000000000000000000000000A5
:10208000074B1A689A4209D0116810B400244B60BB
:1020900019605462104610BCFFF73ABF704700BF8A
:1020A000040C002000000000000000000000000000
:1020B000436B90F8202019430A2A416309D00B2A68
:1020C00000D07047436A8B43FBD100234362FFF784
:1020D0001FBF436A1942F8D1704700BF00000000DB
:1020E00070B50468A0420FD006460D46E3682B4346
:1020F000E36015B123691D4203D0D4E90101FFF764
:10210000D7FF2468A642F1D170BD00BF00000000D7
:10211000124B30B404689D69C368AB63844218D025
:102120000146E86B4BB11A68934203D09268904223
:1021300038BF1046DB68002BF5D1A26B2368A8607E
:102140000B6020465960C1E90242A16330BCFFF731
:10215000DFBE0023A36030BC704700BFA00D00208D
:1021600083680133002B836000DD704703681A68C1
:1021700002600021506018465962FFF7C9BE00BFD7
:1021800003682BB10022026018465962FFF7C0BEF7
:10219000704700BF000000000000000000000000C9
:1021A0001B4BDA69824210B40FD0D0E900210A60DB
:1021B00002681C3300249A425160C46003D08168D5
:1021C00093680B44936010BC70471846116840F840
:1021D0001C1F002481424860D46014D094688A682F
:1021E0009B6A14444FF080428C60526AD21A944227
:1021F000E9D9A11A012998BF941C4FF080422344C9
:10220000536310BC70474FF08043DC60DBE700BFD6
:10221000A00D0020000000000000000000000000F1
:10222000F0B41F4D2E46022956F81C4FC2604FF0E5
:10223000804738BF0221B44203617A6A1FD0AE6A78
:10224000A368921B891816D28B4226D8994204D9CA
:102250002468C91AA3688B42FAD36368C0E90043B3
:10226000186060608160A3684FF0FF32591AA16066
:102270006A62F0BC70472468C91AA368E6E7AA62DC
:102280008E1802230022C5E90700C0E900448160DE
:102290007E633A61FB60F0BC70470E447E63D5E715
:1022A000A00D002000000000000000000000000061
:1022B000EFF30583202383F31188704700000000AB
:1022C000C20710B412D5294BD3E90014994241D06A
:1022D00000220968994202F10102FAD18C4236D0FB
:1022E00064689C4202F1FF32FAD182BB830713D5A6
:1022F0001E4CD4E907211C34A2422FD000231268BF
:10230000A24203F10103FAD1914220D04968A142CF
:1023100003F1FF33FAD1D3B910F0040015D0134BF9
:10232000D3E904219A424FF000001BD012699A426F
:1023300000F10100FAD1914209D04969994200F1B6
:10234000FF30FAD1003018BF012010BC70470120C7
:1023500010BC70479C42C9D00022C1E7A142DBD02B
:102360000023D3E79142E8D1EFE700BFA00D0020A2
:1023700070B5244D01202860202484F31188FFF7D4
:102380009FFF002383F3118880F00100C0B21E4933
:10239000FFF706FA00B170BD06460220286084F3FC
:1023A0001188FFF78DFF86F3118880F00100C0B21D
:1023B0001649FFF7F5F906460028ECD103232B60F8
:1023C00084F311880420FFF77BFF86F3118880F0E7
:1023D0000100C0B20E49FFF7E3F906460028DAD142
:1023E00004232B6084F311880820FFF769FF86F32C
:1023F000118880F00100C0B20649BDE87040FFF7C7
:10240000CFB900BF8C17002020BE000838BE0008DE
:102410005CBE000878BE000800000000000000005C
:10242000FEE700BF00000000000000000000000008
:102430002DE9F0414FF0030C164600254FF0010E38
:102440000F270EE0D0F8008003EA08033343072D7E
:10245000036033D8036A1C40046249082CD0B600DC
:102460000135CB07F9D543680EFA05F423EA0403D6
:1024700043606B0084680CFA03F3DB431C40846008
:10248000D0F80C8005F00704A40003EA080807FA56
:1024900004F4022AC0F80C806FEA0404D2D1072D9C
:1024A00010D8D0F8208004EA0804046204682340AD
:1024B000334349080360D2D1BDE8F081436A1C4030
:1024C0004462CAE7D0F8248004EA08044462EDE7D5
:1024D00030B4C46A2268136823F01F0313601368C2
:1024E00013F00103FBD1657A826A60683D21A9403F
:1024F000016053609368012123F08043936030BCF6
:102500009160704700000000000000000000000023
:1025100011F00C0F10B5044611D1036973B18A068E
:102520002CD51A78002A31D05B683BB104220270A6
:1025300098472378042B01D10323237010BDFFF7A4
:10254000C7FF23699B68002B3DD005222270002124
:10255000204698472378052B04BF022323700023CD
:102560002361202383F311884FF0FF3104F114001D
:10257000FFF706FE002383F3118810BDCA06DDD5E0
:102580005B68002BDAD0BDE810401847FFF7A0FFCA
:1025900023695B6893B10422227020469847237810
:1025A000042B0BD0202383F31188002104F11400A5
:1025B000FFF7E6FD002383F3118810BD02220023FC
:1025C00022702361EEE7022223612270C9E700BF77
:1025D0000020704700000000000000000000000024
:1025E00070B5334D334C344801232B60FFF7D8F9D5
:1025F0007820FFF735F92046FFF7B2F902232F487C
:102600002B60FFF7CDF94420FFF72AF92046FFF7AA
:10261000A7F903232A482B60FFF7C2F91420FFF71C
:102620001FF92046FFF79CF9042626482E60FFF785
:10263000B7F90C20FFF714F92046FFF791F90523AD
:1026400021482B60FFF7ACF91020FFF709F920466D
:10265000FFF786F906231D482B60FFF7A1F9082034
:10266000FFF7FEF82046FFF77BF9072318482B6099
:10267000FFF796F93046FFF7F3F82046FFF770F9B9
:10268000082314482B60FFF78BF91420FFF7E8F8B4
:102690002046FFF765F909230F482B60FFF780F903
:1026A0002820FFF7DDF82046BDE87040FFF758B955
:1026B0008C170020CCC40008BCC40008D4C4000897
:1026C000E4C40008F4C4000804C5000814C50008E8
:1026D00024C5000834C5000844C5000800000000F7
:1026E00038B5C94BC94CCA4801251D60FFF758F9D8
:1026F0002020FFF7B5F82046FFF732F9C548FFF76D
:102700004FF942F21070FFF7ABF82046FFF728F9B7
:10271000C148FFF745F92020FFF7A2F82046FFF750
:102720001FF9BE48FFF73CF92020FFF799F8204633
:10273000FFF716F9BA48FFF733F90220FFF790F8D0
:102740002046FFF70DF9B748FFF72AF90020FFF7F9
:10275000B7F82046FFF704F9B348FFF721F9002046
:10276000FFF7AEF82046FFF7FBF8B048FFF718F97F
:102770000020FFF7A5F82046FFF7F2F8AC48FFF776
:102780000FF92846FFF76CF82046FFF7E9F8A9484B
:10279000FFF706F92846FFF763F82046FFF7E0F851
:1027A000A548FFF7FDF82846FFF75AF82046FFF73F
:1027B000D7F8A248FFF7F4F82846FFF751F820466B
:1027C000FFF7CEF89E48FFF7EBF82846FFF748F8EA
:1027D0002046FFF7C5F89B48FFF7E2F80020FFF717
:1027E0006FF82046FFF7BCF89748FFF7D9F828465E
:1027F000FFF736F82046FFF7B3F89448FFF7D0F814
:102800000020FFF75DF82046FFF7AAF89048FFF791
:10281000C7F82846FFF724F82046FFF7A1F88D48AF
:10282000FFF7BEF82846FFF71BF82046FFF798F899
:102830008948FFF7B5F82846FFF712F82046FFF75A
:102840008FF88648FFF7ACF82846FFF709F82046CE
:10285000FFF786F88248FFF7A3F82846FFF700F84D
:102860002046FFF77DF87F48FFF79AF80020FFF732
:1028700027F82046FFF774F87B48FFF791F82846C1
:10288000FEF7EEFF2046FFF76BF87848FFF788F871
:102890002846FEF7E5FF2046FFF762F87448FFF789
:1028A0007FF82846FEF7DCFF2046FFF759F871480D
:1028B000FFF776F82846FEF7D3FF2046FFF750F8DB
:1028C0006D48FFF76DF82846FEF7CAFF2046FFF770
:1028D00047F86A48FFF764F82846FEF7C1FF20462C
:1028E000FFF73EF86648FFF75BF82846FEF7B8FFAB
:1028F0002046FFF735F86348FFF752F80820FEF747
:10290000AFFF2046FFF72CF85F48FFF749F828464D
:10291000FEF7A6FF2046FFF723F85C48FFF740F8D4
:102920002846FEF79DFF2046FFF71AF85848FFF7A4
:1029300037F82846FEF794FF2046FFF711F8554870
:10294000FFF72EF82846FEF78BFF2046FFF708F822
:102950005148FFF725F82846FEF782FF2046FEF78C
:10296000FFFF4E48FFF71CF80020FEF7A9FF2046A6
:10297000FEF7F6FF4A48FFF713F80020FEF7A0FF26
:102980002046FEF7EDFF4748FFF70AF80020FEF764
:1029900097FF2046FEF7E4FF4348FFF701F80020C9
:1029A000FEF78EFF2046FEF7DBFF4048FEF7F8FFFC
:1029B000FF20FEF755FF2046FEF7D2FF3C48FEF70A
:1029C000EFFF8020FEF74CFF2046FEF7C9FF394895
:1029D000FEF7E6FF0020FEF773FF2046FEF7C0FF7C
:1029E0003548FEF7DDFF0020FEF76AFF2046FEF7C0
:1029F000B7FF3248FEF7D4FF0020FEF761FF204604
:102A0000BDE83840FEF7ACBF8C1700204CAD000885
:102A100080B60008ACB60008D8B6000804B70008B5
:102A200030B700085CB7000888B70008B4B70008E2
:102A3000E0B700080CB8000838B8000864B800080F
:102A400090B80008BCB80008E8B8000814B900083D
:102A500040B900086CB9000898B90008C4B900086A
:102A6000F0B900081CBA000848BA000874BA000897
:102A7000A0BA0008CCBA0008F8BA000824BB0008C5
:102A800050BB00087CBB0008A8BB0008D4BB0008F2
:102A900000BC00082CBC000858BC000884BC00081E
:102AA000B0BC0008DCBC000808BD000834BD00084C
:102AB00060BD00088CBD0008B8BD0008E4BD00087A
:102AC00038B5194B19481A4C01251D60FEF748FF0F
:102AD0001848FEF765FF2846FEF7C2FE2046FEF7BF
:102AE0003FFF1548FEF75CFF1448FEF739FF144816
:102AF000FEF756FF0620FEF7B3FE2046FEF730FF36
:102B00001048FEF74DFF0020FEF7DAFE2046FEF7E4
:102B100027FF0D48FEF744FF2846FEF7A1FE20469A
:102B2000BDE83840FEF71CBF8C17002058B50008E0
:102B30004CAD00088CB50008B8B50008E4B5000835
:102B4000ECB5000818B6000844B600080000000004
:102B50001C4B1D4810B501221A60FEF721FF1B48CF
:102B60001B4CFEF7FDFE1B48FEF71AFF1A48FEF746
:102B7000F7FE1A48FEF714FF1948FEF7F1FE194850
:102B8000FEF70EFF1848FEF7EBFE1848FEF708FFA9
:102B90000420FEF765FE2046FEF7E2FE1448FEF72D
:102BA000FFFE0820FEF75CFE2046FEF7D9FE114826
:102BB000FEF7F6FE0820FEF753FE2046BDE8104063
:102BC000FEF7CEBE8C1700209CB30008C8B30008E7
:102BD0004CAD0008D4B3000800B400080CB40008E1
:102BE00038B4000880B40008ACB40008C4B40008CD
:102BF000F0B400081CB50008000000000000000050
:102C000070B50E46F0B1044630601149204607F019
:102C1000D9FE215C222904EB00050DD00C49284681
:102C200007F0AEFE306018B1421C00233260037022
:102C30002B7853B1284670BD0135284607F0AEFD0C
:102C40003060F0E70C68002CDFD10025284670BD0D
:102C5000D0B20008000000000000000000000000EA
:102C60000EB42DE9F04F90B019AB064653F8049B13
:102C700009939A464FF0000B99F8001009F10102F0
:102C800071B1252912D033689146DB6830469847E8
:102C900099F800100BF1010B09F101020029F0D1A4
:102CA000584610B0BDE8F04F03B0704799F80110D6
:102CB0002D2903BF99F8021009F102020123002314
:102CC000302908BF5178019306BF013230252025F5
:102CD0000132002407E09AF800300AF1040A12F8E1
:102CE000011B03EB4004A1F13003DBB2092B944636
:102CF00004EB8400F3D92A29EDD02E294FF00007E8
:102D00004AD001F0DF034C2B0CF1010950D0A1F1A6
:102D10004103A1F14402DBB2342A00F2C581DFE8AD
:102D200012F01302C301C301C301C3011302C301A3
:102D3000C301C301C301C301BF01C301C301C30177
:102D4000C301C3018C01C301C3011C02C301C30140
:102D5000C301C301C301C301C301C301C301C30153
:102D600045011302C301AB00C301C3011302C30138
:102D7000C301C301C301C301BF01C301C301C30137
:102D80008900C3018C01C301C3011C029AF8003001
:102D90000AF1040A03EB42071CF8011BA1F13003FE
:102DA000DBB2092B07EB8702F4D92A29EED0A8E77A
:102DB0009CF80030DBB3A3F14402342A00F27681A0
:102DC000DFE812F09501740174017401740195013A
:102DD000740174017401740174016F017401740150
:102DE0007401740174013C01740174019201740155
:102DF000740174017401740174017401740174012B
:102E00007401F500950174015B0074017401950172
:102E1000740174017401740174016F01740174010F
:102E20007401390074013C017401740192010B4674
:102E3000E146C0E7E146DAF800800AF1040AB8F199
:102E4000000F00F0998198F800304146002F40F0C3
:102E5000A281002B00F0BD8147F6FE77434601E0DA
:102E6000013F03D413F8012F002AF9D15B1AE41AA9
:102E7000013B00932025A6E0E1460AF1070A2AF06B
:102E8000070ADAE90001FDF725FE00210AF1080A28
:102E90008046FDF7CBFF002840F063810AAB069324
:102EA00000934046FDF784FB013F082FCDE9020166
:102EB00000F26981BE4B53F827703846FDF756FB88
:102EC000BC4BCDE90401A3FB0737FB0807931F4662
:102ED0004046FDF7D3FF009B03F10B0E80460146F1
:102EE0007246B44BA3FB0103DB0803EB830C1846CB
:102EF000A1EB4C033033DBB202F8013D0146002860
:102F0000EFD10099AEEB020E0846704401E012F8D2
:102F1000013F01F8013B8142F9D1009A0EF1FF3ED9
:102F20002E23724440460B709046FDF72FFB02465D
:102F30000B46DDE90201FDF7DBF9DDE90423FDF7CE
:102F40008FFBFDF79FFD079B08F10D0C002B08BFC1
:102F5000074608F1020362460093964BA3FB001359
:102F6000DB0803EB830E1946A0EB4E039148303388
:102F7000A0FB0707DBB2FF0802F8013D0846ECD1D1
:102F8000ACEB0207B91C8844009901E012F8013F3C
:102F900001F8013B4145F9D1009B3B441F46069B8C
:102FA000FF1A7A1EE41B009298460CE0E1460DF1F0
:102FB0004008DAF8003008F8183D0023013C0AF117
:102FC000040A00932025002C64DB019B002B76D1A2
:102FD0006342002C72D098F8001032682D29D26814
:102FE00071D01F4601E03368DA68294630469047C1
:102FF0000137F8D1009A002A3B46A344FFF63CAEC5
:103000001C46009F336818F8011BDB68013F3046FF
:1030100098477B1CF6D1009B0BF1010B5B449B4650
:10302000002C3FF429AE274633682946DB6830463A
:103030009847013FF8D1A3441EE6E1464FF00A0E3F
:103040000DF1330739465AF8042B00E00146B2FB74
:10305000FEFC0EFB1C2202F13003392BC8BF02F12B
:103060003703DBB2624601F8013C481E002AEDD16D
:103070003F1A0AAA0692384401E011F8013B02F80F
:10308000013B8142F9D1E41B7B1E002C0093DDF84B
:1030900018809ADA009B002BFFF6EEAD0024B0E713
:1030A000E1464FF0080ECBE7E1460B460DF1400834
:1030B000013C08F8183D0023009384E71C46009B60
:1030C000002B9EDAACE7302D8BD130460193904730
:1030D000009B3268013B0093019BD2680BF1010B0E
:1030E00008F101081F4680E74FF0100EA8E70AF12B
:1030F0000401DAF800208A46002A61DB0AAB069355
:10310000184600F10B0739462A4BA3FB02C3DB0824
:1031100003EB830E9C46A2EB4E033033DBB26246D8
:1031200001F8013D002AEFD17A1A024401E011F8BA
:10313000013F00F8013B8242F9D1069BD21AA41A42
:10314000013A009298463EE75146192B51F8042B5C
:10315000E14688BF8A46CFD8CBE7E1464FF0100E54
:103160006EE72D238DF828300DF1290300930AAB6B
:1031700008F10048069394E60F498846002F3FF473
:103180006BAE013F6AE608A3D3E900230B4F079714
:10319000CDE904239CE6002BF3D14FF0FF330093DD
:1031A000202510E7AFF300800000000065CDCD4181
:1031B000E8B20008CDCCCCCC44AB000800E1F5056A
:1031C0002D238DF828300AAB52420DF129000693C9
:1031D00097E74FF0FF3300932025F6E6000000004C
:1031E000424B1B78002B53D12DE9F0411668D2F8E1
:1031F000048007460D463E4831461446FDF704FF5D
:1032000098B9032D11DC41463A48A468FDF7FCFE4D
:1032100000284CD121463848FDF7F6FE374B0422F2
:10322000002857D01A83BDE8F08131463448FDF7B5
:10323000EBFE80B941463048FDF7E6FE58BB314B06
:103240001868FDF7B5F902460B4638462E49BDE829
:10325000F041FFF705BD31462C48FDF7D5FE00BB18
:1032600041462448FDF7D0FE0028E8D041462848D2
:10327000FDF7CAFE0028E2D041462648FDF7C4FE0D
:103280000028DCD038462449BDE8F041FFF7E8BC0F
:103290002249FFF7E5BC38462149BDE8F041FFF778
:1032A000DFBC38461F49BDE8F041FFF7D9BC4146B5
:1032B0001748FDF7A9FE78B141461648FDF7A4FE70
:1032C0000028DFD121460C48FDF79EFE0B4B022261
:1032D0000028A7D15A83A6E721460748FDF794FEA8
:1032E000064B012200289DD1F4E700BFE00F00202B
:1032F00020AD000824AD00082CAD000800080240F5
:1033000050AD00080010002054AD00087CAD00084E
:1033100030AD000834AD00083CAD000884AD0008B5
:1033200068AD000880AD000800000000000000004B
:10333000002918DC70B504460C4E0D4D02E03368D0
:103340005B689847236800219B69204698470130B5
:103350004FF4806229460548F1D020460549BDE872
:103360007040FFF77DBC0449FFF77ABC140D0020C4
:10337000000800203CAE00084CAE00080000000031
:10338000002903DD074A0849FFF76ABC202383F3BD
:1033900011884FF080420023526A83F31188034959
:1033A000FFF75EBC04AD00080CAD000818AD0008C6
:1033B000012903D0034A0449FFF752BC12680349AC
:1033C000FFF74EBC4CAB00080CAD00085CAB00082E
:1033D000002903DD194A1A49FFF742BC10B5194A02
:1033E000194982B00446FFF73BFC184A18492046A9
:1033F000FFF736FC174A18492046FFF731FC174AF9
:1034000017492046FFF72CFC164A17492046FFF7BC
:1034100027FC164A16492046FFF722FC154A164992
:103420002046FFF71DFC154B00932046144B154A10
:103430001549FFF715FC02B010BD00BF64AB0008D2
:103440000CAD0008E4B500086CAB000838B4000807
:1034500080AB0008C8B3000894AB000800B40008B3
:10346000A8AB0008ACB40008BCAB0008D0AB0008A7
:10347000FCAB000810AC00083CAC000878AC0008BD
:1034800050AC000854AC000860AC0008000000001C
:1034900070B50C68A14212D00D46064602E02468C1
:1034A000A5420CD008223146A01807F0EBF90028FD
:1034B000F5D12CB1636801336360204670BD0024F0
:1034C000204670BD00000000000000000000000069
:1034D000F8B50C68A1420D460646174603D10DE02B
:1034E0002468A5420AD008223146A01807F0CAF97C
:1034F0000028F5D114B104462046F8BD3846FEF741
:103500001FFB044648B108221044314607F006FA72
:103510002B680122C4E900322C602046F8BD00BFB0
:1035200038B5202383F31188124A106894698368A0
:10353000A1688B4203D2002383F3118838BD03684E
:1035400013605A6001259061002280F8205084F8B1
:10355000202000E01B689A689142FBD95A682146F6
:10356000C4E9003214605C60FCF7AAFE002383F318
:10357000118838BDA00D00200000000000000000F0
:1035800038B5094D0446FFF7CBFFFFF7C9FFFFF73A
:10359000C7FFFFF7C5FF2368AA690433236092F8C9
:1035A00021305B07EFD538BDA00D002000000000E2
:1035B000164B70B49E6985680446B06861628542A6
:1035C0004FF000020CD884F820201B689A689542BE
:1035D000FBD95A68C4E9003214605C6070BC704763
:1035E00086F820201A46126891688842FBD95168F3
:1035F0007160012032600E60566084F82000314610
:1036000020469C6170BCFCF75BBE00BFA00D002093
:1036100008B5202383F31188064B1868984205D01B
:1036200002681A6053600021FFF7C2FF002383F392
:10363000118808BD040C00200000000000000000FC
:10364000F0B5144D87B0074628460E461446FEF7DF
:1036500077FAE0B16B68104A009703440293019037
:10366000039605940492202383F311886846FEF79D
:10367000D7FB022380F82130056400210446FFF7C0
:1036800097FF002383F31188204607B0F0BD04465E
:10369000FAE700BF181000205119000800000000D0
:1036A00008B5202383F3118883680133002B8360DE
:1036B00003DD002383F3118808BD03460068026818
:1036C0001A6000215360FFF773FF002383F3118812
:1036D00008BD00BF00000000000000000000000066
:1036E000F8B5069D202484F3118848394418164EF5
:1036F0002661E061A4F12400716944F8243C44F897
:10370000205CE060022501231048A260E26325846A
:1037100084F8223004F1280204F12C0300250C4F18
:1037200044F8047CC4E90510C4E90D5520460C6139
:10373000C4E90A23236329467461FFF739FF85F33F
:1037400011882046F8BD00BFA00D002024AB000862
:10375000D10200080000000000000000000000008E
:10376000F0B583B01468164E164B1748002200922D
:103770004FF4E471012581223570FFF7B1FF214636
:1037800007461248FDF740FC20B121461048FDF7DE
:103790003BFC08B103B0F0BD202383F3118897F8F8
:1037A000213043F0040387F8213080F31188094B5E
:1037B00030700221042219831D831A8303B0F0BDE7
:1037C000E00F0020614C0008B01900202CAD00086B
:1037D00000AD0008000802400000000000000000EA
:1037E000084B99691A6810B481F8200010681860B5
:1037F0000124436082F82040104610BC9A61FCF717
:103800005FBD00BFA00D0020000000000000000010
:103810000B4A10B52023946983F31188636B33B985
:103820004FF0FF3363620A20FFF7DAFF636B584201
:10383000184023EA00036363002383F3118810BD5B
:10384000A00D0020000000000000000000000000AB
:10385000094A10B52023946983F31188606B30B94D
:103860004FF0FF330A206362FFF7BAFF606B00235B
:10387000636383F3118810BDA00D002000000000D9
:103880000C4A10B52023946983F31188636B03F00D
:103890000502052A05D0052363620B20FFF7A0FF70
:1038A000636B23F005036363002383F31188052012
:1038B00010BD00BFA00D00200000000000000000AF
:1038C00030B54B1C87B012D00C4C0D4AA36905468D
:1038D00001A8FEF7A5FC2846FFF782FF049B13B161
:1038E00001A8FEF75DFCA369586A07B030BD034C20
:1038F000FFF776FFA369586A07B030BDA00D00201E
:10390000A11E0008000000000000000000000000F0
:10391000202383F31188104B99684A1E002A9A606D
:1039200004DB0020002383F31188704780B10B4A29
:1039300010B592695C685362C2E9003401462260A6
:1039400005205A60FFF7BCFF002383F3118810BDE8
:1039500099604FF0FF30E5E75C100020A00D0020DB
:1039600010B5202383F31188154CA268531E002B39
:10397000A36007DBE068B0B10368E360002383F372
:10398000118810BDC8B10F4B62689B690146C3E93D
:1039900000425C62052013606360FFF791FF00281E
:1039A000E8D00020EAE7A369002BFAD0D4E90401AB
:1039B0009847002383F3118810BDA260DEE700BFA3
:1039C000140C0020A00D00200000000000000000EA
:1039D00008B5074B01224FF47A701A60FFF7C0FF59
:1039E000B0FA80F040090349BDE80840FDF7D8BEB1
:1039F0008C17002058B000080000000000000000F4
:103A000070B5574D574C01202860A269202383F3DD
:103A10001188536B33B983F311885349FDF7C0FE06
:103A200080B170BD5842184023EA0003536300235D
:103A300083F31188B0FA80F040094B49FDF7B0FEDE
:103A40000028EED1A369202282F311885A6B002A44
:103A500072D0586380F311884349FDF7A1FE002816
:103A6000DFD1A369202282F311885A6B013267D01B
:103A700080F3118801203C49FDF792FE0028D0D147
:103A800002232B60A669202383F31188756B55B937
:103A90004FF0FF3373624FF4FA710A20FFF710FF03
:103AA000002851DB756B6842284025EA00057563E4
:103AB000002383F31188B0FA80F040092A49FDF70A
:103AC0006FFE0028ADD1A669202383F31188756BA2
:103AD00055B94FF0FF3373624FF4FA710A20FFF7C4
:103AE000EFFE002834DB756B0023736383F31188CA
:103AF000B5FA85F040091C49FDF752FE054600283D
:103B00008FD1A469202383F31188636B013309D01B
:103B10004FF0FF3363624FF4FA710B20FFF7D0FED2
:103B2000002819DB0023636383F3118828460E49BC
:103B3000BDE87040FDF734BE82F3118801208BE7A9
:103B4000586380F3118896E785F311880120B5E763
:103B500085F311880120CEE785F311880125E5E77B
:103B60008C170020A00D002060C20008000000009B
:103B700061B1084B10B4024644689B690420C3E954
:103B800000242360536010BCFFF79ABE4FF0FF3053
:103B9000704700BFA00D00200000000000000000E2
:103BA0002DE9F04F85B0CDE90232D0F81C904FF0EE
:103BB000200A8AF311883AB304460F4616464FF09E
:103BC000000BA2689642D4E904208CBFA568354654
:103BD000A2EB0008A84540D82BD32A463946FDF76A
:103BE00073F9E2686261A268521BA2609DB1B9F1EB
:103BF000000F01D02046C8478BF31188761B2F4455
:103C00008AF31188002EDCD10398002383F31188F6
:103C100005B0BDE8F08F02992046FFF7A9FF002804
:103C2000CFD0039B981B002383F3118805B0BDE818
:103C3000F08FA5EB0803424639460193FDF744F99E
:103C400007EB0801DDF80480E0684246FDF73CF927
:103C5000E2684346D3186361C5E72A463946FDF753
:103C600033F962692A446261BDE700BF00000000C9
:103C70003030FFF795BF00BF0000000000000000DB
:103C800030304FF0FF33FFF78BBF00BF0000000064
:103C9000F8B504460F461646202383F3118803E047
:103CA000FFF766FF002818DBA56831462046002D87
:103CB000F6D06269A368511C013B6161A360177073
:103CC000D4E904329A4224BFE3686361E36903B133
:103CD0009847002080F31188F8BD85F31188F8BD5E
:103CE0003030FFF7D5BF00BF00000000000000002B
:103CF00030304FF0FF32FFF7CBBF00BF00000000B5
:103D00002DE9F04F85B0CDE90232D0F81C904FF08C
:103D1000200A8AF311883AB304460F4616464FF03C
:103D2000000BA268A169964222698CBFA56835463E
:103D3000A2EB0108A84540D82BD32A463846FDF708
:103D4000C3F8E268A261A268521BA2609DB1B9F1FA
:103D5000000F01D02046C8478BF31188761B2F44F3
:103D60008AF31188002EDCD10398002383F3118895
:103D700005B0BDE8F08F02992046FFF7F9FE002854
:103D8000CFD0039B981B002383F3118805B0BDE8B7
:103D9000F08FA5EB0803424638460193FDF794F8EF
:103DA00007EB0800DDF80480E1684246FDF78CF877
:103DB000E2684346D318A361C5E72A463846FDF7B3
:103DC00083F8A2692A44A261BDE700BF0000000099
:103DD0000C30FFF795BF00BF00000000000000009E
:103DE0000C304FF0FF33FFF78BBF00BF0000000027
:103DF00070B5202304460E4683F3118803E0FFF7D5
:103E0000B7FE00281ADBA56831462046002DF6D003
:103E1000A169A36820694A1C013B8242A360A26198
:103E200028BFE3680D7828BFA361E3690BB1204682
:103E30009847002383F31188284670BD85F31188C5
:103E400070BD00BF00000000000000000000000086
:103E50000C30FFF7CDBF00BF0000000000000000E5
:103E60000C304FF0FF31FFF7C3BF00BF0000000070
:103E700008B50146202383F311880820FFF720FDB1
:103E8000002383F3118808BD00000000000000003B
:103E900008B5074B074A9B69074C9A61636983F031
:103EA0002003636141F28830FFF7E2FFF6E700BFCD
:103EB000A00D0020F8A9000800000240000000004A
:103EC00070B52B4E01234FF0804533606C6A64203F
:103ED000FFF7CEFF04F1670104F16400FDF738FA43
:103EE00000B170BD022333606C6A4FF47A70FFF743
:103EF000BFFF04F2EB3104F57A70FDF729FA0028D0
:103F0000EFD1032333606C6A4FF47A70FFF7B0FF90
:103F100004F2EB3104F57A70FDF71AFA0028E0D1CB
:103F2000042333606C6A42F21070FFF7A1FF04F5BE
:103F30001C51084610301331FDF70AFA0028D0D181
:103F4000052333606E6A202306F1640483F311882D
:103F5000696A611A02D00820FFF7B2FC002383F3DC
:103F6000118806F167012046BDE87040FDF7F0B901
:103F70008C1700200000000000000000000000007E
:103F800008B50120FFF774FF202383F311884FF059
:103F900080420023506A83F3118808BD00000000AE
:103FA0002DE9F84FDFF890B01E4F1F4E1F4D012333
:103FB000CBF80030FFF7E4FF0024A24681464FF023
:103FC000200888F3118800233A4630460121FEF785
:103FD00027F93A46002342F210712846FEF720F9ED
:103FE0003046FEF7DDF82846FEF7DAF88AF3118846
:103FF0004FF0804342F20F725B6AA3EB09039342D6
:1040000004F10104DDD902230948CBF80030FDF7A3
:10401000C7FC6000FDF754FC0648BDE8F84FFDF70B
:104020009FBC00BFB1150008BC170020D0170020AE
:1040300050C4000860C400088C1700200000000075
:104040002DE9F04F9D4C8946206083B09C48FDF7D8
:1040500087FCD9F80030002B00F08681994D2A2189
:1040600020680368DB68984715F8011F0029F7D11D
:10407000D9F80000FDF774FC9348944DFDF770FCEF
:104080002A2120680368DB68984715F8011F00297A
:10409000F7D18F488F4DFDF763FC2A212068036814
:1040A000DB68984715F8011F0029F7D18A488B4D26
:1040B000FDF756FC2A2120680368DB68984715F84D
:1040C000011F0029F7D186480191FDF749FC7C4882
:1040D000844FFDF745FC844B01991970D9F80430E1
:1040E0008B4653F82B304FEA8B06002B00F01A81D9
:1040F0004C25206803683D21DB689847013DF8D1D5
:1041000020687A4903687A4D5B68022298473D210E
:1041100020680368DB68984715F8011F0029F7D16C
:104120000BF1010B5846734DFDF7CAFB20212068A7
:104130000368DB68984715F8011F0029F7D1D9F803
:1041400004309B591D68297839B120680368DB6801
:10415000984715F8011F0029F7D16748FDF700FCC3
:104160000025D9F804309A59526852F825204FEAB0
:104170008508002AB5D0DFF898A1FDF779FC2D213C
:1041800020680368DB6898471AF8011F0029F7D1F7
:104190005846FDF795FB2068DFF858A103682E21EB
:1041A000DB68013598472846FDF78AFB2021206807
:1041B0000368DB6898471AF8011F0029F7D1D9F87E
:1041C00004309B595B6853F80830D3F800A09AF884
:1041D000001039B120680368DB6898471AF8011F9E
:1041E0000029F7D14448DFF82CA1FDF7B9FB4FF4C3
:1041F000FA60FFF73DFED9F80430404A9B593A6017
:104200005B6853F80880D8F8043000228AF8002050
:1042100003B19847D8F80C309847D8F8083003B164
:1042200098479AF80030002B44D0DFF8EC802D211D
:1042300020680368DB68984718F8011F0029F7D148
:104240002F4BDFF8D8801868FDF73AFB2021206853
:104250000368DB68984718F8011F0029F7D13B680D
:10426000264A934209D99046206818F8011B036832
:10427000DB6898473B689845F6D3DFF8A4805D215A
:1042800020680368DB68984718F8011F0029F7D1F8
:104290001C4BD3F8008098F8001039B120680368EF
:1042A000DB68984718F8011F0029F7D11648FDF779
:1042B00057FB56E71548FDF753FB52E7E016002081
:1042C0004CAD00087CD1000828D2000884D1000839
:1042D0002CD2000898D10008D0AB0008ACD100085F
:1042E00010AC0008A0170020E816002058AE000807
:1042F000C0D10008D4D1000844D200089017002093
:104300008C170020E416002048D200084CD2000888
:10431000D8D1000888170020E8D1000800D2000892
:1043200004D20008FDF7A4FB114D1248FDF718FB5D
:10433000462120680368DB68984715F8011F0029AB
:10434000F7D10D4B1B783BB90C48FDF709FB0A4B25
:10435000187803B0BDE8F08F0948FDF701FB064B64
:10436000187803B0BDE8F08F0648FDF7F9FA83E648
:1043700008D200084CAD0008E816002058D200080A
:1043800060D2000818D20008000000000000000001
:104390000149FFF755BE00BF84C6000800000000B9
:1043A0000149FFF74DBE00BFB0B200080000000099
:1043B000074A10B52023946983F311880320FFF77F
:1043C0000FFA636A002BF9D0002383F3118810BD24
:1043D000A00D002000000000000000000000000010
:1043E00010B5202383F311880C4CA269134653F8AF
:1043F0002C0F984209D00168D1620D224B60002336
:1044000080F8202083F3118810BD0E20FFF7E8F913
:10441000A269D06A02F12C03EDE700BFA00D0020D5
:1044200070B520260025FFF7DBFF446A86F311886C
:104430002146FFF7BDF885F31188002CF3D170BD3C
:104440000E4B10B520229C6982F311886162026BC9
:10445000626000F12C012160146090F82020046358
:104460000E2A07D00C20FFF7BBF9606A002383F304
:10447000118810BDFDF74CFDF4E700BFA00D002032
:104480002DE9F0410546FFF77BFD002480464FF003
:10449000804742F20F7601212846FFF7D1FF7B6A61
:1044A000A3EB0803B34204F10104F4D92846002128
:1044B000FFF7C6FF2046BDE8F08100BF0000000006
:1044C00010B541210446FFF7BBFF20464221FFF70C
:1044D000B7FF20464321FFF7B3FF20464421BDE844
:1044E0001040FFF7ADBF00BF00000000000000005B
:1044F000F8B5374A83689569002B40D0A9689A6857
:104500009142044607D993F820209960062A3BD0AF
:10451000072A15D042B32646234603E09968AA68C5
:1045200091422AD31B689C42F8D173680620C5E9E2
:1045300000631D6075606C62BDE8F840FFF750B91C
:10454000D3E9000210605E6A18684260324602E0F9
:104550009068884232D312689642F9D17268C3E9F2
:10456000006213607360D6E7D3E900121160196826
:1045700018464A60FDF7CCFCCDE71E46D5E7AB6B8D
:10458000C0E90253A863F8BDD3E9000210605E6A77
:10459000186837464260324602E09068884214D379
:1045A00012689642F9D17A68A968C3E9007213606B
:1045B0007B60B3689A688A42A5D3ACE716467268F6
:1045C000C3E9006213607360A5E71746EBE700BF1D
:1045D000A00D00200000000000000000000000000E
:1045E00008B5202383F31188FFF782FF002383F3AC
:1045F000118808BD0000000000000000000000005D
:10460000202383F311888368013B002B836004DB44
:104610000020002383F31188704710B5084CA2696D
:10462000506241680346C2E900010A6005205A60F1
:10463000FFF7D6F8A369586A002383F3118810BDE9
:10464000A00D00200000000000000000000000009D
:104650002DE9F843DFF880901C4C0123C9F80030A5
:10466000FFF78EFC002580464FF0804742F20F7620
:104670002046FFF7C5FF2046FFF712F82046FFF758
:10468000BFFF2046FFF70CF82046FFF7B9FF204692
:10469000FFF706F82046FFF7B3FF2046FFF700F8C4
:1046A0007B6AA3EB0803B34205F10105E0D90223BD
:1046B0000748C9F80030FDF773F9A800FDF700F9C5
:1046C0000448BDE8F843FDF74BB900BF681000206F
:1046D00050C400087CC400088C17002000000000B3
:1046E00038B5084CA36993F821305A0708D4064D11
:1046F0002846FFF785FFA36993F821305B07F7D5BC
:1047000038BD00BFA00D0020681000200000000090
:1047100010B5044C2046FFF773FF2046BDE810405B
:10472000FEF7BEBF5C10002000000000000000008B
:1047300010B504460348FFF763FF2078BDE810403A
:10474000FDF7CEB85C100020000000000000000063
:1047500038B5104B9C69A36A606204F12805AB422E
:1047600007D01A68A2621846FDF7D2FBA36AAB42D3
:10477000F7D194F8223043B994F821309B0704D143
:10478000D4E904231A61226953610F20BDE838403F
:10479000FFF726B8A00D0020000000000000000078
:1047A0002DE9F04FD0E900737849DFF81892DFF86F
:1047B00018A29BB0804638468B460193FEF750FA0C
:1047C00038467349FEF74CFAD9F8183093F821307F
:1047D0005B0700F1838051463846FEF741FAD8F86E
:1047E00000400AAE2268354693680DF10F010122A0
:1047F00020469847002869D09DF80F30042B61D0DF
:10480000082B0DF1670C12D07F2B194620460ED0D5
:104810000D2B21D01F2B2268E6D96545E4D2D36841
:1048200098479DF80F302B7022680135DCE7B542C0
:104830004FF0080120462268D6D0D36898472368F5
:104840002021DB682046984723680821DB68204642
:104850009847013D2268C7E759460024FEF700FA51
:10486000304604A92C70FEF7CBF904A906460020B7
:1048700005ADFEF7C5F950B1042C1CD045F8040B6A
:1048800004A900200134FEF7BBF90028F4D11AABCB
:1048900003EB840343F8540C002E95D03D49304679
:1048A000FCF7B2FB38BB002C36D03A4A3A493846BE
:1048B000FEF7D6F988E739493846FEF7D1F90023E3
:1048C000099381E720463649FEF7CAF92F49384651
:1048D000FEF7C6F938463349FEF7C2F9202383F3C1
:1048E000118800213048FDF7FBFB0020FFF730FF67
:1048F0001BB0BDE8F08F2D4D2D4802E055F8080F94
:1049000058B33146FCF780FB0028F7D16B6805AA45
:1049100021463846984757E72649244C264D3846C5
:10492000FEF79EF9224A29463846FEF799F954F8CF
:10493000082F002AF7D1019C54B1226842B11E4DC4
:1049400029463846FEF78CF954F8082F002AF7D18B
:1049500059463846FEF784F936E7019D5DB128686F
:1049600018B908E055F8080F28B13146FCF74CFBA0
:104970000028F7D1CAE7324610493846FEF770F9E9
:104980000F493846FEF76CF91EE700BF58AE000825
:10499000C0C6000800C700080CAD0008E8C6000843
:1049A000DCC60008E0C600087410002030C700080C
:1049B000B8C6000808C7000818C700081CC70008C8
:1049C00020C70008A00D0020D4C600080000000089
:1049D000002903DD084A0949FEF742B908B520233A
:1049E00083F3118806480021FDF77AFB0020BDE81B
:1049F0000840FFF7ADBE00BFB8C600080CAD000808
:104A00007410002000000000000000000000000002
:104A1000EFF30983203383F30988002383F311889C
:104A2000704700BF00000000000000000000000010
:104A3000202383F31188FFF78BBE00BF0000000026
:104A40002DE9F04F6E4F6F4ABB696F489A6183B092
:104A500003220121FDF7ECFC202383F311886B4D29
:104A60002A780023012A6B6078D002232B70002360
:104A700083F31188BB6993F821305A0768D4644ED8
:104A8000DFF8BCB1DFF8BCA1DFF8BC91DFF8BC8176
:104A900006F11404202383F311880320EB6A2870A5
:104AA0001B68296BC5F810B00A22C5E90262DE60F6
:104AB0005A601960D3F800E0AA6AB969DFF890C1BA
:104AC0004EF0010EC3F800E000234FF0060E136015
:104AD0000193D360C2F810E0536240F2033E936248
:104AE000D362136353634B4B5360C2F808E0C2F8C0
:104AF00008C0C1F824A06961FEF772FE019B83F330
:104B000011881846334633F8022B9C421044FAD1E0
:104B1000414BA3FB0030C008C9F80000FCF7E4F8E3
:104B2000FBF746FD00223D4BFBF79AFD32A3D3E98C
:104B30000023FBF7BFFEFBF7CDFFC8F800004FF4E2
:104B40007A70FFF795F9BB6993F821305B07A1D51F
:104B5000002003B0BDE8F04FFFF76ABF304A11688C
:104B6000C80402D5EB621B68FFDE2E4B41F4805176
:104B70001160196B956641F480011963186D2A491B
:104B800040F4800018651B6D0B682848506623F0C0
:104B90001F030B600A6812F00102FBD12448254B69
:104BA000254C3D26066021200A604861602083F87C
:104BB0003C034FF08050C3F884015860194B8C605F
:104BC000586CA96A40F480705864586E40F4807044
:104BD00058665B6ED4F8B8321848E86203F44003B4
:104BE00043F480330120C4F8B8324A608A60886098
:104BF0003BE700BFAFF300800000000000FEAF40C5
:104C0000A00D002014AA000800000240E00C0020C3
:104C10004810002000010004CDCCCCCC000059404D
:104C20005C0F00200038024070640240112500082B
:104C30000C64024000E100E04C200140B0AA0008F2
:104C4000A8AE0008F40C0020141000200010002072
:104C5000030300400000000000000000000000000E
:104C60002DE9F041164F174CBB69174A9A61012193
:104C70000422022621832683228393F821305A07B7
:104C800018D4B0464EF660200125A4F81A80FFF72C
:104C9000EFF847F230506583FFF7EAF826834EF6C7
:104CA0006020FFF7E5F8BB692583668393F8213020
:104CB0005B07E7D50020BDE8F041FFF7B9BE00BFB4
:104CC000A00D00200008024008AA00080000000013
:104CD000FFF7AEBE00000000000000000000000072
:104CE0000E4A1068036830B4012194695A600025A7
:104CF00080F82010A1681360906184F8205000E0D3
:104D00001B689A689142FBD35A682146C4E9003275
:104D100014605C6030BCFBF7D3BA00BFA00D00206C
:104D2000044B1A689B6992689B689A4200D8704746
:104D3000FFF7D6BFA00D002000000000000000001B
:104D400038B5202383F31188154CA3680133002B59
:104D5000A3601ADD013B002BA36006DBFFF7E0FF39
:104D60000020002383F3118838BD0E4A63689569DB
:104D70000520C5E900431D606C626560FEF730FDEB
:104D8000686A002383F3118838BD206803682360B4
:104D90005C60FDF7BDF80022A3684262DAE700BF5D
:104DA0005C100020A00D00200000000000000000AA
:104DB00030B5214B214D9A6921489268214B224CF4
:104DC00083B0012129600021013200914FF4A471C8
:104DD000FEF786FC1D4A022310602B60FFF7B0FF30
:104DE00020681B49001BB0FA80F04009FCF7D8FC92
:104DF00008B103B030BDA0681649B0FA80F0400990
:104E0000FCF7CEFC0028F4D103232B60FFF798FFBA
:104E100020680F49001BB0FA80F04009FCF7C0FC85
:104E20000028E6D1A0680B49B0FA80F0400903B031
:104E3000BDE83040FCF7B4BCA00D00208C1700206A
:104E400078100020114700085C100020A4170020F3
:104E500044C0000854C0000800000000000000002A
:104E600038B5202383F311880A4C2368012204F10A
:104E7000180000252275C4E902332561FDF7E8F822
:104E800004F12000FDF7E4F8FFF74AFF85F31188ED
:104E900038BD00BF500C00200000000000000000E2
:104EA000FFF7DEBF0000000000000000000000006F
:104EB000FFF7F6BF00000000000000000000000047
:104EC000FFF7EEBF0000000000000000000000003F
:104ED0002DE9F041202380460E4683F31188184CBB
:104EE00004F118050AE0D4E900722369A2EB070E69
:104EF000B3EBAE0F0ED1FEF73BFE30B9237D31464A
:104F00002846002BEFD06FF00100002383F31188B7
:104F1000BDE8F081A068011DA1608A42C0F8008050
:104F200003F10103074898BFA7602361FDF708F864
:104F3000FFF7F6FE0020002383F31188BDE8F0811F
:104F4000500C0020700C0020000000000000000049
:104F50002DE9F041202380460E4683F31188184C3A
:104F600004F118050AE0D4E900272369A7EB020E33
:104F7000B3EBAE0F0ED1FEF7FBFD30B9237D31460A
:104F80002846002BEFD06FF00100002383F3118837
:104F9000BDE8F081E1680B4804398A4288BF391FB7
:104FA000E1600133C1F800802361FCF7C9FFFFF71E
:104FB000B7FE0020002383F31188BDE8F08100BF15
:104FC000500C0020700C00200000000000000000C9
:104FD000F8B507460E46202383F31188154CE518D3
:104FE00004E023696BB9FEF7C3FD30B9237D314678
:104FF0002846002BF5D06FF00100002383F31188C1
:10500000F8BDE2686168106804328A42E26003F128
:10501000FF33386028BF2268074828BFE260236159
:10502000FCF78EFFFFF77CFE0020002383F311883E
:10503000F8BD00BF500C0020680C002000000000EC
:1050400070B5404E404D012382B0336042244FF092
:10505000FF312046FFF73CFFB0FA80F029464009B7
:10506000FCF79EFB013488B9462CF0D102230121C4
:1050700058203360FFF72CFFA0F1FF30B0FA80F02A
:1050800031494009FCF78CFB044608B102B070BD01
:10509000202585F311885820FCF762FF84F31188DE
:1050A000A0F1FF30B0FA80F027494009FCF778FB07
:1050B0000028EBD101215820FFF74AFFA0F1FF3073
:1050C000B0FA80F020494009FCF76AFB044600284A
:1050D000DCD185F311885820FCF76AFF84F311882E
:1050E000A0F1FF30B0FA80F017494009FCF758FBF7
:1050F00004460028CAD103233360FFF7B1FE134BE7
:1051000001211C7501A804233360FFF761FFA0F1A2
:10511000FF30B0FA80F00C494009FCF741FB04462F
:105120000028B3D185F3118801A8FCF769FF84F347
:105130001188A0F1FF30B0FA80F003494009FCF774
:105140002FFBA3E78C170020D0AF0008500C0020E5
:105150002DE9F047AD4F4FF0010882B0C7F800804D
:10516000202686F31188AA4CAA492069D4E9002395
:105170009B1AC0EBA300A0F10400B0FA80F0400934
:10518000FCF70EFB28B1002383F3118802B0BDE8C1
:10519000F087054680F3118802233B6086F311886F
:1051A0002368206104F11800C4E9023384F81480F4
:1051B000FCF74EFF04F12000FCF74AFF85F311884D
:1051C00086F31188D4E90023206993499B1AC0EB28
:1051D000A300A0F10400B0FA80F04009FCF7E0FA67
:1051E000804620B185F3118802B0BDE8F08780F3D6
:1051F000118886F3118820698849B0FA80F0400947
:10520000FCF7CEFA054610B188F31188BEE780F3AB
:10521000118886F311882068A3688149C01AB0FA02
:1052200080F04009FCF7BCFA80460028DAD180F310
:10523000118886F311882068E3687A49C01AB0FAA9
:1052400080F04009FCF7ACFA0028DDD180F311882A
:105250000323DFF8D4A1207580463B60422586F306
:1052600011882846FCF77CFE88F31188B0FA80F09C
:1052700040095146FCF794FA01358146002885D152
:10528000452DECD186F311884120FCF791FE89F37E
:105290001188B0FA80F040096349FCF781FA0546AD
:1052A00000287FF473AF4FF00408C7F8008086F33E
:1052B0001188D4E9001322695B1AB2EBA30F0CBF6B
:1052C000012000205949FCF76BFA8146002889D15A
:1052D00080F3118886F3118820695549A0F10400F4
:1052E000B0FA80F04009FCF75BFA054610B189F38B
:1052F00011884BE780F3118886F31188D4E90230D6
:10530000C61A704270414B49FCF74AFA00287FF4F4
:1053100069AF80F311880523DFF80C913B604546A7
:1053200006464FF0200888F3118801A8FCF768FEB4
:1053300086F31188B0FA80F040094946FCF730FA4C
:1053400000287FF423AF9DF80400FCF7C9FA013D63
:10535000E9D139493948FCF73BFB00287FF416AF07
:1053600006234FF0FF3146203B60FFF7B1FDB0FA56
:1053700080F040092C49FCF713FA00287FF406AFAF
:105380004FF0FF3101A8FFF723FEB0FA80F040098B
:105390002549FCF705FA00287FF4F8AE07233B60A7
:1053A00088F31188D4E900122369521AC3EBA203CF
:1053B000191F484248411849FCF7F2F900287FF4C8
:1053C00011AF85F3118888F3118820691349B0FA69
:1053D00080F04009FCF7E4F900287FF403AF85F37F
:1053E00011882068A3680E49C21A50425041FCF748
:1053F000D7F900287FF4CAAE2068E3680949C31AC8
:1054000058425841FCF7CCF9C0E600BF8C17002089
:10541000500C002008AF000814AF000820AF0008AF
:105420002CAF000850AF0008D0AF000874AF0008E0
:1054300080AF00088CAF0008A4AF0008B8AF000828
:105440002DE9F041B34F012382B03B60202686F363
:105450001188B14CB1492069D4E900239B1AC0EBF3
:10546000A300A0F10400B0FA80F04009FCF798F91D
:1054700028B1002383F3118802B0BDE8F08105460E
:1054800080F3118802233B60FFF7EAFC86F3118862
:10549000D4E900232069A2499B1AC0EBA300A0F124
:1054A0000400B0FA80F04009FCF77AF9804620B198
:1054B00085F3118802B0BDE8F08180F3118886F38E
:1054C000118820699749B0FA80F04009FCF768F923
:1054D000054610B188F31188CEE780F3118886F372
:1054E00011882068A3689049C01AB0FA80F040097A
:1054F000FCF756F980460028DAD180F3118886F34C
:1055000011882068E3688949C01AB0FA80F0400920
:10551000FCF746F90028DDD180F3118803234FF012
:10552000FF313B60FFF7D4FC851C14BF0020012035
:105530007F49FCF735F900289ED14FF0FF31FFF786
:1055400007FD821C14BF002001207949FCF728F9CF
:10555000002891D14FF0FF3101A8FFF739FD831CDE
:1055600014BF002001207249FCF71AF9002883D1EA
:105570000423704E20753B6042254FF0FF312846D2
:10558000FFF7A6FCB0FA80F031464009FCF708F9B5
:10559000013500287FF470AF452DEED14FF0FF317B
:1055A0004120FFF7D5FCB0FA80F040096149FCF7D3
:1055B000F7F8054600287FF45FAF05233B602026FF
:1055C00086F31188D4E9001322695B1AB2EBA30FAA
:1055D0000CBF012000205849FCF7E2F88046002863
:1055E0007FF466AF80F3118886F3118820695349F0
:1055F000A0F1040CDCF1000040EB0C00FCF7D0F84B
:10560000054600287FF466AF80F3118886F3118881
:10561000D4E90230C61A704270414949FCF7C0F81B
:1056200000287FF445AF80F311880623414E3B608C
:1056300004254FF0FF3101A8FFF7CAFCB0FA80F053
:1056400031464009FCF7ACF800287FF415AF9DF80F
:105650000400FCF745F9013DEBD13A493A48FCF723
:10566000B7F900287FF408AF07234FF0FF31462039
:105670003B60FFF72DFCB0FA80F040092D49FCF7A4
:105680008FF800287FF4F8AE4FF0FF3101A8FFF744
:105690009FFCB0FA80F040092649FCF781F8002809
:1056A0007FF4EAAE08233B60202686F31188D4E914
:1056B00000122369521AC3EBA203191F4842484142
:1056C0001749FCF76DF800287FF4F2AE85F31188D6
:1056D00086F3118820691349B0FA80F04009FCF77D
:1056E0005FF800287FF4E4AE85F311882068A36892
:1056F0000D49C21A50425041FCF752F800287FF47D
:10570000BBAE2068E3680949C31A58425841FCF708
:1057100047F8B1E68C170020500C002008AF0008B5
:1057200014AF000820AF00082CAF000850AF0008ED
:10573000E4AE0008D0AF000874AF000880AF0008E6
:105740008CAF0008A4AF0008B8AF0008000000004C
:105750002DE9F047DFF8F4A0384D394C0123CAF8A1
:105760000030A94604264FF02008002788F311884E
:10577000EB6823604846EC60FCF7F2FCFFF7D0FAD8
:1057800087F311882B69013E1C44EFD102232D4E73
:10579000CAF8003004240020FEF7E2F8003018BFF9
:1057A00001203146FBF7FCFF002844D1013CF2D137
:1057B0000323CAF80030FEF7D3F8B0FA80F04009AE
:1057C0002149FBF7EDFFB0BB1D4EDFF870800423CD
:1057D00006F11009CAF800302027334687F31188F4
:1057E000EA6846F8042B4046EB60FCF7B9FCFFF78B
:1057F00097FA84F31188B145EFD10523114DCAF80A
:10580000003004240020FEF7ABF8003018BF012060
:105810002946FBF7C5FF70B9013CF3D10623CAF84E
:105820000030FEF79DF8B0FA80F040090649BDE867
:10583000F047FBF7B5BFBDE8F08700BF140C0020B0
:10584000381000204CB0000858B000088C17002019
:1058500038B5202585F3118800210B48FCF740FC62
:105860000024FFF75DFA84F311884FF4FA70FEF715
:10587000FFFA85F3118805482146FCF731FCFFF754
:105880004FFA84F3118838BD0C0C0020100C002056
:1058900010B504464FF4FA70FEF7EAFA202383F3BA
:1058A000118801212046FCF703FCFFF739FA002399
:1058B00083F3118810BD00BF00000000000000004D
:1058C00010B540F2DC50FEF7D3FA202383F31188A1
:1058D000064C2046FEF70CFE2046FCF719FCFFF7AD
:1058E0001FFA002383F3118810BD00BF400C002075
:1058F00008B54FF4FA70FEF7BBFA202383F3118842
:105900000448FCF72DFCFFF70BFA002383F3118802
:1059100008BD00BF5C100020000000000000000077
:1059200008B5202282F311888368002B05DDFFF77C
:10593000F7F9002383F3118808BDFCF711FCFFF78A
:10594000EFF9002383F3118808BD00BF00000000B9
:1059500010B52023044683F3118800210648FCF784
:105960000FFCFFF7DDF9002383F311882078BDE8F1
:105970001040FBF7B5BF00BFB817002000000000C3
:10598000174B70B59D69202383F311880468C368A1
:10599000AB6384421DD0E96B4BB11A68934203D0CC
:1059A0009268914238BF1146DB68002BF5D103465F
:1059B0002268A66BA96020461A605360C3E90246BC
:1059C000A363FCF7A5FAFFF7ABF9002383F3118873
:1059D00070BD0023A360002383F3118870BD00BF56
:1059E000A00D0020000000000000000000000000EA
:1059F0002DE9F843374C002818BF044604F10C0782
:105A0000384601F107080D464FEAD808FEF7E8FDD1
:105A1000201D026802F10F0323F007031E4602F166
:105A20000809083B7AB1D2F804C00CF1010102EB7D
:105A3000C101A1EB060E8B424FEAEE0E01D2F045FA
:105A400012D91046E5E73846FFF79AFF266846B1B7
:105A500008224FEAC8001146B047064608B140E99F
:105A600002453046BDE8F8839A421AD3E0451368F0
:105A70002CD008F1010802EBC80C0CF10806891BB8
:105A8000C91042F838304E46CCF804101346C0F81E
:105A900000C03846C3E90045FFF772FF3046BDE855
:105AA000F883A3EB09094FEAE901F0455160F0D210
:105AB00008F1010C03EBCC006FEA08017144D2F845
:105AC00000E0416043F83CE01060E2E703604E46CE
:105AD0001346DEE7400F0020000000000000000039
