:020000040800F2
:1000000000040020B9020008BB020008BB0200087F
:10001000BB020008BB020008BB020008BB020008CC
:10002000BB020008BB020008BB020008213B00081D
:10003000BB020008BB020008BB020008BB020008AC
:10004000BB020008BB020008BB020008BB0200089C
:10005000BB020008BB020008BB020008BB0200088C
:10006000BB020008BB020008BB020008B1930008F5
:10007000819300085193000821930008F192000831
:10008000C192000891920008E1930008BB020008A9
:10009000BB020008BB020008BB020008BB0200084C
:1000A000BB020008BB020008BB020008BB0200083C
:1000B00041900008BB020008BB020008BB02000818
:1000C000BB020008BB020008BB020008BB0200081C
:1000D000BB020008BB020008A18E0008BB0200089A
:1000E000BB020008BB020008BB020008BB020008FC
:1000F000BB020008BB020008BB02000861920008B6
:10010000BB020008BB020008BB020008BB020008DB
:10011000BB020008BB020008BB020008BB020008CB
:100120003192000801920008D1910008A1910008C5
:1001300071910008BB020008BB020008BB02000866
:10014000BB020008BB020008BB020008BB0200089B
:100150004191000811910008E1900008BB020008DD
:10016000BB020008BB020008BB020008BB0200087B
:10017000BB020008BB020008BB020008BB0200086B
:10018000BB020008BB020008BB020008BB0200085B
:10019000BB020008BB020008BB020008BB0200084B
:1001A000BB020008BB020008BB020008BB0200083B
:1001B000BB020008BB020008BB020008BB0200082B
:1001C000BB020008BB020008BB020008BB0200081B
:1001D000BB020008BB020008BB020008BB0200080B
:1001E00072B6274880F30888264880F30988264895
:1001F0004EF60851CEF200010860022080F3148808
:10020000BFF36F8F09F09CF908F062FD4FF0553095
:100210001E491B4A91423CBF41F8040BFAE71C49B6
:10022000184A91423CBF41F8040BFAE719491A4AAF
:100230001A4B9A423EBF51F8040B42F8040BF8E700
:1002400000201749174A91423CBF41F8040BFAE7D6
:1002500009F02EF909F06CF9134C144DAC4203DA95
:1002600054F8041B8847F9E706F012FC104C114DB6
:10027000AC4203DA54F8041B8847F9E709F050B997
:1002800000040020000800200000000800000020FA
:1002900000040020B4C0000800080020E00C00208A
:1002A000E00C0020601B0020E0010008E0010008D5
:1002B000E0010008E001000892E700F000F8FEE726
:1002C0002DE9F04FC1F80CD0C3689D46BDE8F08F12
:1002D000002383F311882846A047002003F030FC58
:1002E00003F076FC00DFFEE7844641EA000313F0EA
:1002F00003036DD1403A41D351F8043B40F8043B2D
:1003000051F8043B40F8043B51F8043B40F8043BEF
:1003100051F8043B40F8043B51F8043B40F8043BDF
:1003200051F8043B40F8043B51F8043B40F8043BCF
:1003300051F8043B40F8043B51F8043B40F8043BBF
:1003400051F8043B40F8043B51F8043B40F8043BAF
:1003500051F8043B40F8043B51F8043B40F8043B9F
:1003600051F8043B40F8043B51F8043B40F8043B8F
:1003700051F8043B40F8043B403ABDD2303211D32F
:1003800051F8043B40F8043B51F8043B40F8043B6F
:1003900051F8043B40F8043B51F8043B40F8043B5F
:1003A000103AEDD20C3205D351F8043B40F8043B2F
:1003B000043AF9D2043208D0D2071CBF11F8013B2D
:1003C00000F8013B01D30B8803806046704700BFF3
:1003D000082A13D38B078DD010F003038AD0C3F102
:1003E0000403D21ADB071CBF11F8013B00F8013BE4
:1003F00080D331F8023B20F8023B7BE7043AD9D3A3
:10040000013A11F8013B00F8013BF9D20B78037077
:100410004B7843708B788370604670470000000013
:10042000A2EB0300704700BF02780B78012A28BFB7
:100430009A42F5D16DE9044540EA0104CDE902672D
:100440006FF0000C4FEA447212B380EA010414F01A
:10045000070F6AD100F0070420F0070004F003053D
:1004600021F007014FEAC505F0E8042314F0040F5A
:10047000F1E804670CFA05F462EA040266EA04068D
:100480000AD063EA0403624667EA0407664603E0AB
:10049000F0E80423F1E8046782FA4CF582EA0604E6
:1004A000A4FA8CF46CBB83FA4CF583EA0705A5FA31
:1004B0008CF595B950E9022351E9026782FA4CF5AF
:1004C00082EA0604A4FA8CF483FA4CF583EA070561
:1004D000A5FA8CF52543DBD09CB92DBAB5FA85F485
:1004E00024F0070427FA04F1DDE9026723FA04F394
:1004F00003F0FF0001F0FF01FDE80445A0EB01005F
:10050000704724BAB4FA84F424F0070426FA04F1FC
:10051000DDE9026722FA04F202F0FF0001F0FF01B8
:10052000FDE80445A0EB0100704714F0030F3CD137
:1005300010F0030428D150F8082B51F8083B82FA38
:100540004CF582EA0305A5FA8CF55DB950F8042C48
:1005500051F8043C82FA4CF582EA0305A5FA8CF5C1
:10056000002DE8D02DBAB5FA85F424F0070423FA5B
:1005700004F122FA04F202F0FF0001F0FF01FDE8AD
:100580000445A0EB010070474FEAC40420F00300CB
:1005900050F8082B21F0030151F8083B0CFA04F441
:1005A00062EA040263EA0403C9E710F003041AD004
:1005B000A1EB040120F00300E40750F8042B06D05F
:1005C0000FD28B785FFAA2F4E41A06D12BB1CB7864
:1005D0005FFAB2F4E41A00D11BB920465DF8104B63
:1005E000704701F1040150F8042BCC0721F00301FE
:1005F00051F8043B48D824D222F07F4482FA4CF5CB
:1006000094EA1325A5FA8CF50AD165B951F8043B93
:1006100084EA0204B4EB036F0ED150F8042BEBE72D
:100620004FEA132355E035F07F454DD10878FDE8BA
:100630000445C0F1000070474FEA126203F0FF0367
:1006400047E002EA1C4482FA4CF594EA1345A5FA05
:100650008CF50AD165B951F8043B84EA0204B4EB85
:10066000034F0CD150F8042BEBE74FEA134330E073
:1006700015EA1C4528D10B884FEA124229E04FEABF
:10068000124203EA1C4324E002F0FF0482FA4CF514
:1006900094EA1365A5FA8CF50AD165B951F8043BC3
:1006A00084EA0204B4EB032F09D150F8042BEBE7E2
:1006B0004FEA13630DE015F0FF0F05D10B684FEA09
:1006C000122223F07F4304E04FF00000FDE80445D0
:1006D000704712BA1BBA82FA4CF482EA0304A4FAF5
:1006E0008CF5B5FA85F402FA04F203FA04F34FEA42
:1006F0001260FDE80445A0EB1360704700000000A5
:1007000030B40D4CE06A0268136823F01F031360D5
:10071000136813F00103FBD1457AA26A40683D21BA
:10072000A940016053609368012123F080439360E6
:1007300030BC9160704700BFE00C0020000000005A
:100740002DE9F0410125204CAC46002103270F265E
:1007500006E0236A1A402262400832D0AD0001311F
:1007600001F007024B00920007FA03F306FA02F2C7
:1007700010F0010F0CFA01FE6FEA03036FEA0202A8
:10078000EAD0D4F8048028EA0E0EC4F804E0D4F8C5
:1007900008E00EEA030EC4F808E0D4F80CE003EA1F
:1007A0000E0EC4F80CE0D4F800E003EA0E032B436D
:1007B00007292360CDD9636A400802EA0302626216
:1007C000CCD1BDE8F08100BF00080240000000006D
:1007D000014B5B6883607047001000E00000000080
:1007E000202383F31188094B9A6822B1002000234B
:1007F00083F311887047064A92699A60916BD960B9
:1008000093630120002383F311887047300C00208C
:10081000A00D00200000000000000000000000000B
:10082000202383F31188044B9A690023506B536390
:1008300083F31188704700BFA00D00200000000066
:100840004FF08043091A5B6A1B1A8B4208D3054993
:10085000054A064B06480860012010701870704762
:1008600000207047CC16002070170020D016002002
:100870007499000800000000000000000000000063
:10088000F0B4202383F311880D4DD5E900744E1E7A
:100890003A448319494290190B4008400344A3424B
:1008A00007D89F4205D82B60002383F31188F0BC42
:1008B00070470020002383F31188F0BC704700BF0D
:1008C000380F0020000000000000000000000000C1
:1008D000024AD36843F0C003D3607047004400402D
:1008E0000B4B0C4AD91D21F00701CB1AC3F1780339
:1008F00010B4002002F10C04DB084B60516008606A
:10090000C2E9034410609060506110BC704700BFA2
:10091000F0160020D41600200000000000000000A7
:10092000054B00220421C3E90033DA609A619A6022
:10093000C3E90411704700BF140C00200000000040
:10094000FFF7EEBF00000000000000000000000004
:1009500000207047000000000000000000000000C0
:10096000034B002104221960D960C3E901227047BA
:10097000780C0020000000000000000000000000D3
:1009800030B40F4B0F4A1A6002F1080503F120043E
:1009900003F1300003F14001C3E9022200225D604F
:1009A000C3E90844C3E90C00C3E910111A611A75C0
:1009B000C3E906229A629A639A6430BC704700BF0A
:1009C000900C0020900D00200000000000000000AE
:1009D00030B40F4B0F4A1A6002F1100503F12004E6
:1009E00003F1300003F14001C3E9022200225D60FF
:1009F000C3E90844C3E90C00C3E910111A611A7570
:100A0000C3E906229A629A639A6430BC704700BFB9
:100A1000900C0020900D002000000000000000005D
:100A200030B40A4B0A4A1A6002F1100503F11804A7
:100A3000002103F120005D60C3E90644C3E90222FE
:100A4000C3E908001961197530BC7047500C0020CB
:100A50000010002000000000000000000000000066
:100A6000FFF7DEBF000000000000000000000000F3
:100A7000FFF7D6BF000000000000000000000000EB
:100A8000024B0022C3E900339A6070472010002017
:100A9000024B0122C3E900339A6070474C100020DA
:100AA000704700BF000000000000000000000000D0
:100AB000024B0022C3E900339A6070474C100020BB
:100AC000044B00224FF4A4700421C3E901011A6011
:100AD000DA607047101000200000000000000000E5
:100AE0000B4B0C4AD91D21F00701CB1AC3F5CC637F
:100AF00010B4002002F10C04DB084B605160086068
:100B0000C2E9034410609060506110BC704700BFA0
:100B100060100020E40F0020000000000000000032
:100B200008B5FFF77DFE024A024B12601B6008BD4C
:100B30000C0C0020100C0020000000000000000041
:100B4000FFF76EBE00000000000000000000000083
:100B5000FFF7F6BF000000000000000000000000EA
:100B6000FFF7EEBF000000000000000000000000E2
:100B7000FFF7E6BF000000000000000000000000DA
:100B8000FFF7DEBF000000000000000000000000D2
:100B90000649074A074B096000204960C2E9002264
:100BA00090609860C3E90033704700BF040C0020D8
:100BB000300C0020400C002000000000000000006D
:100BC000044A054B126000215260C3E9003399606A
:100BD000704700BF040C0020300C00200000000013
:100BE000FFF7EEBF00000000000000000000000062
:100BF000024B0022C3E900339A607047300C00209A
:100C0000044A054B12600021C2E901219960C3E941
:100C100000337047300C0020400C00200000000022
:100C2000FFF7E6BF00000000000000000000000029
:100C3000024B0022C3E900339A6070474010002045
:100C4000FFF7F6BF000000000000000000000000F9
:100C5000FFF7EEBF000000000000000000000000F1
:100C6000FFF7E6BF000000000000000000000000E9
:100C7000024B0122C3E900339A6070474010002004
:100C8000014B00221A607047A017002000000000EE
:100C900048B910B4054A064C064B0120207010706C
:100CA000196010BC70470020704700BFD0160020AC
:100CB00070170020CC16002000000000000000008B
:100CC000044B01214FF080421960516A536A9942E6
:100CD000FCD07047741700200000000000000000E6
:100CE000074B01221A60202383F3118862B672B683
:100CF00083F3118862B6002383F3118862B67047CC
:100D00007417002000000000000000000000000038
:100D10000B4B30B403F114002025002453F8042BAE
:100D20004AB185F3118892F8211041F0040182F84C
:100D3000211084F311888342F0D130BC704700BF8A
:100D40008C170020000000000000000000000000E0
:100D500020B370B584B06D462C46114E00E01446A9
:100D6000A6FB0023DB0803EB8301A0EB410000F1AD
:100D700030012246C9B202F8011B1846002BEED101
:100D8000AA4209D9074E01E014F8011D3068036832
:100D9000DB689847A542F7D104B070BD704700BF2B
:100DA000CDCCCCCCC8160020000000000000000014
:100DB00028B9044B186803683021DB681847FFF72F
:100DC000C7BF00BFC81600200000000000000000E0
:100DD000202383F31188064A064913688B4202D206
:100DE000591C18701160002383F31188704700BFED
:100DF0008817002088170020000000000000000075
:100E00004320FFF7E5BF00BF000000000000000026
:100E10004220FFF7DDBF00BF00000000000000001F
:100E20004120FFF7D5BF00BF000000000000000018
:100E30000078FFF7CDBF00BF0000000000000000F9
:100E4000FFF7F6BF000000000000000000000000F7
:100E500070B5017889B10A4D044628680368DB68DB
:100E6000984714F8011F0029F7D12868054903683D
:100E700002225B68BDE870401847014DF5E700BFEE
:100E8000C8160020B89C0008000000000000000008
:100E9000017859B138B5064D044628680368DB6807
:100EA000984714F8011F0029F7D138BD704700BFDB
:100EB000C816002000000000000000000000000034
:100EC000F0B40D4E0D4F3568421E3B4603E013F85B
:100ED000014B844207D19D4212F8010FF7D810B997
:100EE0003760F0BC7047064C064A074B0120207063
:100EF00010701960F0BC7047881700207817002028
:100F000070170020D0160020CC1600200000000032
:100F1000F8B50F4B0F4F01261E600725002425FA58
:100F200004F313F0010F06FA04F220460DD057F82F
:100F3000243025EA020501349847002DEFD10649F7
:100F40000648BDE8F840FFF7BBBF0134E7E700BF44
:100F500074170020DC9C0008C4AF0008D8AF00085C
:100F600070B5084D4C24286803682D21DB6898472C
:100F7000013CF8D128680449036802225B68BDE897
:100F800070401847C8160020B89C000800000000F8
:100F9000202383F311880F4B5B6813F4006302D1A5
:100FA00083F311887047EFF309834FF0807243F8A1
:100FB000042CA3F1200282F30988074A1168926980
:100FC0008968926891428CBF044A054A43F8082C0C
:100FD000704700BF00ED00E0A00D0020E102000816
:100FE000E402000800000000000000000000000013
:100FF00070B40B4CD4E90063721E4D420A440139AF
:101000000144294002EA05000144994204D88E4275
:1010100002D8216070BC7047002070BC704700BFD0
:10102000380F002000000000000000000000000059
:1010300008B52022034682F31188006828B10268AF
:101040001A60002383F3118808BDDA68002AF8D0FB
:10105000D3E901019047002383F3118808BD00BF45
:101060002DE9F0413A4E3B4B3B4C012232602025AA
:101070000422002085F3118821681960236080F321
:1010800011886168013A0B44F4D10223DFF8C8806B
:10109000324F336004254046FFF7CAFF003018BFC7
:1010A00001203946FFF7F4FD00283CD1013DF2D183
:1010B000032329483360FFF7BBFFB0FA80F04009F3
:1010C0002749FFF7E5FD70BB224B042203F110070F
:1010D000326020201A4680F31188216843F8041BEF
:1010E000226085F311889F42F4D10523DFF86880E0
:1010F0001A4F336004254046FFF79AFF003018BFAF
:1011000001203946FFF7C4FD68B9013DF3D106233C
:1011100011483360FFF78CFFB0FA80F040091049A6
:10112000FFF7B6FD08B1BDE8F081072104230D4AA1
:10113000094831602560C4E90133E260FFF778FFB8
:10114000B0FA80F040090849BDE8F041FFF7A0BDC2
:101150007417002030100020780C0020809E0008BA
:101160008C9E0008510900089C9E000800000000A9
:10117000202383F31188044B9B695A6B10435863F7
:10118000002383F311887047A00D002000000000A9
:10119000202383F31188024602E08B4207D01A46CF
:1011A00013688342F9D1002383F3118870470B68D9
:1011B0001360002383F31188704700BF0000000014
:1011C0002DE9F047364CDFF8E890246002218AB020
:1011D000C9F80010202686F31188324823680AAF28
:1011E000012247F8143D8369069300254FF0FF3331
:1011F00007922760CDE9085385F3118886F311889B
:101200000DF12808226848F8282D8269C4F800806A
:10121000CDE90121CDE9035385F3118886F31188C7
:1012200020682149001B18BF0120FFF731FD20B1C4
:1012300085F311880AB0BDE8F087824680F31188F3
:10124000032339462046C9F80030FFF7A1FF86F393
:10125000118820681449001B18BF0120FFF718FDF2
:10126000054620B18AF311880AB0BDE8F08780F303
:101270001188042341462046C9F80030FFF788FF53
:1012800086F3118820680949001BB0FA80F04009F4
:10129000FFF7FEFC0028CBD180F31188CAE700BF1E
:1012A0000C0C0020A00D002098AF0008A4AF00088F
:1012B0007417002000000000000000000000000083
:1012C0000E4B0F4A5B68C168F0B48468566F426881
:1012D0001B1BD0E904459B1BE61845F10007934210
:1012E000026888BF436001319342C0E90467C0E9E6
:1012F000023138BF0360F0BC704700BF001000E04F
:10130000A00D002000000000000000000000000010
:10131000836841681A4AF0B4D0E90475022643F89C
:101320002C1C0124002143E91B750568C06803F8E3
:10133000271C03F8286C03F8264C43F8382C546912
:1013400043F8400C43F80C0C43F8305CA3F16C00FC
:101350000C4D43F83C0C43F84C5CA3F1480043E9C6
:101360000511A3F12005A3F11C0143F8344C2061C1
:10137000506143E9085143F8181CF0BC704700BFA6
:10138000A00D0020D10200080000000000000000B5
:10139000202383F3118890F82030072B0ED8DFE844
:1013A00003F0280D0D2408040D08426A93680133E8
:1013B0009360D0E900231A600268536010B40022E1
:1013C0004FF0FF3481680D4B446280F820201B6889
:1013D0009A688A42FBD25A680021C0E90032106044
:1013E000586081F3118810BC7047436A00221A606C
:1013F000E4E7002383F31188704700BFA00D0020AD
:1014000001460022074B806881F820201B689A68FB
:101410008242FBD25A680846C1E900321160596025
:10142000704700BFA00D0020000000000000000079
:101430000368984207D01A6802600021506018467D
:101440005962FFF7DDBF7047000000000000000098
:101450000F4B1A7DB2B970B5D3E900611A698C1BC4
:10146000B2EBA40F11D09D682C1D9C60A142286096
:1014700002F10102074898BF9E601A61FFF7D8FF8A
:10148000002070BD6FF0010070474FF0FF3070BD5D
:10149000500C0020700C0020000000000000000034
:1014A00038B50F4B1A7DA2B9D3E9004519692A1B3B
:1014B000B1EBA20F10D0DA68043A944288BF2A1F19
:1014C000DA600131106007481961FFF7B1FF0020B1
:1014D00038BD6FF0010038BD4FF0FF3038BD00BFA0
:1014E000500C0020700C00200000000000000000E4
:1014F00038B50F4B1A7DA2B91969A9B1DA685C68D1
:1015000015680432A242DA6001F1FF31056028BF9C
:101510001A68084828BFDA601961FFF789FF0020C0
:1015200038BD6FF0010038BD4FF0FF3038BD00BF4F
:10153000500C0020680C002000000000000000009B
:1015400038B5036898420CD004466FF001051A685C
:101550002260184654605D62FFF752FF2368A34281
:10156000F5D138BD000000000000000000000000C0
:10157000074B1A689A4209D0116810B400244B60D6
:1015800019605462104610BCFFF73ABF704700BFA5
:10159000040C00200000000000000000000000001B
:1015A000436B90F8202019430A2A416309D00B2A83
:1015B00000D07047436A8B43FBD100234362FFF79F
:1015C0001FBF436A1942F8D1704700BF00000000F6
:1015D00070B50468A0420FD006460D46E3682B4361
:1015E000E36015B123691D4203D0D4E90101FFF77F
:1015F000D7FF2468A642F1D170BD00BF00000000F3
:10160000124B30B404689D69C368AB63844218D040
:101610000146E86B4BB11A68934203D0926890423E
:1016200038BF1046DB68002BF5D1A26B2368A86099
:101630000B6020465960C1E90242A16330BCFFF74C
:10164000DFBE0023A36030BC704700BFA00D0020A8
:1016500083680133002B836000DD704703681A68DC
:1016600002600021506018465962FFF7C9BE00BFF2
:1016700003682BB10022026018465962FFF7C0BE12
:10168000704700BF000000000000000000000000E4
:101690001B4BDA69824210B40FD0D0E900210A60F6
:1016A00002681C3300249A425160C46003D08168F0
:1016B00093680B44936010BC70471846116840F85B
:1016C0001C1F002481424860D46014D094688A684A
:1016D0009B6A14444FF080428C60526AD21A944242
:1016E000E9D9A11A012998BF941C4FF080422344E4
:1016F000536310BC70474FF08043DC60DBE700BFF2
:10170000A00D00200000000000000000000000000C
:10171000F0B41F4D2E46022956F81C4FC2604FF000
:10172000804738BF0221B44203617A6A1FD0AE6A93
:10173000A368921B891816D28B4226D8994204D9E5
:101740002468C91AA3688B42FAD36368C0E90043CE
:10175000186060608160A3684FF0FF32591AA16081
:101760006A62F0BC70472468C91AA368E6E7AA62F7
:101770008E1802230022C5E90700C0E900448160F9
:101780007E633A61FB60F0BC70470E447E63D5E730
:10179000A00D00200000000000000000000000007C
:1017A000EFF30583202383F31188704700000000C6
:1017B000C20710B412D5294BD3E90014994241D085
:1017C00000220968994202F10102FAD18C4236D016
:1017D00064689C4202F1FF32FAD182BB830713D5C1
:1017E0001E4CD4E907211C34A2422FD000231268DA
:1017F000A24203F10103FAD1914220D04968A142EB
:1018000003F1FF33FAD1D3B910F0040015D0134B14
:10181000D3E904219A424FF000001BD012699A428A
:1018200000F10100FAD1914209D04969994200F1D1
:10183000FF30FAD1003018BF012010BC70470120E2
:1018400010BC70479C42C9D00022C1E7A142DBD046
:101850000023D3E79142E8D1EFE700BFA00D0020BD
:1018600070B5244D01202860202484F31188FFF7EF
:101870009FFF002383F3118880F00100C0B21E494E
:10188000FFF706FA00B170BD06460220286084F317
:101890001188FFF78DFF86F3118880F00100C0B238
:1018A0001649FFF7F5F906460028ECD103232B6013
:1018B00084F311880420FFF77BFF86F3118880F002
:1018C0000100C0B20E49FFF7E3F906460028DAD15D
:1018D00004232B6084F311880820FFF769FF86F347
:1018E000118880F00100C0B20649BDE87040FFF7E2
:1018F000CFB900BF7417002030AC000848AC000816
:101900006CAC000888AC000800000000000000007B
:10191000FEE700BF00000000000000000000000023
:1019200000207047000000000000000000000000E0
:1019300070B5334D334C344801232B60FFF7A8FAC0
:101940007820FFF705FA2046FFF782FA02232F4896
:101950002B60FFF79DFA4420FFF7FAF92046FFF7C6
:1019600077FA03232A482B60FFF792FA1420FFF737
:10197000EFF92046FFF76CFA042626482E60FFF7A1
:1019800087FA0C20FFF7E4F92046FFF761FA0523F8
:1019900021482B60FFF77CFA1020FFF7D9F9204689
:1019A000FFF756FA06231D482B60FFF771FA08204F
:1019B000FFF7CEF92046FFF74BFA072318482B60B4
:1019C000FFF766FA3046FFF7C3F92046FFF740FA03
:1019D000082314482B60FFF75BFA1420FFF7B8F9CF
:1019E0002046FFF735FA09230F482B60FFF750FA1E
:1019F0002820FFF7ADF92046BDE87040FFF728BA70
:101A000074170020DCB20008CCB20008E4B2000871
:101A1000F4B2000804B3000814B3000824B30008AB
:101A200034B3000844B3000854B3000800000000B9
:101A300038B5C94BC94CCA4801251D60FFF728FAC3
:101A40002020FFF785F92046FFF702FAC548FFF787
:101A50001FFA42F21070FFF77BF92046FFF7F8F902
:101A6000C148FFF715FA2020FFF772F92046FFF76B
:101A7000EFF9BE48FFF70CFA2020FFF769F920467E
:101A8000FFF7E6F9BA48FFF703FA0220FFF760F91B
:101A90002046FFF7DDF9B748FFF7FAF90020FFF716
:101AA00087F92046FFF7D4F9B348FFF7F1F9002092
:101AB000FFF77EF92046FFF7CBF9B048FFF7E8F9CA
:101AC0000020FFF775F92046FFF7C2F9AC48FFF791
:101AD000DFF92846FFF73CF92046FFF7B9F9A94896
:101AE000FFF7D6F92846FFF733F92046FFF7B0F99C
:101AF000A548FFF7CDF92846FFF72AF92046FFF75A
:101B0000A7F9A248FFF7C4F92846FFF721F92046B4
:101B1000FFF79EF99E48FFF7BBF92846FFF718F933
:101B20002046FFF795F99B48FFF7B2F90020FFF731
:101B30003FF92046FFF78CF99748FFF7A9F92846A7
:101B4000FFF706F92046FFF783F99448FFF7A0F95D
:101B50000020FFF72DF92046FFF77AF99048FFF7AC
:101B600097F92846FFF7F4F82046FFF771F98D48FA
:101B7000FFF78EF92846FFF7EBF82046FFF768F9E4
:101B80008948FFF785F92846FFF7E2F82046FFF776
:101B90005FF98648FFF77CF92846FFF7D9F8204619
:101BA000FFF756F98248FFF773F92846FFF7D0F898
:101BB0002046FFF74DF97F48FFF76AF90020FFF74D
:101BC000F7F82046FFF744F97B48FFF761F928460C
:101BD000FFF7BEF82046FFF73BF97848FFF758F9C2
:101BE0002846FFF7B5F82046FFF732F97448FFF7AB
:101BF0004FF92846FFF7ACF82046FFF729F971485E
:101C0000FFF746F92846FFF7A3F82046FFF720F92B
:101C10006D48FFF73DF92846FFF79AF82046FFF791
:101C200017F96A48FFF734F92846FFF791F820467C
:101C3000FFF70EF96648FFF72BF92846FFF788F8FB
:101C40002046FFF705F96348FFF722F90820FFF760
:101C50007FF82046FFF7FCF85F48FFF719F92846A0
:101C6000FFF776F82046FFF7F3F85C48FFF710F926
:101C70002846FFF76DF82046FFF7EAF85848FFF7C7
:101C800007F92846FFF764F82046FFF7E1F85548C2
:101C9000FFF7FEF82846FFF75BF82046FFF7D8F875
:101CA0005148FFF7F5F82846FFF752F82046FFF7AE
:101CB000CFF84E48FFF7ECF80020FFF779F8204600
:101CC000FFF7C6F84A48FFF7E3F80020FFF770F87F
:101CD0002046FFF7BDF84748FFF7DAF80020FFF786
:101CE00067F82046FFF7B4F84348FFF7D1F8002023
:101CF000FFF75EF82046FFF7ABF84048FFF7C8F85B
:101D0000FF20FFF725F82046FFF7A2F83C48FFF731
:101D1000BFF88020FFF71CF82046FFF799F83948F4
:101D2000FFF7B6F80020FFF743F82046FFF790F8DA
:101D30003548FFF7ADF80020FFF73AF82046FFF7E7
:101D400087F83248FFF7A4F80020FFF731F8204663
:101D5000BDE83840FFF77CB874170020049C0008E9
:101D600090A40008BCA40008E8A4000814A500087A
:101D700040A500086CA5000898A50008C4A50008A7
:101D8000F0A500081CA6000848A6000874A60008D4
:101D9000A0A60008CCA60008F8A6000824A7000802
:101DA00050A700087CA70008A8A70008D4A700082F
:101DB00000A800082CA8000858A8000884A800085B
:101DC000B0A80008DCA8000808A9000834A9000889
:101DD00060A900088CA90008B8A90008E4A90008B7
:101DE00010AA00083CAA000868AA000894AA0008E3
:101DF000C0AA0008ECAA000818AB000844AB000811
:101E000070AB00089CAB0008C8AB0008F4AB00083E
:101E100038B5194B19481A4C01251D60FFF718F801
:101E20001848FFF735F82846FEF792FF2046FFF7DF
:101E30000FF81548FFF72CF81448FFF709F8144875
:101E4000FFF726F80620FEF783FF2046FFF700F88D
:101E50001048FFF71DF80020FEF7AAFF2046FEF706
:101E6000F7FF0D48FFF714F82846FEF771FF2046EC
:101E7000BDE83840FEF7ECBF7417002068A30008E7
:101E8000049C00089CA30008C8A30008F4A3000851
:101E9000FCA3000828A4000854A4000800000000C7
:101EA0001C4B1D4810B501221A60FEF7F1FF1B48BC
:101EB0001B4CFEF7CDFF1B48FEF7EAFF1A48FEF762
:101EC000C7FF1A48FEF7E4FF1948FEF7C1FF19489B
:101ED000FEF7DEFF1848FEF7BBFF1848FEF7D8FFF5
:101EE0000420FEF735FF2046FEF7B2FF1448FEF748
:101EF000CFFF0820FEF72CFF2046FEF7A9FF114870
:101F0000FEF7C6FF0820FEF723FF2046BDE810407D
:101F1000FEF79EBF74170020ACA10008D8A10008EE
:101F2000049C0008E4A1000810A200081CA20008FC
:101F300048A2000890A20008BCA20008D4A2000891
:101F400000A300082CA3000800000000000000000F
:101F500070B50E46F0B1044630601149204607F0D6
:101F600081FC215C222904EB00050DD00C49284698
:101F700007F056FC306018B1421C00233260037039
:101F80002B7853B1284670BD0135284607F056FB23
:101F90003060F0E70C68002CDFD10025284670BDCA
:101FA00004A1000800000000000000000000000084
:101FB0000EB42DE9F04F86B00FAF044657F8046B0E
:101FC00002974FF000083178721C61B1252910D0BA
:101FD00023681646DB6820469847317808F10108E7
:101FE000721C0029F2D1404606B0BDE8F04F03B0A4
:101FF000704771782D2903BFB178B21C4FF0010CE6
:102000004FF0000C302903BF517801324FF0300AF5
:102010004FF0200A0132002505E03B78043712F822
:10202000011B03EB4005A1F13003DBB2092B9646FF
:1020300005EB8500F3D92A29EFD02E294FF00002B5
:1020400048D001F0DF034C2B0EF101064ED0A1F178
:102050004103A1F14400DBB2342800F21681DFE82D
:1020600010F065011401140114011401650114013B
:1020700014011401140114011001140114011401BC
:1020800014011401E100140114016E011401140182
:102090001401140114011401140114011401140198
:1020A0008F0065011401140114011401650114016C
:1020B000140114011401140110011401140114017C
:1020C0006D001401E100140114016E013B78043726
:1020D00003EB40021EF8011BA1F13003DBB2092B18
:1020E00002EB8200F4D92A29F0D0AAE79EF800304A
:1020F0000BB3A3F14401342900F2C980DFE801F0F9
:10210000D7C7C7C7C7D7C7C7C7C7C7C2C7C7C7C744
:10211000C793C7C7D4C7C7C7C7C7C7C7C7C7C741FC
:10212000D7C7C7C7C7D7C7C7C7C7C7C2C7C7C71FCC
:10213000C793C7C7D4000B467646DAE77646D7F88A
:1021400000900437B9F1000F00F0FD8099F80030DD
:102150004846002A40F0FE80002B00F00C8147F634
:10216000FE724B4601E0013A03D413F8011F002927
:10217000F9D11B1AED1A013B00934FF0200A0BE036
:1021800076460DF118093B6809F80C3D0023013D26
:10219000043700934FF0200A002D1EDBBCF1000F26
:1021A0007ED16B42002D7AD099F8001022682D293B
:1021B000D26800F0A8809B4601E02368DA685146A7
:1021C000204690471BF1010BF7D1009A002A5B468D
:1021D000A844FFF6F8AE1D4604E0009B002BFFF676
:1021E000F2AE0025DDF800B0236819F8011BDB68AA
:1021F0000BF1FF3B20469847BBF1FF3FF4D1009B1A
:1022000008F1010843449846002D3FF4DCAEA9468E
:1022100023685146DB6820469847B9F10109F7D198
:10222000A844D0E676464FF00A0957F8042B0DF182
:10223000170100E00146B2FBF9FE09FB1E2202F184
:102240003003392BC8BF02F13703DBB2724601F805
:10225000013C481E002AEDD10DF11702A2EB000B44
:102260000DF10C094A46584401E011F8013B02F80F
:10227000013B8142F9D10BF1FF33A5EB0B05009334
:102280008AE776464FF00809CFE776460B460DF110
:102290001809013D09F80C3D002300937CE71D4619
:1022A000009B002B9EDAAFE74FF01009BDE7391D08
:1022B0003A680F46002A55DB0DF10C09484600F13B
:1022C0000B03009319462F4BA3FB02E3DB0803EB40
:1022D000830B9E46A2EB4B033033DBB2724601F810
:1022E000013D002AEFD1009A521A024401E011F890
:1022F000013F00F8013B9042F9D1A0EB0900431ED9
:102300002D1A009348E7BAF1300F7FF454AF2046FE
:1023100001939047009B2268013B0093019BD26888
:1023200008F1010809F101099B4648E73946192BD4
:1023300051F8042B764688BF0F46BBD8B8E77646DF
:102340004FF0100971E710488146002A3FF407AFAB
:10235000013A06E7002BFBD14FF0FF3300934FF01B
:10236000200A19E72D2352428DF80C300DF10D0093
:102370000DF10C09A3E74FF0FF3300934FF0200A53
:102380000CE700BFCDCCCCCCD899000800000000F1
:10239000224B70B51C78CCB906460D462048116812
:1023A0001446FEF741F880B9032D0EDC65681D4820
:1023B000A4682946FEF738F868B921461A48FEF79E
:1023C00033F81A4B0422C0B95A8370BD1849BDE8CE
:1023D0007040FFF7EDBD29461648FEF725F870B1AD
:1023E00029461548FEF720F890B921460E48FEF719
:1023F0001BF80E4B02220028E6D01A8370BD21463E
:102400000948FEF711F8094B01220028F5D1DBE756
:1024100030460A49BDE87040FFF7CABDE00F002012
:10242000D89B0008DC9B0008E49B000800080240E1
:10243000089C0008E89B0008EC9B0008F49B00083F
:10244000002918DC70B504460C4E0D4D02E03368CF
:102450005B689847236800219B69204698470130B4
:102460004FF4806229460548F1D020460549BDE871
:102470007040FFF79DBD0449FFF79ABD140D002081
:10248000000800209C9C0008AC9C00080000000094
:10249000002903DD074A0849FFF78ABD202383F39B
:1024A00011884FF080420023526A83F31188034958
:1024B000FFF77EBD989B0008A09B0008AC9B00081E
:1024C000012903D0034A0449FFF772BD126803498A
:1024D000FFF76EBDE0990008A09B0008F099000886
:1024E000002903DD194A1A49FFF762BD10B5194AE0
:1024F000194982B00446FFF75BFD184A1849204687
:10250000FFF756FD174A18492046FFF751FD174AB5
:1025100017492046FFF74CFD164A17492046FFF79A
:1025200047FD164A16492046FFF742FD154A16494F
:102530002046FFF73DFD154B00932046144B154AEE
:102540001549FFF735FD02B010BD00BFF89900082E
:10255000A09B0008F4A30008009A000848A2000805
:10256000149A0008D8A10008289A000810A20008B0
:102570003C9A0008BCA20008509A0008649A00081F
:10258000909A0008A49A0008D09A00080C9B0008B2
:10259000E49A0008E89A0008F49A00080000000095
:1025A00070B50C68A14212D00D46064602E02468C0
:1025B000A5420CD008223146A01807F0B3F8002835
:1025C000F5D12CB1636801336360204670BD0024EF
:1025D000204670BD00000000000000000000000068
:1025E000F8B50C68A1420D460646174603D10DE02A
:1025F0002468A5420AD008223146A01807F092F8B4
:102600000028F5D114B104462046F8BD3846FEF73F
:102610000FFD044648B108221044314607F0CEF8B9
:102620002B680122C4E900322C602046F8BD00BFAF
:1026300038B5202383F31188124A1068946983689F
:10264000A1688B4203D2002383F3118838BD03684D
:1026500013605A6001259061002280F8205084F8B0
:10266000202000E01B689A689142FBD95A682146F5
:10267000C4E9003214605C60FDF722FE002383F39E
:10268000118838BDA00D00200000000000000000EF
:1026900038B5094D0446FFF7CBFFFFF7C9FFFFF739
:1026A000C7FFFFF7C5FF2368AA690433236092F8C8
:1026B00021305B07EFD538BDA00D002000000000E1
:1026C000164B70B49E6985680446B06861628542A5
:1026D0004FF000020CD884F820201B689A689542BD
:1026E000FBD95A68C4E9003214605C6070BC704762
:1026F00086F820201A46126891688842FBD95168F2
:102700007160012032600E60566084F8200031460E
:1027100020469C6170BCFDF7D3BD00BFA00D00201A
:1027200008B5202383F31188064B1868984205D01A
:1027300002681A6053600021FFF7C2FF002383F391
:10274000118808BD040C00200000000000000000FB
:10275000F0B5144D87B0074628460E461446FEF7DE
:1027600067FCE0B16B68104A009703440293019044
:10277000039605940492202383F311886846FEF79C
:10278000C7FD022380F82130056400210446FFF7CD
:1027900097FF002383F31188204607B0F0BD04465D
:1027A000FAE700BF10100020410E000800000000F2
:1027B00008B5202383F3118883680133002B8360DD
:1027C00003DD002383F3118808BD03460068026817
:1027D0001A6000215360FFF773FF002383F3118811
:1027E00008BD00BF00000000000000000000000065
:1027F000F8B5069D202484F3118848394418164EF4
:102800002661E061A4F12400716944F8243C44F895
:10281000205CE060022501231048A260E263258469
:1028200084F8223004F1280204F12C0300250C4F17
:1028300044F8047CC4E90510C4E90D5520460C6138
:10284000C4E90A23236329467461FFF739FF85F33E
:1028500011882046F8BD00BFA00D0020B8990008DF
:10286000D10200080000000000000000000000008D
:10287000F0B583B01468164E164B1748002200922C
:102880004FF4E471012581223570FFF7B1FF214635
:1028900007461248FDF7C8FD20B121461048FDF754
:1028A000C3FD08B103B0F0BD202383F3118897F86E
:1028B000213043F0040387F8213080F31188094B5D
:1028C00030700221042219831D831A8303B0F0BDE6
:1028D000E00F0020513B000898190020E49B0008FD
:1028E000949B000800080240000000000000000067
:1028F000084B99691A6810B481F8200010681860B4
:102900000124436082F82040104610BC9A61FDF714
:10291000D7BC00BFA00D0020000000000000000098
:102920000B4A10B52023946983F31188636B33B984
:102930004FF0FF3363620A20FFF7DAFF636B584200
:10294000184023EA00036363002383F3118810BD5A
:10295000A00D0020000000000000000000000000AA
:10296000094A10B52023946983F31188606B30B94C
:102970004FF0FF330A206362FFF7BAFF606B00235A
:10298000636383F3118810BDA00D002000000000D8
:102990000C4A10B52023946983F31188636B03F00C
:1029A0000502052A05D0052363620B20FFF7A0FF6F
:1029B000636B23F005036363002383F31188052011
:1029C00010BD00BFA00D00200000000000000000AE
:1029D000074A10B52023946983F311880320FFF779
:1029E00087FF636A002BF9D0002383F3118810BDA1
:1029F000A00D00200000000000000000000000000A
:102A000030B54B1C87B012D00C4C0D4AA36905465B
:102A100001A8FEF77DFE2846FFF76AFF049B13B16D
:102A200001A8FEF735FEA369586A07B030BD034C14
:102A3000FFF75EFFA369586A07B030BDA00D002004
:102A400091130008000000000000000000000000DA
:102A5000202383F31188104B99684A1E002A9A603C
:102A600004DB0020002383F31188704780B10B4AF8
:102A700010B592695C685362C2E900340146226075
:102A800005205A60FFF7BCFF002383F3118810BDB7
:102A900099604FF0FF30E5E740100020A00D0020C6
:102AA00010B5202383F31188154CA268531E002B08
:102AB000A36007DBE068B0B10368E360002383F341
:102AC000118810BDC8B10F4B62689B690146C3E90C
:102AD00000425C62052013606360FFF791FF0028ED
:102AE000E8D00020EAE7A369002BFAD0D4E904017A
:102AF0009847002383F3118810BDA260DEE700BF72
:102B0000140C0020A00D00200000000000000000B8
:102B100008B5074B01224FF47A701A60FFF7C0FF27
:102B2000B0FA80F040090349BDE80840FEF7B0B8AC
:102B3000741700208C9E00080000000000000000B8
:102B400070B5574D574C01202860A269202383F3AC
:102B50001188536B33B983F311885349FEF798F802
:102B600080B170BD5842184023EA0003536300232C
:102B700083F31188B0FA80F040094B49FEF788F8DA
:102B80000028EED1A369202282F311885A6B002A13
:102B900072D0586380F311884349FEF779F8002812
:102BA000DFD1A369202282F311885A6B013267D0EA
:102BB00080F3118801203C49FEF76AF80028D0D143
:102BC00002232B60A669202383F31188756B55B906
:102BD0004FF0FF3373624FF4FA710A20FFF710FFD2
:102BE000002851DB756B6842284025EA00057563B3
:102BF000002383F31188B0FA80F040092A49FEF7D8
:102C000047F80028ADD1A669202383F31188756B9E
:102C100055B94FF0FF3373624FF4FA710A20FFF792
:102C2000EFFE002834DB756B0023736383F3118898
:102C3000B5FA85F040091C49FEF72AF80546002838
:102C40008FD1A469202383F31188636B013309D0EA
:102C50004FF0FF3363624FF4FA710B20FFF7D0FEA1
:102C6000002819DB0023636383F3118828460E498B
:102C7000BDE87040FEF70CB882F3118801208BE7A5
:102C8000586380F3118896E785F311880120B5E732
:102C900085F311880120CEE785F311880125E5E74A
:102CA00074170020A00D002070B000080000000084
:102CB00061B1084B10B4024644689B690420C3E923
:102CC00000242360536010BCFFF79ABE4FF0FF3022
:102CD000704700BFA00D00200000000000000000B1
:102CE0002DE9F04F85B0CDE90232D0F81C904FF0BD
:102CF000200A8AF311883AB304460F4616464FF06D
:102D0000000BA2689642D4E904208CBFA568354622
:102D1000A2EB0008A84540D82BD32A463946FDF738
:102D2000E3FAE2686261A268521BA2609DB1B9F148
:102D3000000F01D02046C8478BF31188761B2F4423
:102D40008AF31188002EDCD10398002383F31188C5
:102D500005B0BDE8F08F02992046FFF7A9FF0028D3
:102D6000CFD0039B981B002383F3118805B0BDE8E7
:102D7000F08FA5EB0803424639460193FDF7B4FAFC
:102D800007EB0801DDF80480E0684246FDF7ACFA85
:102D9000E2684346D3186361C5E72A463946FDF722
:102DA000A3FA62692A446261BDE700BF0000000027
:102DB0003030FFF795BF00BF0000000000000000AA
:102DC00030304FF0FF33FFF78BBF00BF0000000033
:102DD000F8B504460F461646202383F3118803E016
:102DE000FFF766FF002818DBA56831462046002D56
:102DF000F6D06269A368511C013B6161A360177042
:102E0000D4E904329A4224BFE3686361E36903B101
:102E10009847002080F31188F8BD85F31188F8BD2C
:102E20003030FFF7D5BF00BF0000000000000000F9
:102E300030304FF0FF32FFF7CBBF00BF0000000083
:102E40002DE9F04F85B0CDE90232D0F81C904FF05B
:102E5000200A8AF311883AB304460F4616464FF00B
:102E6000000BA268A169964222698CBFA56835460D
:102E7000A2EB0108A84540D82BD32A463846FDF7D7
:102E800033FAE268A261A268521BA2609DB1B9F157
:102E9000000F01D02046C8478BF31188761B2F44C2
:102EA0008AF31188002EDCD10398002383F3118864
:102EB00005B0BDE8F08F02992046FFF7F9FE002823
:102EC000CFD0039B981B002383F3118805B0BDE886
:102ED000F08FA5EB0803424638460193FDF704FA4C
:102EE00007EB0800DDF80480E1684246FDF7FCF9D5
:102EF000E2684346D318A361C5E72A463846FDF782
:102F0000F3F9A2692A44A261BDE700BF00000000F6
:102F10000C30FFF795BF00BF00000000000000006C
:102F20000C304FF0FF33FFF78BBF00BF00000000F5
:102F300070B5202304460E4683F3118803E0FFF7A3
:102F4000B7FE00281ADBA56831462046002DF6D0D2
:102F5000A169A36820694A1C013B8242A360A26167
:102F600028BFE3680D7828BFA361E3690BB1204651
:102F70009847002383F31188284670BD85F3118894
:102F800070BD00BF00000000000000000000000055
:102F90000C30FFF7CDBF00BF0000000000000000B4
:102FA0000C304FF0FF31FFF7C3BF00BF000000003F
:102FB00008B50146202383F311880820FFF720FD80
:102FC000002383F3118808BD00000000000000000A
:102FD00008B5074B074A9B69074C9A61636983F000
:102FE0002003636141F28830FFF7E2FFF6E700BF9C
:102FF000A00D00209898000800000240000000008A
:1030000070B52B4E01234FF0804533606C6A64200D
:10301000FFF7CEFF04F1670104F16400FDF710FC37
:1030200000B170BD022333606C6A4FF47A70FFF711
:10303000BFFF04F2EB3104F57A70FDF701FC0028C4
:10304000EFD1032333606C6A4FF47A70FFF7B0FF5F
:1030500004F2EB3104F57A70FDF7F2FB0028E0D1C1
:10306000042333606C6A42F21070FFF7A1FF04F58D
:103070001C51084610301331FDF7E2FB0028D0D177
:10308000052333606E6A202306F1640483F31188FC
:10309000696A611A02D00820FFF7B2FC002383F3AB
:1030A000118806F167012046BDE87040FDF7C8BBF6
:1030B0007417002000000000000000000000000065
:1030C00008B50120FFF774FF202383F311884FF028
:1030D00080420023506A83F3118808BD000000007D
:1030E0002DE9F84FDFF890B01E4F1F4E1F4D012302
:1030F000CBF80030FFF7E4FF0024A24681464FF0F2
:10310000200888F3118800233A4630460121FEF753
:10311000FFFA3A46002342F210712846FEF7F8FA09
:103120003046FEF7B5FA2846FEF7B2FA8AF3118860
:103130004FF0804342F20F725B6AA3EB09039342A4
:1031400004F10104DDD902230948CBF80030FDF772
:103150009FFE6000FDF72CFE0648BDE8F84FFDF726
:1031600077BE00BFA10A0008A4170020B8170020EE
:1031700060B2000870B20008741700200000000060
:103180002DE9F04F9D4C8946206083B09C48FDF7A7
:103190005FFED9F80030002B00F08681994D2A217E
:1031A00020680368DB68984715F8011F0029F7D1EC
:1031B000D9F80000FDF74CFE9348944DFDF748FE0A
:1031C0002A2120680368DB68984715F8011F002949
:1031D000F7D18F488F4DFDF73BFE2A212068036809
:1031E000DB68984715F8011F0029F7D18A488B4DF5
:1031F000FDF72EFE2A2120680368DB68984715F842
:10320000011F0029F7D186480191FDF721FE7C4876
:10321000844FFDF71DFE844B01991970D9F80430D5
:103220008B4653F82B304FEA8B06002B00F01A81A7
:103230004C25206803683D21DB689847013DF8D1A3
:1032400020687A4903687A4D5B68022298473D21DD
:1032500020680368DB68984715F8011F0029F7D13B
:103260000BF1010B5846734DFDF7A2FD202120689C
:103270000368DB68984715F8011F0029F7D1D9F8D2
:1032800004309B591D68297839B120680368DB68D0
:10329000984715F8011F0029F7D16748FDF7D8FDB9
:1032A0000025D9F804309A59526852F825204FEA7F
:1032B0008508002AB5D0DFF898A1FDF751FE2D2131
:1032C00020680368DB6898471AF8011F0029F7D1C6
:1032D0005846FDF76DFD2068DFF858A103682E21E0
:1032E000DB68013598472846FDF762FD20212068FC
:1032F0000368DB6898471AF8011F0029F7D1D9F84D
:1033000004309B595B6853F80830D3F800A09AF852
:10331000001039B120680368DB6898471AF8011F6C
:103320000029F7D14448DFF82CA1FDF791FD4FF4B7
:10333000FA60FFF73DFED9F80430404A9B593A60E5
:103340005B6853F80880D8F8043000228AF800201F
:1033500003B19847D8F80C309847D8F8083003B133
:1033600098479AF80030002B44D0DFF8EC802D21EC
:1033700020680368DB68984718F8011F0029F7D117
:103380002F4BDFF8D8801868FDF712FD2021206848
:103390000368DB68984718F8011F0029F7D13B68DC
:1033A000264A934209D99046206818F8011B036801
:1033B000DB6898473B689845F6D3DFF8A4805D2129
:1033C00020680368DB68984718F8011F0029F7D1C7
:1033D0001C4BD3F8008098F8001039B120680368BE
:1033E000DB68984718F8011F0029F7D11648FDF748
:1033F0002FFD56E71548FDF72BFD52E7C8160020B4
:10340000049C00088CBF000838C0000894BF000866
:103410003CC00008A8BF0008649A0008BCBF0008B0
:10342000A49A000888170020D0160020B89C000835
:10343000D0BF0008E4BF000854C00008781700207F
:1034400074170020CC16002058C000085CC000088B
:10345000E8BF000870170020F8BF000810C000087F
:1034600014C00008FDF77CFD114D1248FDF7F0FC7B
:10347000462120680368DB68984715F8011F00297A
:10348000F7D10D4B1B783BB90C48FDF7E1FC0A4B1B
:10349000187803B0BDE8F08F0948FDF7D9FC064B5A
:1034A000187803B0BDE8F08F0648FDF7D1FC83E63D
:1034B00018C00008049C0008D016002068C000084E
:1034C00070C0000828C000080000000000000000D4
:1034D0000149FFF755BE00BF94B40008000000008A
:1034E0000149FFF74DBE00BFE4A000080000000046
:1034F00010B5202383F311880C4CA269134653F8AE
:103500002C0F984209D00168D1620D224B60002334
:1035100080F8202083F3118810BD0E20FFF7E8F912
:10352000A269D06A02F12C03EDE700BFA00D0020D4
:1035300070B520260025FFF7DBFF446A86F311886B
:103540002146FFF7BDF885F31188002CF3D170BD3B
:103550000E4B10B520229C6982F311886162026BC8
:10356000626000F12C012160146090F82020046357
:103570000E2A07D00C20FFF7BBF9606A002383F303
:10358000118810BDFDF73CFFF4E700BFA00D00203F
:103590002DE9F0410546FFF793FD002480464FF0EA
:1035A000804742F20F7601212846FFF7D1FF7B6A60
:1035B000A3EB0803B34204F10104F4D92846002127
:1035C000FFF7C6FF2046BDE8F08100BF0000000005
:1035D00010B541210446FFF7BBFF20464221FFF70B
:1035E000B7FF20464321FFF7B3FF20464421BDE843
:1035F0001040FFF7ADBF00BF00000000000000005A
:10360000F8B5374A83689569002B40D0A9689A6855
:103610009142044607D993F820209960062A3BD0AE
:10362000072A15D042B32646234603E09968AA68C4
:1036300091422AD31B689C42F8D173680620C5E9E1
:1036400000631D6075606C62BDE8F840FFF750B91B
:10365000D3E9000210605E6A18684260324602E0F8
:103660009068884232D312689642F9D17268C3E9F1
:10367000006213607360D6E7D3E900121160196825
:1036800018464A60FDF7BCFECDE71E46D5E7AB6B9A
:10369000C0E90253A863F8BDD3E9000210605E6A76
:1036A000186837464260324602E09068884214D378
:1036B00012689642F9D17A68A968C3E9007213606A
:1036C0007B60B3689A688A42A5D3ACE716467268F5
:1036D000C3E9006213607360A5E71746EBE700BF1C
:1036E000A00D00200000000000000000000000000D
:1036F00008B5202383F31188FFF782FF002383F3AB
:10370000118808BD0000000000000000000000005B
:10371000202383F311888368013B002B836004DB43
:103720000020002383F31188704710B5084CA2696C
:10373000506241680346C2E900010A6005205A60F0
:10374000FFF7D6F8A369586A002383F3118810BDE8
:10375000A00D00200000000000000000000000009C
:103760002DE9F843DFF880901C4C0123C9F80030A4
:10377000FFF7A6FC002580464FF0804742F20F7607
:103780002046FFF7C5FF2046FFF712F82046FFF757
:10379000BFFF2046FFF70CF82046FFF7B9FF204691
:1037A000FFF706F82046FFF7B3FF2046FFF700F8C3
:1037B0007B6AA3EB0803B34205F10105E0D90223BC
:1037C0000748C9F80030FDF763FBA800FDF7F0FAE1
:1037D0000448BDE8F843FDF73BBB00BF4C10002098
:1037E00060B200088CB200087417002000000000CE
:1037F00038B5084CA36993F821305A0708D4064D10
:103800002846FFF785FFA36993F821305B07F7D5BA
:1038100038BD00BFA00D00204C10002000000000AB
:1038200010B5044C2046FFF773FF2046BDE810405A
:10383000FEF7BEBF401000200000000000000000A6
:1038400010B504460348FFF763FF2078BDE8104039
:10385000FDF7BEBA4010002000000000000000008C
:1038600038B5104B9C69A36A606204F12805AB422D
:1038700007D01A68A2621846FDF7C2FDA36AAB42E0
:10388000F7D194F8223043B994F821309B0704D142
:10389000D4E904231A61226953610F20BDE838403E
:1038A000FFF726B8A00D0020000000000000000077
:1038B0002DE9F04FD0E900737849DFF81892DFF86E
:1038C00018A29BB0804638468B460193FEF770FBEA
:1038D00038467349FEF76CFBD9F8183093F821305D
:1038E0005B0700F1838051463846FEF761FBD8F84C
:1038F00000400AAE2268354693680DF10F0101229F
:1039000020469847002869D09DF80F30042B61D0DD
:10391000082B0DF1670C12D07F2B194620460ED0D4
:103920000D2B21D01F2B2268E6D96545E4D2D36840
:1039300098479DF80F302B7022680135DCE7B542BF
:103940004FF0080120462268D6D0D36898472368F4
:103950002021DB682046984723680821DB68204641
:103960009847013D2268C7E759460024FEF720FB2F
:10397000304604A92C70FEF7EBFA04A90646002095
:1039800005ADFEF7E5FA50B1042C1CD045F8040B48
:1039900004A900200134FEF7DBFA0028F4D11AABA9
:1039A00003EB840343F8540C002E95D03D49304678
:1039B000FCF73AFD38BB002C36D03A4A3A49384633
:1039C000FEF7F6FA88E739493846FEF7F1FA0023A0
:1039D000099381E720463649FEF7EAFA2F4938462F
:1039E000FEF7E6FA38463349FEF7E2FA202383F37E
:1039F000118800213048FDF7EBFD0020FFF730FF74
:103A00001BB0BDE8F08F2D4D2D4802E055F8080F92
:103A100058B33146FCF708FD0028F7D16B6805AABA
:103A200021463846984757E72649244C264D3846C4
:103A3000FEF7BEFA224A29463846FEF7B9FA54F88C
:103A4000082F002AF7D1019C54B1226842B11E4DC3
:103A500029463846FEF7ACFA54F8082F002AF7D169
:103A600059463846FEF7A4FA36E7019D5DB128684D
:103A700018B908E055F8080F28B13146FCF7D4FC16
:103A80000028F7D1CAE7324610493846FEF790FAC7
:103A90000F493846FEF78CFA1EE700BFB89C0008B5
:103AA000D0B4000810B50008A09B0008F8B40008C6
:103AB000ECB40008F0B400085810002040B500082D
:103AC000C8B4000818B5000828B500082CB50008CF
:103AD00030B50008A00D0020E4B40008000000008C
:103AE000002903DD084A0949FEF762BA08B5202318
:103AF00083F3118806480021FDF76AFD0020BDE828
:103B00000840FFF7ADBE00BFC8B40008A09B000886
:103B1000581000200000000000000000000000001D
:103B2000EFF30983203383F30988002383F311889B
:103B3000704700BF0000000000000000000000000F
:103B4000202383F31188FFF78BBE00BF0000000025
:103B50002DE9F041164F174CBB69174A9A610121B4
:103B60000422022621832683228393F821305A07D8
:103B700018D4B0464EF660200125A4F81A80FFF74D
:103B800017FA47F230506583FFF712FA26834EF694
:103B90006020FFF70DFABB692583668393F8213017
:103BA0005B07E7D50020BDE8F041FFF7C9BF00BFC4
:103BB000A00D002000080240A898000800000000A6
:103BC000FFF7BEBF00000000000000000000000082
:103BD0000E4A1068036830B4012194695A600025C8
:103BE00080F82010A1681360906184F8205000E0F4
:103BF0001B689A689142FBD35A682146C4E9003297
:103C000014605C6030BCFCF75BBB00BFA00D002003
:103C1000044B1A689B6992689B689A4200D8704767
:103C2000FFF7D6BFA00D002000000000000000003C
:103C300038B5202383F31188154CA3680133002B7A
:103C4000A3601ADD013B002BA36006DBFFF7E0FF5A
:103C50000020002383F3118838BD0E4A63689569FC
:103C60000520C5E900431D606C626560FEF740FEFB
:103C7000686A002383F3118838BD206803682360D5
:103C80005C60FDF7BDFB0022A3684262DAE700BF7B
:103C900040100020A00D00200000000000000000E7
:103CA00030B5214B214D9A6921489268214B224C15
:103CB00083B0012129600021013200914FF4A471E9
:103CC000FEF796FD1D4A022310602B60FFF7B0FF40
:103CD00020681B49001BB0FA80F04009FCF7D8FFB0
:103CE00008B103B030BDA0681649B0FA80F04009B1
:103CF000FCF7CEFF0028F4D103232B60FFF798FFD9
:103D000020680F49001BB0FA80F04009FCF7C0FFA3
:103D10000028E6D1A0680B49B0FA80F0400903B052
:103D2000BDE83040FCF7B4BFA00D002074170020A0
:103D30006010002021380008401000208C1700205F
:103D400054AE000864AE000800000000000000004F
:103D500038B5202383F311880A4C2368012204F12B
:103D6000180000252275C4E902332561FDF7E8FB40
:103D700004F12000FDF7E4FBFFF74AFF85F311880B
:103D800038BD00BF500C0020000000000000000003
:103D9000FFF7DEBF00000000000000000000000090
:103DA000FFF7F6BF00000000000000000000000068
:103DB000FFF7EEBF00000000000000000000000060
:103DC0002DE9F041202380460E4683F31188184CDC
:103DD00004F118050AE0D4E900722369A2EB070E8A
:103DE000B3EBAE0F0ED1FEF763FF30B9237D314642
:103DF0002846002BEFD06FF00100002383F31188D9
:103E0000BDE8F081A068011DA1608A42C0F8008071
:103E100003F10103074898BFA7602361FDF708FB82
:103E2000FFF7F6FE0020002383F31188BDE8F08140
:103E3000500C0020700C002000000000000000006A
:103E40002DE9F041202380460E4683F31188184C5B
:103E500004F118050AE0D4E900272369A7EB020E54
:103E6000B3EBAE0F0ED1FEF723FF30B9237D314601
:103E70002846002BEFD06FF00100002383F3118858
:103E8000BDE8F081E1680B4804398A4288BF391FD8
:103E9000E1600133C1F800802361FDF7C9FAFFF743
:103EA000B7FE0020002383F31188BDE8F08100BF36
:103EB000500C0020700C00200000000000000000EA
:103EC000F8B507460E46202383F31188154CE518F4
:103ED00004E023696BB9FEF7EBFE30B9237D314670
:103EE0002846002BF5D06FF00100002383F31188E2
:103EF000F8BDE2686168106804328A42E26003F14A
:103F0000FF33386028BF2268074828BFE26023617A
:103F1000FDF78EFAFFF77CFE0020002383F3118863
:103F2000F8BD00BF500C0020680C0020000000000D
:103F300070B5404E404D012382B0336042244FF0B3
:103F4000FF312046FFF73CFFB0FA80F029464009D8
:103F5000FCF79EFE013488B9462CF0D102230121E2
:103F600058203360FFF72CFFA0F1FF30B0FA80F04B
:103F700031494009FCF78CFE044608B102B070BD1F
:103F8000202585F311885820FDF762FA84F3118803
:103F9000A0F1FF30B0FA80F027494009FCF778FE25
:103FA0000028EBD101215820FFF74AFFA0F1FF3094
:103FB000B0FA80F020494009FCF76AFE0446002868
:103FC000DCD185F311885820FDF76AFA84F3118853
:103FD000A0F1FF30B0FA80F017494009FCF758FE15
:103FE00004460028CAD103233360FFF7B1FE134B08
:103FF00001211C7501A804233360FFF761FFA0F1C4
:10400000FF30B0FA80F00C494009FCF741FE04464D
:104010000028B3D185F3118801A8FDF769FA84F36C
:104020001188A0F1FF30B0FA80F003494009FCF795
:104030002FFEA3E774170020049E0008500C0020F8
:104040002DE9F047AD4F4FF0010882B0C7F800806E
:10405000202686F31188AA4CAA492069D4E90023B6
:104060009B1AC0EBA300A0F10400B0FA80F0400955
:10407000FCF70EFE28B1002383F3118802B0BDE8DF
:10408000F087054680F3118802233B6086F3118890
:104090002368206104F11800C4E9023384F8148015
:1040A000FDF74EFA04F12000FDF74AFA85F3118876
:1040B00086F31188D4E90023206993499B1AC0EB49
:1040C000A300A0F10400B0FA80F04009FCF7E0FD85
:1040D000804620B185F3118802B0BDE8F08780F3F7
:1040E000118886F3118820698849B0FA80F0400968
:1040F000FCF7CEFD054610B188F31188BEE780F3CA
:10410000118886F311882068A3688149C01AB0FA23
:1041100080F04009FCF7BCFD80460028DAD180F32E
:10412000118886F311882068E3687A49C01AB0FACA
:1041300080F04009FCF7ACFD0028DDD180F3118848
:104140000323DFF8D4A1207580463B60422586F327
:1041500011882846FDF77CF988F31188B0FA80F0C1
:1041600040095146FCF794FD01358146002885D170
:10417000452DECD186F311884120FDF791F989F3A3
:104180001188B0FA80F040096349FCF781FD0546CB
:1041900000287FF473AF4FF00408C7F8008086F35F
:1041A0001188D4E9001322695B1AB2EBA30F0CBF8C
:1041B000012000205949FCF76BFD8146002889D178
:1041C00080F3118886F3118820695549A0F1040015
:1041D000B0FA80F04009FCF75BFD054610B189F3A9
:1041E00011884BE780F3118886F31188D4E90230F7
:1041F000C61A704270414B49FCF74AFD00287FF413
:1042000069AF80F311880523DFF80C913B604546C8
:1042100006464FF0200888F3118801A8FDF768F9D9
:1042200086F31188B0FA80F040094946FCF730FD6A
:1042300000287FF423AF9DF80400FCF7C9FD013D81
:10424000E9D139493948FCF73BFE00287FF416AF25
:1042500006234FF0FF3146203B60FFF7B1FDB0FA77
:1042600080F040092C49FCF713FD00287FF406AFCD
:104270004FF0FF3101A8FFF723FEB0FA80F04009AC
:104280002549FCF705FD00287FF4F8AE07233B60C5
:1042900088F31188D4E900122369521AC3EBA203F0
:1042A000191F484248411849FCF7F2FC00287FF4E6
:1042B00011AF85F3118888F3118820691349B0FA8A
:1042C00080F04009FCF7E4FC00287FF403AF85F39D
:1042D00011882068A3680E49C21A50425041FCF769
:1042E000D7FC00287FF4CAAE2068E3680949C31AE6
:1042F00058425841FCF7CCFCC0E600BF74170020C0
:10430000500C00203C9D0008489D0008549D00086A
:10431000609D0008849D0008049E0008A89D000878
:10432000B49D0008C09D0008D89D0008EC9D0008C1
:104330002DE9F041B34F012382B03B60202686F384
:104340001188B14CB1492069D4E900239B1AC0EB14
:10435000A300A0F10400B0FA80F04009FCF798FC3B
:1043600028B1002383F3118802B0BDE8F08105462F
:1043700080F3118802233B60FFF7EAFC86F3118883
:10438000D4E900232069A2499B1AC0EBA300A0F145
:104390000400B0FA80F04009FCF77AFC804620B1B6
:1043A00085F3118802B0BDE8F08180F3118886F3AF
:1043B000118820699749B0FA80F04009FCF768FC41
:1043C000054610B188F31188CEE780F3118886F393
:1043D00011882068A3689049C01AB0FA80F040099B
:1043E000FCF756FC80460028DAD180F3118886F36A
:1043F00011882068E3688949C01AB0FA80F0400942
:10440000FCF746FC0028DDD180F3118803234FF030
:10441000FF313B60FFF7D4FC851C14BF0020012056
:104420007F49FCF735FC00289ED14FF0FF31FFF7A4
:1044300007FD821C14BF002001207949FCF728FCED
:10444000002891D14FF0FF3101A8FFF739FD831CFF
:1044500014BF002001207249FCF71AFC002883D108
:104460000423704E20753B6042254FF0FF312846F3
:10447000FFF7A6FCB0FA80F031464009FCF708FCD3
:10448000013500287FF470AF452DEED14FF0FF319C
:104490004120FFF7D5FCB0FA80F040096149FCF7F4
:1044A000F7FB054600287FF45FAF05233B6020261D
:1044B00086F31188D4E9001322695B1AB2EBA30FCB
:1044C0000CBF012000205849FCF7E2FB8046002881
:1044D0007FF466AF80F3118886F311882069534911
:1044E000A0F1040CDCF1000040EB0C00FCF7D0FB69
:1044F000054600287FF466AF80F3118886F31188A3
:10450000D4E90230C61A704270414949FCF7C0FB39
:1045100000287FF445AF80F311880623414E3B60AD
:1045200004254FF0FF3101A8FFF7CAFCB0FA80F074
:1045300031464009FCF7ACFB00287FF415AF9DF82D
:104540000400FCF745FC013DEBD13A493A48FCF741
:10455000B7FC00287FF408AF07234FF0FF31462057
:104560003B60FFF72DFCB0FA80F040092D49FCF7C5
:104570008FFB00287FF4F8AE4FF0FF3101A8FFF762
:104580009FFCB0FA80F040092649FCF781FB002827
:104590007FF4EAAE08233B60202686F31188D4E935
:1045A00000122369521AC3EBA203191F4842484163
:1045B0001749FCF76DFB00287FF4F2AE85F31188F4
:1045C00086F3118820691349B0FA80F04009FCF79E
:1045D0005FFB00287FF4E4AE85F311882068A368B0
:1045E0000D49C21A50425041FCF752FB00287FF49B
:1045F000BBAE2068E3680949C31A58425841FCF72A
:1046000047FBB1E674170020500C00203C9D0008C9
:10461000489D0008549D0008609D0008849D000886
:10462000189D0008049E0008A89D0008B49D00087D
:10463000C09D0008D89D0008EC9D00080000000007
:104640002DE9F047DFF8F4A0384D394C0123CAF8C2
:104650000030A94604264FF02008002788F311886F
:10466000EB6823604846EC60FCF7F2FFFFF7D0FAF6
:1046700087F311882B69013E1C44EFD102232D4E94
:10468000CAF8003004240020FEF70AFA003018BFF0
:1046900001203146FCF7FCFA002844D1013CF2D15C
:1046A0000323CAF80030FEF7FBF9B0FA80F04009A6
:1046B0002149FCF7EDFAB0BB1D4EDFF870800423F2
:1046C00006F11009CAF800302027334687F3118815
:1046D000EA6846F8042B4046EB60FCF7B9FFFFF7A9
:1046E00097FA84F31188B145EFD10523114DCAF82B
:1046F000003004240020FEF7D3F9003018BF012059
:104700002946FCF7C5FA70B9013CF3D10623CAF873
:104710000030FEF7C5F9B0FA80F040090649BDE85F
:10472000F047FCF7B5BABDE8F08700BF140C0020D5
:1047300030100020809E00088C9E00087417002016
:1047400038B5202585F3118800210B48FCF740FF80
:104750000024FFF75DFA84F311884FF4FA70FEF736
:1047600027FC85F3118805482146FCF731FFFFF748
:104770004FFA84F3118838BD0C0C0020100C002077
:1047800010B504464FF4FA70FEF712FC202383F3B1
:10479000118801212046FCF703FFFFF739FA0023B7
:1047A00083F3118810BD00BF00000000000000006E
:1047B00010B540F2DC50FEF7FBFB202383F3118899
:1047C000064C2046FEF71CFF2046FCF719FFFFF7BA
:1047D0001FFA002383F3118810BD00BF400C002096
:1047E00008B54FF4FA70FEF7E3FB202383F311883A
:1047F0000448FCF72DFFFFF70BFA002383F3118821
:1048000008BD00BF401000200000000000000000B4
:1048100008B5202282F311888368002B05DDFFF79D
:10482000F7F9002383F3118808BDFCF711FFFFF7A8
:10483000EFF9002383F3118808BD00BF00000000DA
:1048400010B52023044683F3118800210648FCF7A5
:104850000FFFFFF7DDF9002383F311882078BDE80F
:104860001040FCF7B5BA00BFA01700200000000000
:10487000174B70B59D69202383F311880468C368C2
:10488000AB6384421DD0E96B4BB11A68934203D0ED
:104890009268914238BF1146DB68002BF5D1034680
:1048A0002268A66BA96020461A605360C3E90246DD
:1048B000A363FCF7A5FDFFF7ABF9002383F3118891
:1048C00070BD0023A360002383F3118870BD00BF77
:1048D000A00D00200000000000000000000000000B
:1048E0002DE9F843374C002818BF044604F10C07A3
:1048F000384601F107080D464FEAD808FEF7F8FEE2
:10490000201D026802F10F0323F007031E4602F187
:104910000809083B7AB1D2F804C00CF1010102EB9E
:10492000C101A1EB060E8B424FEAEE0E01D2F0451B
:1049300012D91046E5E73846FFF79AFF266846B1D8
:1049400008224FEAC8001146B047064608B140E9C0
:1049500002453046BDE8F8839A421AD3E045136811
:104960002CD008F1010802EBC80C0CF10806891BD9
:10497000C91042F838304E46CCF804101346C0F83F
:1049800000C03846C3E90045FFF772FF3046BDE876
:10499000F883A3EB09094FEAE901F0455160F0D231
:1049A00008F1010C03EBCC006FEA08017144D2F866
:1049B00000E0416043F83CE01060E2E703604E46EF
:1049C0001346DEE7400F002000000000000000005A
:1049D000F8B50C68A1420D460646174603D10DE016
:1049E0002468A5420AD008223146A01804F09AFE95
:1049F0000028F5D114B104462046F8BD3946002000
:104A0000FFF76EFF044648B108221044314604F017
:104A1000D5FE2B680122C4E900322C602046F8BD87
:104A200070B586B016461D460C46FFF759FFD8B143
:104A30000A9B049304440B9B05930294CDE9006008
:104A40000395202383F311886846FCF761FC01235A
:104A500080F8213000210446FDF732FE002383F365
:104A60001188204606B070BD0446FAE70000000039
:104A70002DE9F04F374D2C7D83B01CB1002003B0E1
:104A8000BDE8F08F8146344F05F13000FEF730FE6F
:104A9000A24605F1200B4E46CDF804905846FEF78D
:104AA00027FED5E900422B69D5F808C0141BE41A8B
:104AB000B44228BF3446A2EB0C082344A0452B6126
:104AC0003FD842463946A4EB080960462CD322461B
:104AD000FBF70AFC2B68AB6058462744FFF7C8FE7B
:104AE0007CB9DDF80490202383F3118884F31188C6
:104AF000A9EB06091948FFF7BBFE484603B0BDE81D
:104B0000F08F361B202383F31188EB6900211846B0
:104B10001BB1C5F81CA0FDF7D3FD8AF31188002E48
:104B2000BCD1DDF80490E5E7FBF7DEFB4A4607EB76
:104B300008012868FBF7D8FB2A6802EB0903AB6081
:104B4000CAE7604622463946FBF7CEFBAB682344F2
:104B5000AB60C1E7900C002008A10008C00C002049
:104B60002DE9F04F364C257D83B01DB1002003B0F8
:104B7000BDE8F08F8946074604F14000FEF7B8FD16
:104B8000AA46C84604F1200BCDF804905846FEF71B
:104B9000AFFDD4E903C3666843451D46A6EB0C068A
:104BA00028BF45465B1BAE42236140D83246614672
:104BB000A5EB060938462ED32A46FBF795FB23685A
:104BC000E36058462F44FFF753FE7DB9DDF80490AB
:104BD000202383F3118885F31188A9EB080919486C
:104BE000FFF746FE484603B0BDE8F08FA8EB050886
:104BF000202383F31188A369002118461BB1C4F850
:104C000018A0FDF75DFD8AF31188B8F1000FBDD142
:104C1000DDF80490E3E7FBF767FB4A46B819216823
:104C2000FBF762FB226802EB0903E360C9E7614618
:104C30002A463846FBF758FBE3682B44E360C0E79D
:104C4000900C0020D00C00200000000000000000AC
:104C500030B5224C85B00123102168462360FFF750
:104C60007FFFB0FA80F040091D49FCF711F840B908
:104C70001C4DEB682A6893421DD01B49FCF708F8CD
:104C800008B105B030BD022310202360FFF7F0FE0D
:104C9000A0F10800B0FA80F011494009FBF7F8FFD5
:104CA0000028EED1D5E9022393420CD00E49FBF740
:104CB000EFFF05B030BDAA689342DED12869B0FA93
:104CC00080F04009D9E72A689342EFD12869A0F122
:104CD0000800B0FA80F04009E8E700BF7417002030
:104CE0003C9D0008900C00205C9E00080000000025
:104CF00038B505460748FEF7FBFC074A0748111F71
:104D0000FDF76EFC044600B105610248FFF7B0FDF7
:104D1000204638BD180E00202C0E0020B099000847
:104D200038B5074C2046FEF7E3FC04F110010548B6
:104D3000FDF736FC05462046FFF79AFD284638BDAC
:104D4000180E0020B09900080000000000000000CC
:104D500010B50A48FEF7CCFC802209490948FFF744
:104D600037FE044620B180220021103004F01CFCE4
:104D70000248FFF77DFD204610BD00BF180E002041
:104D80003C0E002088990008000000000000000090
:104D900038B5074C2046FEF7ABFC04F1240105486A
:104DA000FDF7FEFB05462046FFF762FD284638BDAD
:104DB000180E002088990008000000000000000084
:104DC00010B50A48FEF794FC094A0A48111FFDF77E
:104DD00007FC044628B100F11003C0E904330022A7
:104DE00082610248FFF744FD204610BD180E0020E6
:104DF000440E0020A89900080000000000000000F8
:104E000038B5074C2046FEF773FC04F1280105482D
:104E1000FDF7C6FB05462046FFF72AFD284638BDAC
:104E2000180E0020A89900080000000000000000F3
:104E300038B51148FEF75CFC782210491048FFF79E
:104E4000C7FD044698B100F1380304F1280104F1CC
:104E50003002C4E90633C4E90A11C4E90C2200F1A6
:104E60007805002023616561206284F824000248EF
:104E7000FFF7FEFC204638BD180E0020540E00201F
:104E800090990008000000000000000000000000F1
:104E900038B5074C2046FEF72BFC04F13C010548D1
:104EA000FDF77EFB05462046FFF7E2FC284638BDAD
:104EB000180E00209099000800000000000000007B
:104EC0002DE9F84F2248FEF713FC4FF4CA7221492E
:104ED0002148FFF77DFD044698B300F11008102625
:104EE0000423C0E90488C0E90863002700F1940B9B
:104EF0005D46C7618762876100F1540A4FF020095F
:104F000089F31188E3692B604046E561FCF7A0FB5B
:104F1000FEF77EFE87F31188236A013E1D44EFD120
:104F200004F1440204F14C03C4E90DAAC4E91122BE
:104F3000C4E91333C4F82CA0C4F830B0E66384F895
:104F400040600348FFF794FC2046BDE8F88F00BF9F
:104F5000180E0020580E002098990008000000004C
:104F600038B5074C2046FEF7C3FB04F14001054865
:104F7000FDF716FB05462046FFF77AFC284638BDAC
:104F8000180E0020989900080000000000000000A2
:104F900038B51548FEF7ACFB702214491448FFF7EA
:104FA00017FD0446D8B100F16002002300F170053E
:104FB00004F1400130302261C4E9062204F15002BC
:104FC000C4E90A33C4E90C00C4E91011C4E914228D
:104FD0006561236284F82430A363A364A365024857
:104FE000FFF746FC204638BD180E00205C0E00205E
:104FF000A099000800000000000000000000000070
:1050000038B5074C2046FEF773FB04F14401054810
:10501000FDF7C6FA05462046FFF72AFC284638BDAC
:10502000180E0020A09900080000000000000000F9
:10503000F0B51C4C1C4F012685B004F120003E60E9
:10504000FEF756FB236826750025C4E90233256167
:10505000202383F311886FF0010104F11800FCF79D
:1050600007FB04F11C006FF00101FCF701FBFEF7E8
:10507000CFFD85F3118804F12000FFF7F9FBE36809
:105080002268934206D028460849FBF701FE78B112
:1050900005B0F0BDA2689342F5D12569B5FA85F057
:1050A0004009F1E7900C0020741700205C9E000876
:1050B000022310203B60FFF7DBFCB0FA80F04009D0
:1050C000BE49FBF7E5FD0028E2D1E3682268934280
:1050D00000F09981BA49FBF7DBFD0028D8D1032302
:1050E000102168463B60FFF73BFDB0FA80F04009B5
:1050F000B249FBF7CDFD0028CAD1E368226893428C
:1051000000F08A81AE49FBF7C3FD0028C0D1E368F7
:105110002268207504219342396000F08681A849F5
:10512000FBF7B6FD0028B3D1052310203B60FFF745
:105130009FFCA0F11000B0FA80F0A2494009FBF7F3
:10514000A7FD0028A4D1E3682268934200F076818D
:105150009B49FBF79DFD00289AD106231021684644
:105160003B60FFF7FDFCA0F11000B0FA80F095491C
:105170004009FBF78DFD00288AD1E368226893423D
:1051800000F066818E49FBF783FD002880D16946D7
:1051900010228D4804F0D6F9B0FA80F040098B490E
:1051A000FBF776FD00287FF473AF072304203B60F4
:1051B000FFF75EFC031F584258418249FBF768FD28
:1051C00000287FF465AFD4E90223934209D0226816
:1051D000934206D12069A0F1040EDEF1000040EBFD
:1051E0000E007749FBF754FD00287FF451AF0823E8
:1051F0000C203B60FFF73CFCA0F10C0CDCF1000044
:1052000040EB0C006F49FBF743FD00287FF440AFF3
:10521000E3682268934200F024816949FBF738FD76
:1052200000287FF435AF0923042168463B60FFF76F
:1052300097FC051F684268416249FBF729FD002879
:105240007FF426AF2368E2689A4207D0A2689342AF
:1052500004D12069A0F10C01484248415849FBF7AC
:1052600017FD00287FF414AF0098594B5749C21A14
:1052700050425041FBF70CFD00287FF409AF0A2390
:105280000C2168463B60FFF76BFCA0F10C03584211
:1052900058414C49FBF7FCFC00287FF4F9AEE36869
:1052A0002268934200F0E7804549FBF7F1FC0028B3
:1052B0007FF4EEAE69460C22434804F043F9B0FA9D
:1052C00080F040094149FBF7E3FC00287FF4E0AEA1
:1052D0000B2305203B60FFF7CBFBA0F1050EDEF1B1
:1052E000000040EB0E003749FBF7D2FC00287FF4AA
:1052F000CFAED4E90223934209D02268934206D16B
:105300002069A0F1050CDCF1000040EB0C002C49F9
:10531000FBF7BEFC00287FF4BBAE0C2305216846DA
:105320003B60FFF71DFC461F704270412549FBF7AB
:10533000AFFC00287FF4ACAED4E90223934200F026
:10534000B5801F49FBF7A4FC00287FF4A1AE694695
:1053500005221D4804F0F6F8B0FA80F040091B4918
:10536000FBF796FC00287FF493AE0D2310203B60E2
:10537000FFF77EFBA0F11005684268411149FBF779
:1053800087FC00287FF484AED4E90223934200F026
:1053900083800B49FBF77CFC00287FF479AE0E2359
:1053A000102168463B60FFF7DBFBA0F11003584279
:1053B00058410449FBF76CFC0CE000BF2C9E000830
:1053C0005C9E00083C9D000808A10008389E00086B
:1053D0003031323300287FF45BAED4E902239342AC
:1053E00052D03749FBF754FC00287FF451AE694690
:1053F0001022344804F0A6F8B0FA80F0324940098F
:10540000FBF746FC44E6A26893427FF463AE206952
:10541000B0FA80F040095DE6A26893427FF472AE74
:105420002069B0FA80F040096CE6A26893427FF4EC
:1054300076AE2069B0FA80F0400970E6A268934227
:105440007FF486AE2069A0F11002504250417FE601
:10545000A26893427FF496AE2069B0FA80F04009CA
:1054600090E6A26893427FF4D8AE2069A0F11006BE
:1054700070427041D1E6A26893427FF415AF206973
:10548000B0FA80F040090FE722689342A9D0206962
:10549000B0FA80F04009A4E7226893423FF479AF64
:1054A0002069A0F110025042504172E722689342F5
:1054B0003FF447AF2069B0FA80F0400941E700BFF0
:1054C0005C9E000808A10008389E0008000000004B
:1054D0002DE9F843DFF880901C4C0123C9F8003017
:1054E000FDF7EEFD002580464FF0804742F20F7633
:1054F0002046FEF7FDF82046FFF7BAF92046FEF7F2
:10550000F7F82046FFF7B4F92046FEF7F1F82046F9
:10551000FFF7AEF92046FEF7EBF82046FFF7A8F9B3
:105520007B6AA3EB0803B34205F10105E0D902232E
:105530000748C9F80030FBF7ABFCA800FBF738FCC4
:105540000448BDE8F843FBF783BC00BF20100020EF
:1055500060B20008ACB20008741700200000000020
:10556000F8B507461B48FEF7C3F81B48FEF7C0F81E
:10557000202383F31188194DAB699E6B3046FCF7ED
:105580003FF8174BAC691846636203E09968A2685C
:10559000914202D31B688342F8D15A680720C4E9BC
:1055A000003214605C60FDF7A3F9AB695B6A0133FC
:1055B00002D03046FEF724F8002383F311883878B0
:1055C000FBF706FC0448FFF753F90248BDE8F84032
:1055D000FFF74EB9400C0020300C0020A00D002039
:1055E000040C00200000000000000000000000008B
:1055F00070B506461648FEF77BF8202383F3118822
:10560000144B9C69A56B2846FBF7FAFF12486062B1
:10561000034603E09968A268914202D31B68834263
:10562000F8D15A680720C4E9003214605C60FDF7C5
:105630005FF92846FDF7E4FF002383F311883078F3
:10564000FBF7C6FB0248BDE87040FFF711B900BF89
:10565000300C0020A00D0020040C002000000000F1
:1056600038B5064C05462046FEF742F82878FBF789
:10567000AFFB2046BDE83840FFF7FAB8400C0020E9
:105680002DE9F8434E4D4F4CAA69022396682360DA
:10569000FBF7A6F84C49FBF7FBFA08B1BDE8F88325
:1056A00003232360FBF79CF880F00100C0B2474958
:1056B000FBF7EEFA0028F1D1454F0423384623606A
:1056C000FFF7D6F8B8684349B0FA80F04009FBF715
:1056D000DFFA0028E2D138683F49C01BB0FA80F0F9
:1056E0004009FBF7D5FA0028D8D1AB693B49986847
:1056F000801BB0FA80F0052340092360FBF7C8FA4D
:105700000028CBD106232360FBF76AF82E49FBF76C
:10571000BFFA0028C2D1FBF763F880F00100C0B2E5
:105720002A49FBF7B5FA0028B8D1D5F8188020230C
:1057300083F31188D8F83830DBB181461A68D9680C
:10574000C8F838109342104635D0D2F838C01168E6
:1057500019604B60C3E9022C9363FBF751FED8F844
:105760003830002BEAD1D8F83C30C8F80830FEF7C2
:105770004FFA002383F31188B8681649B0FA80F015
:105780004009FBF785FA002888D138681249C71B01
:1057900078427841FBF77CFA00287FF47FAFAB6951
:1057A0000E499868821B0723504223605041BDE890
:1057B000F843FBF76DBAC3F808900B46D1E700BF7A
:1057C000A00D00207417002000AF000810AF0008E3
:1057D000300C00201CAF000854AE000828AF0008B1
:1057E0002DE9F043444D454EAB69454A9C68454818
:1057F000454B83B004F101080092022742464FF462
:10580000A4713760FCF7F4FF404F414B386004F15E
:1058100002094FF4A4714A4600933E483E4BFCF700
:10582000E7FF032378603D483360FDF761FFAB6914
:105830003B499868001BB0FA80F04009FBF728FA52
:1058400010B103B0BDE8F08304234FF47A703360E5
:10585000FDF7AEFBAB6932499868A0EB0800B0FADF
:1058600080F04009FBF714FA0028EAD105232D48FF
:105870003360FDF73DFFAB6929499868A0EB08004C
:10588000B0FA80F04009FBF703FA0028D9D10623CB
:105890004FF47A703360FDF78BFBAB692049986851
:1058A000A0EB0900B0FA80F04009FBF7F1F90028FD
:1058B000C7D107231B483360FEF7DAFFAB691849ED
:1058C0009868A0EB0800B0FA80F04009FBF7E0F917
:1058D0000028B6D1082311483360FEF7C9FFAB6931
:1058E0000F499868001BB0FA80F0400903B0BDE88A
:1058F000F043FBF7CDB900BFA00D002074170020C6
:10590000E8AE000860100020315900088C17002014
:10591000ECAE0008A8110020B1470008300C0020B0
:1059200028AF0008400C002000000000000000002C
:1059300010B5064C4FF4FA70FDF73AFB2046FDF720
:10594000D7FE2046BDE81040FEF792BF300C002085
:1059500038B5064C05462046FDF7CAFE2878FBF709
:1059600037FA2046BDE83840FEF782BF300C0020F1
:1059700038B5174D04462846FDF7BAFE6368013B6B
:10598000636023B11248BDE83840FEF771BF05F1EE
:1059900028010A4602E09C420AD01A4613688B424C
:1059A000F9D1202383F311880023EA6A1A60FFDE0D
:1059B00023681360202383F31188EB6A236000239C
:1059C000EC6283F311880248BDE83840FEF750BF0F
:1059D000180E002000000000000000000000000081
:1059E000F8B5424C01252560FFF70AFAB0FA80F0BD
:1059F00040093F49FBF74CF900B1F8BD0223236091
:105A0000FFF7DEF90646003018BF01203949FBF7E1
:105A10003FF90028F1D103232360FFF7D1F9B0FA51
:105A200080F040093449FBF733F90028E5D104231D
:105A30002360FFF7E5F90746003018BF01202F4922
:105A4000FBF726F90028D8D1F01BB0FA80F02C49DA
:105A50004009FBF71DF90028CFD178682849A0F14B
:105A60000200B0FA80F04009FBF712F90028C4D117
:105A70007B6823492B4428467B60FBF709F9002803
:105A8000BBD178681E49A0F1030CDCF1000040EBAB
:105A90000C00FBF7FDF80028AFD13846FFF768FF90
:105AA00078681849821E50425041FBF7F1F80028EF
:105AB000A3D13846FFF75CFF70681249431B584278
:105AC0005841FBF7E5F8002897D1304605232360BD
:105AD000FFF74EFF06232360FFF792F9B0FA80F03C
