:020000040800F2
:1000000000040020B9020008BB020008BB0200087F
:10001000BB020008BB020008BB020008BB020008CC
:10002000BB020008BB020008BB0200083126000822
:10003000BB020008BB020008BB020008BB020008AC
:10004000BB020008BB020008BB020008BB0200089C
:10005000BB020008BB020008BB020008BB0200088C
:10006000BB020008BB020008BB020008E12D00082B
:10007000B12D0008812D0008512D0008212D000808
:10008000F12C0008C12C0008112E0008BB0200084A
:10009000BB020008BB020008BB020008BB0200084C
:1000A000BB020008BB020008BB020008BB0200083C
:1000B000712A0008BB020008BB020008BB0200084E
:1000C000BB020008BB020008BB020008BB0200081C
:1000D000BB020008BB020008B1280008BB020008F0
:1000E000BB020008BB020008BB020008BB020008FC
:1000F000BB020008BB020008BB020008912C0008EC
:10010000BB020008BB020008BB020008BB020008DB
:10011000BB020008BB020008BB020008BB020008CB
:10012000612C0008312C0008012C0008D12B00089C
:10013000A12B0008BB020008BB020008BB0200089C
:10014000BB020008BB020008BB020008BB0200089B
:10015000712B0008412B0008112B0008BB0200087E
:10016000BB020008BB020008BB020008BB0200087B
:10017000BB020008BB020008BB020008BB0200086B
:10018000BB020008BB020008BB020008BB0200085B
:10019000BB020008BB020008BB020008BB0200084B
:1001A000BB020008BB020008BB020008BB0200083B
:1001B000BB020008BB020008BB020008BB0200082B
:1001C000BB020008BB020008BB020008BB0200081B
:1001D000BB020008BB020008BB020008BB0200080B
:1001E00072B6274880F30888264880F30988264895
:1001F0004EF60851CEF200010860022080F3148808
:10020000BFF36F8F02F0B4FE02F06AFA4FF0553080
:100210001E491B4A91423CBF41F8040BFAE71C49B6
:10022000184A91423CBF41F8040BFAE719491A4AAF
:100230001A4B9A423EBF51F8040B42F8040BF8E700
:1002400000201749174A91423CBF41F8040BFAE7D6
:1002500002F046FE02F084FE134C144DAC4203DA69
:1002600054F8041B8847F9E701F03AFF104C114D90
:10027000AC4203DA54F8041B8847F9E702F068BE81
:1002800000040020000800200000000800000020FA
:100290000004002088310008000800200008002029
:1002A00000080020A00F0020E0010008E001000885
:1002B000E0010008E001000892E700F000F8FEE726
:1002C0002DE9F04FC1F80CD0C3689D46BDE8F08F12
:1002D000002383F311882846A047002002F0B8F9D4
:1002E00002F0DEF900DFFEE781F0004102E000BF2E
:1002F00083F0004330B54FEA41044FEA430594EAE6
:10030000050F08BF90EA020F1FBF54EA000C55EA20
:10031000020C7FEA645C7FEA655C00F0E2804FEAF1
:100320005454D4EB5555B8BF6D420CDD2C4480EAD3
:10033000020281EA030382EA000083EA010180EA03
:10034000020281EA0303362D88BF30BD11F0004F51
:100350004FEA01314FF4801C4CEA113102D0404287
:1003600061EB410113F0004F4FEA03334CEA1333C2
:1003700002D0524263EB430394EA050F00F0A780DA
:10038000A4F10104D5F1200E0DDB02FA0EFC22FAD5
:1003900005F2801841F1000103FA0EF2801843FAC9
:1003A00005F359410EE0A5F120050EF1200E012ABA
:1003B00003FA0EFC28BF4CF0020C43FA05F3C018F8
:1003C00051EBE37101F0004507D54FF0000EDCF171
:1003D000000C7EEB00006EEB0101B1F5801F1BD31A
:1003E000B1F5001F0CD349085FEA30004FEA3C0C1E
:1003F00004F101044FEA445212F5800F80F09A8014
:10040000BCF1004F08BF5FEA500C50F1000041EB17
:10041000045141EA050130BD5FEA4C0C404141EB1B
:10042000010111F4801FA4F10104E9D191F0000F42
:1004300004BF01460020B1FA81F308BF2033A3F1C5
:100440000B03B3F120020CDA0C3208DD02F1140CBC
:10045000C2F10C0201FA0CF021FA02F10CE002F1F7
:100460001402D8BFC2F1200C01FA02F120FA0CFCF0
:10047000DCBF41EA0C019040E41AA2BF01EB045139
:10048000294330BD6FEA04041F3C1CDA0C340EDC37
:1004900004F11404C4F1200220FA04F001FA02F37A
:1004A00040EA030021FA04F345EA030130BDC4F138
:1004B0000C04C4F1200220FA02F001FA04F340EA2D
:1004C0000300294630BD21FA04F0294630BD94F0DE
:1004D000000F83F4801306BF81F480110134013DC5
:1004E0004EE77FEA645C18BF7FEA655C29D094EA36
:1004F000050F08BF90EA020F05D054EA000C04BFB4
:100500001946104630BD91EA030F1EBF002100209E
:1005100030BD5FEA545C05D14000494128BF41F03D
:10052000004130BD14F580043CBF01F5801130BDA1
:1005300001F0004545F0FE4141F470014FF000002C
:1005400030BD7FEA645C1ABF194610467FEA655CDD
:100550001CBF0B46024650EA013406BF52EA03357F
:1005600091EA030F41F4002130BD00BF90F0000F6D
:1005700004BF0021704730B54FF4806404F13204A9
:100580004FF000054FF0000150E700BF90F0000F62
:1005900004BF0021704730B54FF4806404F1320489
:1005A00010F0004548BF40424FF000013EE700BF59
:1005B00042004FEAE2014FEA31014FEA02701FBFE9
:1005C00012F07F4393F07F4F81F06051704732F01B
:1005D0007F4208BF704793F07F4F04BF41F4002172
:1005E000704730B54FF4607401F0004521F00041D0
:1005F0001CE700BF50EA010208BF704730B54FF05A
:1006000000050AE050EA010208BF704730B511F05A
:10061000004502D5404261EB41014FF4806404F192
:1006200032045FEA915C3FF4D8AE4FF003025FEA18
:10063000DC0C18BF03325FEADC0C18BF033202EB9C
:10064000DC02C2F1200300FA03FC20FA02F001FAF6
:1006500003FE40EA0E0021FA02F11444BDE600BF99
:1006600070B54FF0FF0C4CF4E06C1CEA11541DBF48
:100670001CEA135594EA0C0F95EA0C0F00F0DEF813
:100680002C4481EA030621EA4C5123EA4C5350EAF8
:10069000013518BF52EA033541F4801143F4801349
:1006A00038D0A0FB02CE4FF00005E1FB02E506F0DA
:1006B0000042E0FB03E54FF00006E1FB03569CF02F
:1006C000000F18BF4EF0010EA4F1FF04B6F5007F35
:1006D00064F5407404D25FEA4E0E6D4146EB0606A7
:1006E00042EAC62141EA55514FEAC52040EA5E5030
:1006F0004FEACE2EB4F1FD0C88BFBCF5E06F1ED8DA
:10070000BEF1004F08BF5FEA500E50F1000041EB10
:10071000045170BD06F0004646EA010140EA0200BD
:1007200081EA0301B4EB5C04C2BFD4EB0C0541EADF
:10073000045170BD41F480114FF0000E013C00F3F4
:10074000AB8014F1360FDEBF002001F0004170BD18
:10075000C4F10004203C35DA0C341BDC04F1140431
:10076000C4F1200500FA05F320FA04F001FA05F2BD
:1007700040EA020001F0004221F0004110EBD3708A
:1007800021FA04F642EB06015EEA430E08BF20EAB6
:10079000D37070BDC4F10C04C4F1200500FA04F359
:1007A00020FA05F001FA04F240EA020001F00041EB
:1007B00010EBD37041F100015EEA430E08BF20EA5E
:1007C000D37070BDC4F1200500FA05F24EEA020EA6
:1007D00020FA04F301FA05F243EA020321FA04F0D5
:1007E00001F0004121FA04F220EA020000EBD3708C
:1007F0005EEA430E08BF20EAD37070BD94F0000F8C
:100800000FD101F00046400041EB010111F4801FBF
:1008100008BF013CF7D041EA060195F0000F18BF70
:10082000704703F00046520043EB030313F4801FAC
:1008300008BF013DF7D043EA0603704794EA0C0F66
:100840000CEA135518BF95EA0C0F0CD050EA41067C
:1008500018BF52EA4306D1D181EA030101F00041F9
:100860004FF0000070BD50EA410606BF1046194621
:1008700052EA430619D094EA0C0F02D150EA01362D
:1008800013D195EA0C0F05D152EA03361CBF10466E
:1008900019460AD181EA030101F0004141F0FE410D
:1008A00041F470014FF0000070BD41F0FE4141F491
:1008B000780170BD70B54FF0FF0C4CF4E06C1CEA91
:1008C00011541DBF1CEA135594EA0C0F95EA0C0F46
:1008D00000F0A7F8A4EB050481EA030E52EA033501
:1008E0004FEA013100F088804FEA03334FF0805522
:1008F00045EA131343EA12634FEA022245EA11154F
:1009000045EA10654FEA00260EF000419D4208BFFF
:10091000964244F1FD0404F5407402D25B084FEAAC
:100920003202B61A65EB03055B084FEA32024FF458
:1009300080104FF4002CB6EB020E75EB030E22BFB5
:10094000B61A754640EA0C005B084FEA3202B6EB75
:10095000020E75EB030E22BFB61A754640EA5C0024
:100960005B084FEA3202B6EB020E75EB030E22BFB4
:10097000B61A754640EA9C005B084FEA3202B6EBB5
:10098000020E75EB030E22BFB61A754640EADC0074
:1009900055EA060E18D04FEA051545EA16754FEAD6
:1009A00006164FEAC30343EA52734FEAC2025FEAF4
:1009B0001C1CC0D111F4801F0BD141EA00014FF083
:1009C00000004FF0004CB6E711F4801F04BF014354
:1009D0000020B4F1FD0C88BFBCF5E06F3FF6AFAE70
:1009E000B5EB030C04BFB6EB020C5FEA500C50F100
:1009F000000041EB045170BD0EF0004E4EEA113183
:100A000014EB5C04C2BFD4EB0C0541EA045170BD89
:100A100041F480114FF0000E013C90E645EA060ECD
:100A20008DE60CEA135594EA0C0F08BF95EA0C0FFB
:100A30003FF43BAF94EA0C0F0AD150EA01347FF443
:100A400034AF95EA0C0F7FF425AF104619462CE71A
:100A500095EA0C0F06D152EA03353FF4FDAE10467D
:100A6000194622E750EA410618BF52EA43067FF4CE
:100A7000C5AE50EA41047FF40DAF52EA43057FF45E
:100A8000EBAE12E74FEA410212F5001215D211D572
:100A90006FF47873B3EB625212D94FEAC12343F07B
:100AA000004343EA505311F0004F23FA02F018BFFD
:100AB000404270474FF00000704750EA013005D1C6
:100AC00011F0004008BF6FF0004070474FF0000089
:100AD000704700BF4FEA4102B2F1E04324BFB3F5D3
:100AE000001CDCF1FE5C0DD901F0004C4FEAC002A5
:100AF0004CEA5070B2F1004F40EB830008BF20F089
:100B00000100704711F0804F21D113F13872BCBF42
:100B100001F00040704741F480114FEA5252C2F197
:100B20001802C2F1200C10FA0CF320FA02F018BFE0
:100B300040F001004FEAC1234FEAD32303FA0CFC33
:100B400040EA0C0023FA02F34FEA4303CCE77FEAC2
:100B5000625307D150EA01331EBF4FF0FE4040F40C
:100B60004000704701F0004040F0FE4040F40000BB
:100B7000704700BF80F0004002E000BF81F00041FC
:100B800042001FBF5FEA410392EA030F7FEA226C33
:100B90007FEA236C6AD04FEA1262D2EB1363C1BFC3
:100BA000D218414048404140B8BF5B42192B88BF32
:100BB000704710F0004F40F4000020F07F4018BF55
:100BC000404211F0004F41F4000121F07F4118BF75
:100BD000494292EA030F3FD0A2F1010241FA03FC1D
:100BE00010EB0C00C3F1200301FA03F100F0004305
:100BF00002D5494260EB4000B0F5000F13D3B0F1CD
:100C0000807F06D340084FEA310102F10102FE2A3B
:100C100051D2B1F1004F40EBC25008BF20F00100AB
:100C200040EA03007047490040EB000010F4000F59
:100C3000A2F10102EDD1B0FA80FCACF1080CB2EBEC
:100C40000C0200FA0CF0AABF00EBC250524218434B
:100C5000BCBFD0401843704792F0000F81F40001F0
:100C600006BF80F400000132013BB5E74FEA4103C3
:100C70007FEA226C18BF7FEA236C21D092EA030F2F
:100C800004D092F0000F08BF0846704790EA010FA9
:100C90001CBF0020704712F07F4F04D1400028BFD6
:100CA00040F00040704712F100723CBF00F50000B8
:100CB000704700F0004343F0FE4040F400007047EE
:100CC0007FEA226216BF08467FEA2363014642029A
:100CD00006BF5FEA412390EA010F40F480007047AD
:100CE0004FF0000304E000BF10F0004348BF404253
:100CF0005FEA000C08BF704743F0964301464FF08F
:100D000000001CE050EA010208BF70474FF00003EA
:100D10000AE000BF50EA010208BF704711F000432B
:100D200002D5404261EB41015FEA010C02BF8446FB
:100D30000146002043F0B64308BFA3F18053A3F55A
:100D40000003BCFA8CF2083AA3EBC25310DB01FAA1
:100D500002FC634400FA02FCC2F12002BCF1004F25
:100D600020FA02F243EB020008BF20F001007047B6
:100D700002F1200201FA02FCC2F1200250EA4C000A
:100D800021FA02F243EB020008BF20EADC70704750
:100D90004FF0FF3C06E000BF4FF0010C02E000BF47
:100DA0004FF0010C4DF804CD4FEA40024FEA4103E9
:100DB0007FEA226C18BF7FEA236C11D001B052EA9F
:100DC000530C18BF90EA010F58BFB2EB030088BF65
:100DD000C81738BF6FEAE17018BF40F001007047D4
:100DE0007FEA226C02D15FEA402C05D17FEA236CB6
:100DF000E4D15FEA412CE1D05DF8040B704700BFFD
:100E0000844608466146FFE70FB5FFF7C9FF002893
:100E100048BF10F1000F0FBD4DF808EDFFF7F4FFCC
:100E20000CBF012000205DF808FB00BF4DF808ED65
:100E3000FFF7EAFF34BF012000205DF808FB00BF88
:100E40004DF808EDFFF7E0FF94BF012000205DF8AA
:100E500008FB00BF4DF808EDFFF7D2FF94BF01205B
:100E600000205DF808FB00BF4DF808EDFFF7C8FF54
:100E700034BF012000205DF808FB00BF4FEA4002AC
:100E8000B2F1FE4F0FD34FF09E03B3EB12620DD9B8
:100E90004FEA002343F0004310F0004F23FA02F022
:100EA00018BF404270474FF00000704712F1610FC9
:100EB00001D1420205D110F0004008BF6FF00040A0
:100EC00070474FF000007047844641EA000313F07A
:100ED00003036DD1403A41D351F8043B40F8043B41
:100EE00051F8043B40F8043B51F8043B40F8043B04
:100EF00051F8043B40F8043B51F8043B40F8043BF4
:100F000051F8043B40F8043B51F8043B40F8043BE3
:100F100051F8043B40F8043B51F8043B40F8043BD3
:100F200051F8043B40F8043B51F8043B40F8043BC3
:100F300051F8043B40F8043B51F8043B40F8043BB3
:100F400051F8043B40F8043B51F8043B40F8043BA3
:100F500051F8043B40F8043B403ABDD2303211D343
:100F600051F8043B40F8043B51F8043B40F8043B83
:100F700051F8043B40F8043B51F8043B40F8043B73
:100F8000103AEDD20C3205D351F8043B40F8043B43
:100F9000043AF9D2043208D0D2071CBF11F8013B41
:100FA00000F8013B01D30B8803806046704700BF07
:100FB000082A13D38B078DD010F003038AD0C3F116
:100FC0000403D21ADB071CBF11F8013B00F8013BF8
:100FD00080D331F8023B20F8023B7BE7043AD9D3B7
:100FE000013A11F8013B00F8013BF9D20B7803708C
:100FF0004B7843708B788370604670470000000028
:10100000014B5B6883607047001000E00000000047
:10101000F0B4202383F311880D4DD5E900744E1EE2
:101020003A448319494290190B4008400344A342B3
:1010300007D89F4205D82B60002383F31188F0BCAA
:1010400070470020002383F31188F0BC704700BF75
:10105000480A00200000000000000000000000001E
:10106000024AD36843F0C003D36070470044004095
:10107000202383F311880F4B5B6813F4006302D1C4
:1010800083F311887047EFF309834FF0807243F8C0
:10109000042CA3F1200282F30988074A116892699F
:1010A0008968926891428CBF044A054A43F8082C2B
:1010B000704700BF00ED00E0B0080020E10200082A
:1010C000E402000800000000000000000000000032
:1010D00070B40B4CD4E90063721E4D420A440139CE
:1010E0000144294002EA05000144994204D88E4295
:1010F00002D8216070BC7047002070BC704700BFF0
:10110000480A00200000000000000000000000006D
:101110000E4B0F4A5B68C168F0B48468566F426832
:101120001B1BD0E904459B1BE61845F100079342C1
:10113000026888BF436001319342C0E90467C0E997
:10114000023138BF0360F0BC704700BF001000E000
:10115000B0080020000000000000000000000000B7
:10116000202383F3118890F82030072B0ED8DFE876
:1011700003F0280D0D2408040D08426A936801331A
:101180009360D0E900231A600268536010B4002213
:101190004FF0FF3481680D4B446280F820201B68BB
:1011A0009A688A42FBD25A680021C0E90032106076
:1011B000586081F3118810BC7047436A00221A609E
:1011C000E4E7002383F31188704700BFB0080020D4
:1011D00001460022074B806881F820201B689A682E
:1011E0008242FBD25A680846C1E900321160596058
:1011F000704700BFB00800200000000000000000A1
:10120000F8B5164F57F8044FBC4220D005460026CB
:1012100004E00B2A1CD02468BC4218D0E3682B439E
:10122000E36015B123691D42F5D0D4E90103416B98
:1012300090F820200B430A2A4363EAD1426A134202
:10124000E9D04662FFF7C4FF2468BC42E6D1F8BD8E
:10125000426A32EA0303DED1F3E700BF340800201C
:1012600003682BB10022026018465962FFF7B0BF35
:10127000704700BF000000000000000000000000F8
:10128000FEE700BF000000000000000000000000BA
:1012900030B4C46A2268136823F01F031360136814
:1012A00013F00103FBD1657A826A60683D21A94091
:1012B000016053609368012123F08043936030BC48
:1012C0009160704700000000000000000000000076
:1012D00011F00C0F10B5044611D1036973B18A06E1
:1012E0002CD51A78002A31D05B683BB104220270F9
:1012F00098472378042B01D10323237010BDFFF7F7
:10130000C7FF23699B68002B3DD005222270002176
:10131000204698472378052B04BF0223237000231F
:101320002361202383F311884FF0FF3104F114006F
:10133000FFF796FF002383F3118810BDCA06DDD5A1
:101340005B68002BDAD0BDE810401847FFF7A0FF1C
:1013500023695B6893B10422227020469847237862
:10136000042B0BD0202383F31188002104F11400F7
:10137000FFF776FF002383F3118810BD02220023BC
:1013800022702361EEE7022223612270C9E700BFC9
:101390000020704700000000000000000000000076
:1013A000154B996930B404468D6880680022A842C4
:1013B00062620CD884F820201B689A689042FBD99E
:1013C0005A68C4E9003214605C6030BC704781F830
:1013D00020201A46126890688542FBD95068486000
:1013E00001250A600160516084F8205020469C610C
:1013F00030BCFEF765BF00BFB00800200000000051
:10140000F8B5202383F3118848394418154B23611C
:101410005969E06144F8242CA4F12406124DE660D9
:101420000220012244F8045C208484F82220002554
:1014300004F12C0281200D4FA06004F128066161A7
:1014400044F8205CE063A761C4E90D5520460C61B7
:10145000C4E90A6222635C61FFF7A2FF85F3118889
:101460002046F8BDB0080020D10200084C3000082A
:10147000084B99691A6810B481F820001068186048
:101480000124436082F82040104610BC9A61FEF7A8
:1014900017BF00BFB00800200000000000000000DF
:1014A000F0B54B1C87B04CD0414C2546022955F86D
:1014B0001C2FA36905934FF0804C074638BF0221CB
:1014C0003C48DCF824300490AA425BD0A66A9068BD
:1014D0009B1B59182FD31268091A9068814204D9AE
:1014E0001268091A90688842FAD35368029301AED1
:1014F00001921E60566003919368591A4FF0FF33B2
:10150000916063623846FFF7B3FF049B7BB1E269E9
:10151000019BB2421CD0029A1360019B0021AB4296
:101520005A60049103D09A6803990A449A60A369A7
:10153000586A07B0F0BD8142D0D20E44CCF8346076
:10154000CCE71B4CFFF794FFA369586A07B0F0BDC6
:101550000022AB42E3615D60049224D09A68039854
:10156000A16A02444FF080409A60436A5B1A9A4233
:10157000DDD9D01A012898BF9A1C4FF080430A4445
:101580005A63D4E7A362581801AE00220223CDE9C2
:1015900001550391C4E90766CCF83400CCF810205B
:1015A000CCF80C30AEE74FF08043DA60BFE700BF05
:1015B000B0080020611100080000000000000000D9
:1015C00061B1084B10B4024644689B690420C3E92A
:1015D00000242360536010BCFFF762BF4FF0FF3060
:1015E000704700BFB00800200000000000000000AD
:1015F000F8B504460F461646202383F3118803E00E
:10160000FFF7DEFF002818DBA56831462046002DD5
:10161000F6D06269A368511C013B6161A360177039
:10162000D4E904329A4224BFE3686361E36903B1F9
:101630009847002080F31188F8BD85F31188F8BD24
:101640003030FFF7D5BF00BF0000000000000000F1
:1016500030304FF0FF32FFF7CBBF00BF000000007B
:1016600070B5202304460E4683F3118803E0FFF78C
:10167000A7FF00281ADBA56831462046002DF6D0CA
:10168000A169A36820694A1C013B8242A360A26150
:1016900028BFE3680D7828BFA361E3690BB120463A
:1016A0009847002383F31188284670BD85F311887D
:1016B00070BD00BF0000000000000000000000003E
:1016C0000C30FFF7CDBF00BF00000000000000009D
:1016D0000C304FF0FF31FFF7C3BF00BF0000000028
:1016E00008B50146202383F311880820FFF7D8FEB0
:1016F000002383F3118808BD0000000000000000F3
:1017000008B5074B074A9B69074C9A61636983F0E8
:101710002003636140F6C410FFF7E2FFF6E700BF65
:10172000B0080020742F00080000024000000000F4
:101730000EB42DE9F04F92B01CAB4FF0000B4FF000
:101740004C08934C0B93DA4606469B46C1463368D9
:101750004946DB683046984794F8009027460AF1DE
:10176000010A04F10108B9F1000F04D0B9F1250F05
:1017700007D04446EBE7504612B0BDE8F04F03B047
:1017800070477A782D2A05BFBA780123002307F124
:101790000208302A029300F015822023019308F1F9
:1017A0000108002507E09BF800300BF1040B18F846
:1017B000012B03EB4105A2F13003DBB2092B4746B5
:1017C00005EB8501F3D92A2AEDD02E2A4FF000032C
:1017D0004BD0B84602F0DF014C2918F8019B50D0DD
:1017E000A2F14100A2F14401C0B2342900F2D78134
:1017F000DFE811F01C02D501D501D501D5011C028D
:10180000D501D501D501D501D501D201D501D5012B
:10181000D501D501D501CF01D501D5018C00D50168
:10182000D501D501D501D501D501D501D501D50108
:10183000D50103011C02D5013101D501D5011C02DE
:10184000D501D501D501D501D501D201D501D501EB
:10185000D5011101D501CF01D501D5018C009BF82F
:1018600000100BF1040B01EB400317F8012BA2F160
:101870003001C9B2092903EB8300F4D92A2AEED03A
:10188000A7E7B9F1000F05D04A4697F801904746FF
:1018900008F10108A2F14401342900F28081DFE857
:1018A00011F098017E017E017E017E0198017E018A
:1018B0007E017E017E017E017B017E017E017E0133
:1018C0007E017E0178017E017E0135007E017E0170
:1018D0007E017E017E017E017E017E017E017E0110
:1018E000AC0098017E01DA007E017E0198017E0144
:1018F0007E017E017E017E017B017E017E017E01F3
:10190000BA007E0178017E017E0135004FF0100C97
:101910000DF13B0E71465BF8042B00E00146B2FB73
:10192000FCF40CFB142202F13003392BC8BF02F186
:101930003703DBB201F8013C481E2246002CEDD1F2
:10194000AEEB000E0CAA0392704401E011F8013BCB
:1019500002F8013B8142F9D10EF1FF33039C009361
:10196000A5EB0E05002DC0F22781029B002B40F055
:101970001E816B42002D00F01981217832682D29DB
:10198000D26800F06F81029403951C46019D03E02C
:101990006D3000083268D2682946304690470134DD
:1019A000F8D12346009ADDE90245002AAA44FFF651
:1019B000DAAE1D46009B029525461C46326815F896
:1019C000011BD268013C30469047601CF6D1009B59
:1019D000029D0AF1010A53449A46002D3FF4C3AE1A
:1019E0002C460095019D32682946D26830469047C2
:1019F000013CF8D1009DAA44B5E612ACDBF80030FA
:101A000004F8183D4FF0000C2023013D0BF1040BAE
:101A1000CDE900C3A6E7DBF800400BF1040B002C76
:101A200000F0198122782046002B40F03081002AF6
:101A300000F0468147F6FE73224601E0013B03D4E5
:101A400012F8011F0029F9D1121A531E0093202306
:101A5000AD1A019386E70BF1070B2BF0070BDBE9BF
:101A600000010093FFF736F800210890FFF7DEF938
:101A70000BF1080B009B002840F0E0800CAA0392B9
:101A8000009208980693FEF793FD069B013B082BF6
:101A9000CDE9040100F203818F4A52F82340204629
:101AA000FEF764FD8D4BCDE90601A3FB0434E3088A
:101AB00009931C460898FFF7E1F9009B089003F191
:101AC0000B0E01467246854BA3FB0103DB0803EBBB
:101AD000830C1846A1EB4C033033DBB202F8013D16
:101AE00001460028EFD10099AEEB020E0846704483
:101AF00001E012F8013F01F8013B8142F9D1009A5F
:101B000008980EF1FF3E2E2372440B700892FEF7E8
:101B10003DFD02460B46DDE90401FEF7E9FBDDE988
:101B20000623FEF79DFDFEF7ADFF089B099A03F122
:101B30000D0C0233002A08BF044600936246674B2F
:101B4000A3FB0013DB0803EB830E1946A0EB4E0347
:101B500062483033A0FB0404DBB2E40802F8013D24
:101B60000846ECD1ACEB020C08990CF102000144E0
:101B70000846009901E012F8013F01F8013B81425B
:101B8000F9D1009B039C63441B1BED1A013B00939E
:101B9000E8E64FF00A0CBBE64FF0080CB8E612ACD2
:101BA0000023013D04F8182D0093DBE61D46009B41
:101BB000002BBFF6FFAE10E7009B002BFFF6D3AD66
:101BC0000025F7E6302398F80120019308F1010879
:101BD000E5E50BF10403DBF800209B46002A66DBF9
:101BE0000CAB0393184600F10B0E71463B4BA3FB65
:101BF0000243DB0803EB830C1C46A2EB4C0330339F
:101C0000DBB201F8013D2246002CEFD1AEEB010220
:101C1000024401E011F8013F00F8013B9042F9D184
:101C2000039C001B431E2D1A00939BE65B4619285C
:101C300053F8042B88BF9B46D0D8CCE7089A02F112
:101C400000412D228DF830200DF1310200920CAAB6
:101C50000891039215E722480446002B3FF4EAAEB0
:101C6000013BE9E6019830287FF48DAE30460393BE
:101C70009047009B3268013B0093039BD268039519
:101C8000013402940AF1010A1C46019D84E6002AEF
:101C9000E6D14FF0FF322023CDE9002362E60CA30A
:101CA000D3E900230F4C0994CDE9062302E72D2345
:101CB0008DF830300CAB52420DF13100039392E7B6
:101CC0004FF0FF312023CDE900134EE6AFF3008043
:101CD0000000000065CDCD41BC300008CDCCCCCC9F
:101CE0008030000800E1F505000000000000000061
:101CF0002DE988486C4B6D495A6889696C48886140
:101D000022F001025A609A6822F003029A60DA68AF
:101D100022F00302DA601A6842F003021A601A6ABB
:101D200022F00F021A62202383F31188614D2B7871
:101D30000022012B6A6065D002232B70002383F3FD
:101D400011885D4EDFF8A4B1DFF8A491DFF8A4811B
:101D5000DFF8A4A106F11404202383F311880320E3
:101D6000EB6A28701A68296BC5F810B00A23C5E918
:101D70000263D6605360116011684C4FAB6AD7F8AC
:101D800018C0DFF878E141F0010111600027062258
:101D90001F604A49DF601A6140F203325F629F624E
:101DA000DF621F635F6359609A60C3F808E0444BC9
:101DB000CCF82430C5F814C0FFF75AFB87F311881C
:101DC0003846334633F8022B9C421044FAD13D4B3F
:101DD000A3FB0030C008C9F80000FEF785FFFEF73E
:101DE000E7FB0022384BFEF73BFC2DA3D3E9002391
:101DF000FEF760FDFEF76EFE0123C8F800008AF8CA
:101E00000030A9E731490B68D80402D5EA621368AB
:101E1000FFDE2F4A43F480530B60136B8D6643F44F
:101E200080031363106D2B4B40F480001065126D1E
:101E30001A682948486622F01F021A601A6812F0D0
:101E40000102FBD125482649264C3D26066021206B
:101E50001A605861602081F83C034FF08050C1F84F
:101E6000840148601A499C604B6CA86A43F48073F3
:101E70004B644B6E43F480734B664B6ED4F8B832B0
:101E80001949E96203F4400343F480330121C4F8A3
:101E9000B8324260826081604EE700BFAFF30080DD
:101EA0000000000000FEAF4000000240B00800202B
:101EB000802F000800080020FC0A00200001000418
:101EC00014080020CDCCCCCC000059406C0A002076
:101ED0000038024070640240D11200080C640240D5
:101EE00000E100E04C2001401C3000089030000868
:101EF000F80A0020F40A0020F00A00200303004042
:101F00002DE9F04F85B0CDE90232D0F81C904FF0AA
:101F1000200A8AF311883AB304460F4616464FF05A
:101F2000000BA2689642D4E904208CBFA568354610
:101F3000A2EB0008A84540D82BD32A463946FEF725
:101F4000C3FFE2686261A268521BA2609DB1B9F151
:101F5000000F01D02046C8478BF31188761B2F4411
:101F60008AF31188002EDCD10398002383F31188B3
:101F700005B0BDE8F08F02992046FFF721FB00284D
:101F8000CFD0039B981B002383F3118805B0BDE8D5
:101F9000F08FA5EB0803424639460193FEF794FF04
:101FA00007EB0801DDF80480E0684246FEF78CFF8D
:101FB000E2684346D3186361C5E72A463946FEF70F
:101FC00083FF62692A446261BDE700BF0000000030
:101FD0003030FFF795BF00BF000000000000000098
:101FE00030304FF0FF33FFF78BBF00BF0000000021
:101FF0002DE9F04F85B0CDE90232D0F81C904FF0BA
:10200000200A8AF311883AB304460F4616464FF069
:10201000000BA268A169964222698CBFA56835466B
:10202000A2EB0108A84540D82BD32A463846FEF734
:102030004BFFE268A261A268521BA2609DB1B9F198
:10204000000F01D02046C8478BF31188761B2F4420
:102050008AF31188002EDCD10398002383F31188C2
:1020600005B0BDE8F08F02992046FFF7A9FA0028D5
:10207000CFD0039B981B002383F3118805B0BDE8E4
:10208000F08FA5EB0803424638460193FEF71CFF8C
:1020900007EB0800DDF80480E1684246FEF714FF14
:1020A000E2684346D318A361C5E72A463846FEF7DF
:1020B0000BFFA2692A44A261BDE700BF0000000037
:1020C0000C30FFF795BF00BF0000000000000000CB
:1020D0000C304FF0FF33FFF78BBF00BF0000000054
:1020E000244B25481A6962F01F022DE980481A61C5
:1020F0001A6902F01F021A614FF0FF341A695A6917
:102100005C61002259695A615969196A61F080510C
:102110001962196A01F080511962196A596A5C6280
:10212000596A5A62596A196C41F080511964196EE2
:1021300041F080511966196E016841F480710160A7
:10214000196F01F44071B1F5007F89B003D04FF4ED
:10215000803119671A67084808494268084B094CDA
:1021600022F40072002542600A460D6003F1C001AE
:102170000CE000BF00380240007000406C0A0020F4
:10218000982F00081060024053F80C4C25600C3367
:102190009942556002F10802F6D1D34BD349DFF8DA
:1021A00088E3D34F5D604FF0FF3CC1F808C0D14ECB
:1021B0009D606022C1F80CC04FF0800BCEF808C0C3
:1021C0004FF48070DD604FF0400ACEF80CC04FF441
:1021D000007903F1180E4FF480644FF4000187F882
:1021E0000623DFF848831D61C7F880A15D61C7F849
:1021F00000A0C3F818E087F80723C7F880B1C7F834
:1022000000B087F80823C7F88001386087F80923F1
:10221000C7F88091C7F8009087F80A234FF00109AA
:10222000C7F880413C6087F817234FF48024C7F833
:1022300080113960102187F82823C7F8840178605D
:1022400083F80090C3F81CE087F81223C7F8804198
:102250003C607561B163D8F84020A74801913446CD
:1022600042EA090244F8040B1D62DFF8C4E2C8F830
:102270004020D8F86020C3F828E0DFF8B8E2DD623B
:10228000C3F830E006F17403DFF8ACE23364C6F85B
:102290004CE09A4B9A48736706F10C0E06F1540312
:1022A00042EA09027460C6E903EE06F1640406F12D
:1022B000300EB361C6E90833F461F463C6E9114432
:1022C00086F80890C6E90A563665C6E90CEEC8F8E5
:1022D0006020D8F8603082688A4C4FF0804342EA30
:1022E0000902826042F2CF0E4FF08052C3F828E01C
:1022F00002A8C3F82CC004F11C0E9D615D63DD6073
:102300005D60C3F81490C3F8009087F81CB30023F5
:10231000C7F880213A600022C4E90044CDE90623D1
:10232000CDE902C5C4F824C0C4E907EECDE90455DF
:10233000A560C4E90444A5626567FEF761FE02A8D2
:10234000FEF7E6FEDFF8F4C16F48049AC4F838B02F
:10235000C4F86CB06267DFF8E8B1CCF814500CF147
:102360000C02CCE90155CCF800B0CCE9032200F115
:1023700024024FF0140C00F1100BC0F818C0426298
:102380004FF01C0C00F13C02C0F810B0C0F830C097
:1023900000F1280B00F1440CC26304225B4BC0F82F
:1023A00028B0C0F844C000EB0A0BC2614263DFF8FA
:1023B00094E1DFF894C1564AC0F840B0DFF88CB120
:1023C0008560CEE900C24561C562C0F820B0C0F8A2
:1023D00038B084F85150C4E91955C0E9000084F8B8
:1023E0005290D8684B4A6169DFF864C1DFF864E154
:1023F000C4F848E04FF6FF0B00EA0B00024304F17B
:102400003000616424640861DA60DCF80C20DFF8D5
:1024100048E1606142F08072CCF80C20DEF80020C8
:102420000199A06142EA090204F15C0004F1580C30
:102430004FF0200BE56484F85090CEF80020C4F8EB
:1024400058C0D977E06583F822B0206685F31188FB
:1024500062B68BF31188304B62693049C3F8A4200F
:10246000C3F8A81003F16C026169C3F89C20DFF87F
:10247000ECE0DFF8ECC0C3F88CC003F1900202205E
:10248000A3F8B0001D67C3F89890C3E93259C3F8A8
:10249000C45083F8B290C3F8A040C3F8AC30C3F87E
:1024A0006CE003F1B80C0A6103F1BC011046C3E90A
:1024B0002EC1C3F8C0106261FEF772FF85F3118868
:1024C0008BF31188337A4B4500F08A80736F144A7E
:1024D000934200F08280134840F2454240F68B015F
:1024E000834208BF0A463DE0000800200060024029
:1024F00000E100E0340800206031000800440040A2
:10250000002004E0B00800202809002000ED00E0D1
:10251000008001200003FA057009002088300008BF
:1025200000100140001401400064024000380240E5
:1025300000200140162C020061100008500A002003
:1025400011100008480A0020A00F0020D110000838
:10255000F0ED00E054300008001000E081120008A7
:10256000D10200084024012142F22C1000259A607B
:102570001C6102225961D860FF211D6018685B68E8
:1025800086F87810327285F31188204A2048214C51
:10259000DFF89480204F214E4FF4E471FEF730FFB6
:1025A0001F4A20484FF43271FEF72AFF02E00A204A
:1025B000FFF796F82378002BF9D0D8F80000FDF744
:1025C000F7FF02460B4630463946FFF7B1F840F2B6
:1025D000DC502570FFF784F8E9E740F68B02C1E78D
:1025E000D8F8403043F40033C8F84030D8F86030B1
:1025F00043F40033C8F86030C023D8F8602087F86F
:102600002633C7F884A1C7F804A05FE701170008C4
:10261000100B0020F00A00206C3000083408002065
:10262000F11C0008D80C0020F40A00200000000073
:10263000EFF30983203383F30988002383F31188A0
:10264000704700BF00000000000000000000000014
:1026500038B52022034682F31188104A9469A06A93
:10266000636204F12805A84206D00368A362FEF75E
:10267000AFFDA06AA842F8D194F8223043B994F88B
:1026800021309B0704D1D4E904231A6122695361E4
:102690000F20BDE83840FEF7EBBE00BFB0080020B9
:1026A0000E4A1068036830B4012194695A6000250D
:1026B00080F82010A1681360906184F8205000E039
:1026C0001B689A689142FBD35A682146C4E90032DC
:1026D00014605C6030BCFDF7F3BD00BFB0080020A3
:1026E0005F4B60481A69604942F01F02F0B51A61F9
:1026F0001A695E4F5E4E5F4D5F4C22F01F021A61F9
:102700001A691A6B42F01F021A631A6D42F01F0217
:102710001A656FF48A6C0022D3F850E04260C0F86A
:1027200008C04FF6DF7CC760C0F814C04FF4EE4716
:102730004FF42A2C0762C0F824C04FF0FF37066020
:102740004FF0553C4FF6FF7680204A608F60C1F80D
:102750000CC04E610A624A620860484848496A6093
:10276000AF60E96047496E612A626A622A60A5F536
:10277000CC356260A760C4F80CC0666122626262F8
:10278000226042604FF080548760C0F80CC0466100
:10279000ACF1050C0262426202604FF400404A60F4
:1027A0008F60C1F80CC04E610A624A620A601C6404
:1027B00028601A6842F001021A601A689407FCD572
:1027C0009968274A21F003019960936813F00C037C
:1027D000FBD11068224900F0F90010609360536F3C
:1027E00043F0010353674B6F9807FCD5264B4B60B2
:1027F0000B68264A43F080730B6053685904FCD57C
:10280000174A13689B01FCD521499160214B032194
:10281000C2F88C101A68204B9A4217D01F4B40F216
:1028200002721A600E4A936843F002039360936841
:1028300003F00C03082BFAD1536C43F48043536428
:10284000536E43F480435366536EF0BD144A154BE8
:1028500012689A42E2D1114B4FF481721A60E1E79B
:102860000038024000000240000402400551156497
:10287000A004802A00080240000C02400010024020
:1028800055555501001C02401054010700700040CE
:1028900000108838002004E011640020003C024051
:1028A00000ED00E041C20F41000000000000000008
:1028B0002DE9F047684D6E6FD6F80C803368DA0565
:1028C0009CB27DD4202383F3118814F02F0F4DD0B8
:1028D000624F4FF0000908E0A106D6F804A01DD40D
:1028E0003468A4B214F02F0F40D02307F4D014F0B2
:1028F000080F0CBF00208020E10748BF40F02000F7
:10290000A20748BF40F04000630748BF40F4807012
:10291000FEF776FCA106D6F804A0E1D56B6995F820
:102920007840002B3DD0D5E90832934240D06A6907
:10293000591C013204EA0A0A6A61296283F800A07C
:10294000D5E907329A4201D3AB692B62EB68BB42EF
:10295000C6D01A68EA6018465760C3F82490FEF79C
:1029600037FC3468A4B214F02F0FBED1002383F3D8
:10297000118818F0800F01D022062FD418F0400FD4
:102980000BD0630609D5202383F31188D5E91123E1
:102990009A4248D0002383F31188BDE8F047FEF740
:1029A00067BB0420FEF72CFCD5E908329342BED168
:1029B0006A69002ABBD04FF48060FEF721FC8FE7E4
:1029C000202383F311884FF40070FEF719FC6FF495
:1029D00080733360002383F3118873E7202383F32C
:1029E0001188D5E911239A4229D0AA6B296C581C69
:1029F0000132AA63A86488421F7801D3EB6BAB64F1
:102A00002B6B174A934209D0196829634FF0000CC9
:102A10004A601846C3F824C0FEF7DAFB776000234B
:102A200083F31188AAE7AB6B002BB3D01020FEF71D
:102A3000E7FB4FF6BF7308EA0303F360AAE7AA6B4C
:102A4000002AD2D00820FEF7DBFB4FF67F7308EA9E
:102A50000303F360E3E700BF3408002040080020D0
:102A600064080020000000000000000000000000DA
:102A70002DE9F0474FF080473B699B0703D4BDE841
:102A8000F047FEF7F5BA00213961202383F311885E
:102A90001D4CA146884659F81C3F9A68786AA16A7D
:102AA000451A95421CD320261868D3F80CA011446F
:102AB0004845A162A5EB0205C0F80490E061C3F8A7
:102AC0000C8008BFC7F80C8088F311881869D047BC
:102AD00086F31188E3699A689542DFD3A16AE3E738
:102AE000E2694A4509D09168A0624D1B95609B68D8
:102AF000022B2CBFC01802307863002383F31188A7
:102B0000BDE8F047FEF7B4BAB008002000000000AE
:102B1000084B09485968C26F890D01F03D0110B595
:102B20008C05DC6012B1D0F880009047BDE8104001
:102B3000FEF79EBA006402406C0A0020000000000C
:102B4000084B09485968426F090C01F03D0110B566
:102B50000C04DC600AB1806F9047BDE81040FEF7BE
:102B600087BA00BF006402406C0A00200000000029
:102B7000084B09485968C26E890901F03D0110B53A
:102B80008C01DC600AB1006F9047BDE81040FEF791
:102B90006FBA00BF006402406C0A00200000000011
:102BA00008B5074B07485968426E01F03D01D960EE
:102BB0000AB1806E9047BDE80840FEF759BA00BFE1
:102BC000006402406C0A00200000000000000000C9
:102BD000084B09481968C26D890D01F03D0110B517
:102BE0008C059C600AB1006E9047BDE81040FEF76E
:102BF0003FBA00BF006402406C0A002000000000E1
:102C0000084B09481968426D090C01F03D0110B5E7
:102C10000C049C600AB1806D9047BDE81040FEF73F
:102C200027BA00BF006402406C0A002000000000C8
:102C3000084B09481968C26C890901F03D0110B5BB
:102C40008C019C600AB1006D9047BDE81040FEF712
:102C50000FBA00BF006402406C0A002000000000B0
:102C600008B5074B07481968426C01F03D019960AF
:102C70000AB1806C9047BDE80840FEF7F9B900BF83
:102C8000006402406C0A0020000000000000000008
:102C9000084B09485968C26B890D01F03D0110B518
:102CA0008C05DC600AB1006C9047BDE81040FEF76F
:102CB000DFB900BF006002406C0A00200000000085
:102CC000084B09485968426B090C01F03D0110B5E9
:102CD0000C04DC600AB1806B9047BDE81040FEF741
:102CE000C7B900BF006002406C0A0020000000006D
:102CF000084B09485968C26A890901F03D0110B5BD
:102D00008C01DC600AB1006B9047BDE81040FEF713
:102D1000AFB900BF006002406C0A00200000000054
:102D200008B5074B07485968426A01F03D01D96070
:102D30000AB1806A9047BDE80840FEF799B900BF24
:102D4000006002406C0A002000000000000000004B
:102D5000084B09481968C269890D01F03D0110B599
:102D60008C059C600AB1006A9047BDE81040FEF7F0
:102D70007FB900BF006002406C0A00200000000024
:102D8000084B094819684269090C01F03D0110B56A
:102D90000C049C600AB180699047BDE81040FEF7C2
:102DA00067B900BF006002406C0A0020000000000C
:102DB000084B09481968C268890901F03D0110B53E
:102DC0008C019C600AB100699047BDE81040FEF795
:102DD0004FB900BF006002406C0A002000000000F4
:102DE00008B5074B07481968426801F03D01996032
:102DF0000AB180689047BDE80840FEF739B900BFC6
:102E0000006002406C0A002000000000000000008A
:102E1000304A38B515680021AB06116027D405F09B
:102E2000010505B32C4C2369EBB12046FEF730FABF
:102E300023699B68002B45D0052222700221204681
:102E400098472378052B04BF0223237000232361B6
:102E5000202383F311884FF0FF312048FEF700FA5A
:102E6000002383F31188BDE83840FEF701B91A4CFE
:102E7000E26A1268526805F00105002AD1D0236980
:102E8000002BF0D02046FEF703FA23699B68EBB1D4
:102E9000052222700121204698472378052B04BF84
:102EA0000223237000232361202383F311884FF032
:102EB000FF310A48FEF7D4F9002383F31188002D6F
:102EC000B0D1D0E7022223612270C1E70222236140
:102ED0002270E9E7002001400008002014080020CB
:102EE000F0B4144E144D154C154B164906F1700CE8
:102EF00000279C4211D904391A4651F8040F42F8B0
:102F0000040B9442F9D8DA43144424F00304043443
:102F100023449D4203D943F8047B9D42FBD8664578
:102F200005D0D6E90413D6E906451036E1E7F0BC32
:102F3000704700BFE0300008A00F0020A00F002065
:102F4000A00F0020883100080000000000000000F1
:102F5000FEE700BF000000000000000000000000CD
:102F6000704700BF000000000000000000000000EB
:042F7000704700BFE7
:102F74004C65642068616E646C6572004144432052
:102F840068616E646C657200106002400860024003
:102F94000000000B28600240086002400006010C9B
:102FA40040600240086002400010020D5860024078
:102FB400086002400016030E706002400C6002407C
:102FC4000000040F886002400C60024000060510F7
:102FD400A06002400C60024000100611B86002407C
:102FE4000C6002400016072F10640240086402407F
:102FF40000000838286402400864024000060939C9
:10300400406402400864024000100A3A58640240D6
:103014000864024000160B3B706402400C640240DA
:1030240000000C3C886402400C64024000060D441D
:10303400A06402400C64024000100E45B8640240D3
:103044000C64024000160F466E6F6E616D650000E1
:103054006D61696E00160130040444080C101418E4
:103064001C202122000000004C6173742076616CE6
:1030740075653A20252E32660D0A0000286E756C9F
:103084006C29000069646C65000000000000010008
:1030940000000000000000000000000000000040EC
:1030A4000000000006000000000000000000000016
:1030B40000000000000000000A000000640000009E
:1030C400E803000010270000A086010040420F0022
:1030D4008096980000E1F50500CA9A3B8831000803
:1030E400A00F0020A00F0020A00F002088310008AE
:1030F400000000000000000000000000883100080B
:1031040000000000000000000000000088310008FA
:1031140000000000000000000000000088310008EA
:1031240000000000000000000000000088310008DA
:1031340000000000000000000000000088310008CA
:1031440000000000000000000000000088310008BA
:10315400000000000000000000000000000000006B
:10316400E11F0008D120000851160008D1160008FC
:1031740041160008C1160008D11F0008C12000082C
:04318400911300089B
:04000005080002B934
:00000001FF
